{"abi":[{"inputs":[{"internalType":"string","name":"campaignName","type":"string"},{"internalType":"address","name":"sender","type":"address"}],"stateMutability":"nonpayable","type":"constructor"},{"inputs":[{"internalType":"uint256","name":"","type":"uint256"}],"name":"candidateIndex","outputs":[{"internalType":"uint256","name":"","type":"uint256"}],"stateMutability":"view","type":"function"},{"inputs":[{"internalType":"uint256","name":"","type":"uint256"}],"name":"candidates","outputs":[{"internalType":"uint256","name":"uid","type":"uint256"},{"internalType":"string","name":"fullName","type":"string"},{"internalType":"string","name":"location","type":"string"},{"internalType":"uint256","name":"votes","type":"uint256"}],"stateMutability":"view","type":"function"},{"inputs":[{"internalType":"uint256","name":"","type":"uint256"}],"name":"cids","outputs":[{"internalType":"uint256","name":"","type":"uint256"}],"stateMutability":"view","type":"function"},{"inputs":[],"name":"complete","outputs":[{"internalType":"bool","name":"","type":"bool"}],"stateMutability":"view","type":"function"},{"inputs":[],"name":"declareResult","outputs":[],"stateMutability":"nonpayable","type":"function"},{"inputs":[],"name":"getCandidateIds","outputs":[{"internalType":"uint256[]","name":"","type":"uint256[]"}],"stateMutability":"view","type":"function"},{"inputs":[],"name":"getCandidatesCount","outputs":[{"internalType":"uint256","name":"","type":"uint256"}],"stateMutability":"view","type":"function"},{"inputs":[],"name":"getResult","outputs":[{"internalType":"uint256","name":"","type":"uint256"},{"internalType":"uint256","name":"","type":"uint256"},{"internalType":"uint256","name":"","type":"uint256"}],"stateMutability":"view","type":"function"},{"inputs":[],"name":"getSummary","outputs":[{"internalType":"uint256","name":"","type":"uint256"},{"internalType":"uint256","name":"","type":"uint256"},{"internalType":"uint256","name":"","type":"uint256"}],"stateMutability":"view","type":"function"},{"inputs":[],"name":"getVoterIds","outputs":[{"internalType":"uint256[]","name":"","type":"uint256[]"}],"stateMutability":"view","type":"function"},{"inputs":[],"name":"getVotersCount","outputs":[{"internalType":"uint256","name":"","type":"uint256"}],"stateMutability":"view","type":"function"},{"inputs":[],"name":"manager","outputs":[{"internalType":"address","name":"","type":"address"}],"stateMutability":"view","type":"function"},{"inputs":[],"name":"name","outputs":[{"internalType":"string","name":"","type":"string"}],"stateMutability":"view","type":"function"},{"inputs":[{"internalType":"uint256","name":"vid","type":"uint256"},{"internalType":"uint256","name":"cid","type":"uint256"}],"name":"pollVote","outputs":[],"stateMutability":"nonpayable","type":"function"},{"inputs":[{"internalType":"uint256","name":"uid","type":"uint256"},{"internalType":"string","name":"fullName","type":"string"},{"internalType":"string","name":"location","type":"string"}],"name":"registerCandidate","outputs":[],"stateMutability":"nonpayable","type":"function"},{"inputs":[{"internalType":"uint256","name":"uid","type":"uint256"},{"internalType":"string","name":"fullName","type":"string"},{"internalType":"string","name":"location","type":"string"}],"name":"registerVoter","outputs":[],"stateMutability":"nonpayable","type":"function"},{"inputs":[],"name":"totalVotes","outputs":[{"internalType":"uint256","name":"","type":"uint256"}],"stateMutability":"view","type":"function"},{"inputs":[{"internalType":"uint256","name":"","type":"uint256"}],"name":"vids","outputs":[{"internalType":"uint256","name":"","type":"uint256"}],"stateMutability":"view","type":"function"},{"inputs":[{"internalType":"uint256","name":"","type":"uint256"}],"name":"voterIndex","outputs":[{"internalType":"uint256","name":"","type":"uint256"}],"stateMutability":"view","type":"function"},{"inputs":[{"internalType":"uint256","name":"","type":"uint256"}],"name":"voters","outputs":[{"internalType":"uint256","name":"uid","type":"uint256"},{"internalType":"string","name":"fullName","type":"string"},{"internalType":"string","name":"location","type":"string"},{"internalType":"bool","name":"voted","type":"bool"},{"internalType":"uint256","name":"cid","type":"uint256"}],"stateMutability":"view","type":"function"},{"inputs":[],"name":"winner","outputs":[{"internalType":"uint256","name":"","type":"uint256"}],"stateMutability":"view","type":"function"}],"devdoc":{"kind":"dev","methods":{},"version":1},"evm":{"assembly":"    /* \"Campaign.sol\":686:4897  contract Campaign {... */\n  mstore(0x40, 0x80)\n    /* \"Campaign.sol\":1660:1778  constructor(string memory campaignName, address sender) {... */\n  callvalue\n  dup1\n  iszero\n  tag_1\n  jumpi\n  0x00\n  dup1\n  revert\ntag_1:\n  pop\n  mload(0x40)\n  sub(codesize, bytecodeSize)\n  dup1\n  bytecodeSize\n  dup4\n  codecopy\n  dup2\n  dup2\n  add\n  0x40\n  mstore\n  dup2\n  add\n  swap1\n  tag_2\n  swap2\n  swap1\n  tag_3\n  jump\t// in\ntag_2:\n    /* \"Campaign.sol\":1736:1742  sender */\n  dup1\n    /* \"Campaign.sol\":1726:1733  manager */\n  0x00\n  dup1\n    /* \"Campaign.sol\":1726:1742  manager = sender */\n  0x0100\n  exp\n  dup2\n  sload\n  dup2\n  0xffffffffffffffffffffffffffffffffffffffff\n  mul\n  not\n  and\n  swap1\n  dup4\n  0xffffffffffffffffffffffffffffffffffffffff\n  and\n  mul\n  or\n  swap1\n  sstore\n  pop\n    /* \"Campaign.sol\":1759:1771  campaignName */\n  dup2\n    /* \"Campaign.sol\":1752:1756  name */\n  0x01\n    /* \"Campaign.sol\":1752:1771  name = campaignName */\n  swap1\n  dup1\n  mload\n  swap1\n  0x20\n  add\n  swap1\n  tag_6\n  swap3\n  swap2\n  swap1\n  tag_7\n  jump\t// in\ntag_6:\n  pop\n    /* \"Campaign.sol\":1660:1778  constructor(string memory campaignName, address sender) {... */\n  pop\n  pop\n    /* \"Campaign.sol\":686:4897  contract Campaign {... */\n  jump(tag_8)\ntag_7:\n  dup3\n  dup1\n  sload\n  tag_9\n  swap1\n  tag_10\n  jump\t// in\ntag_9:\n  swap1\n  0x00\n  mstore\n  keccak256(0x00, 0x20)\n  swap1\n  0x1f\n  add\n  0x20\n  swap1\n  div\n  dup2\n  add\n  swap3\n  dup3\n  tag_12\n  jumpi\n  0x00\n  dup6\n  sstore\n  jump(tag_11)\ntag_12:\n  dup3\n  0x1f\n  lt\n  tag_13\n  jumpi\n  dup1\n  mload\n  not(0xff)\n  and\n  dup4\n  dup1\n  add\n  or\n  dup6\n  sstore\n  jump(tag_11)\ntag_13:\n  dup3\n  dup1\n  add\n  0x01\n  add\n  dup6\n  sstore\n  dup3\n  iszero\n  tag_11\n  jumpi\n  swap2\n  dup3\n  add\ntag_14:\n  dup3\n  dup2\n  gt\n  iszero\n  tag_15\n  jumpi\n  dup3\n  mload\n  dup3\n  sstore\n  swap2\n  0x20\n  add\n  swap2\n  swap1\n  0x01\n  add\n  swap1\n  jump(tag_14)\ntag_15:\ntag_11:\n  pop\n  swap1\n  pop\n  tag_16\n  swap2\n  swap1\n  tag_17\n  jump\t// in\ntag_16:\n  pop\n  swap1\n  jump\t// out\ntag_17:\ntag_18:\n  dup1\n  dup3\n  gt\n  iszero\n  tag_19\n  jumpi\n  0x00\n  dup2\n  0x00\n  swap1\n  sstore\n  pop\n  0x01\n  add\n  jump(tag_18)\ntag_19:\n  pop\n  swap1\n  jump\t// out\n    /* \"#utility.yul\":7:82   */\ntag_20:\n    /* \"#utility.yul\":40:46   */\n  0x00\n    /* \"#utility.yul\":73:75   */\n  0x40\n    /* \"#utility.yul\":67:76   */\n  mload\n    /* \"#utility.yul\":57:76   */\n  swap1\n  pop\n    /* \"#utility.yul\":7:82   */\n  swap1\n  jump\t// out\n    /* \"#utility.yul\":88:205   */\ntag_21:\n    /* \"#utility.yul\":197:198   */\n  0x00\n    /* \"#utility.yul\":194:195   */\n  dup1\n    /* \"#utility.yul\":187:199   */\n  revert\n    /* \"#utility.yul\":211:328   */\ntag_22:\n    /* \"#utility.yul\":320:321   */\n  0x00\n    /* \"#utility.yul\":317:318   */\n  dup1\n    /* \"#utility.yul\":310:322   */\n  revert\n    /* \"#utility.yul\":334:451   */\ntag_23:\n    /* \"#utility.yul\":443:444   */\n  0x00\n    /* \"#utility.yul\":440:441   */\n  dup1\n    /* \"#utility.yul\":433:445   */\n  revert\n    /* \"#utility.yul\":457:574   */\ntag_24:\n    /* \"#utility.yul\":566:567   */\n  0x00\n    /* \"#utility.yul\":563:564   */\n  dup1\n    /* \"#utility.yul\":556:568   */\n  revert\n    /* \"#utility.yul\":580:682   */\ntag_25:\n    /* \"#utility.yul\":621:627   */\n  0x00\n    /* \"#utility.yul\":672:674   */\n  0x1f\n    /* \"#utility.yul\":668:675   */\n  not\n    /* \"#utility.yul\":663:665   */\n  0x1f\n    /* \"#utility.yul\":656:661   */\n  dup4\n    /* \"#utility.yul\":652:666   */\n  add\n    /* \"#utility.yul\":648:676   */\n  and\n    /* \"#utility.yul\":638:676   */\n  swap1\n  pop\n    /* \"#utility.yul\":580:682   */\n  swap2\n  swap1\n  pop\n  jump\t// out\n    /* \"#utility.yul\":688:868   */\ntag_26:\n    /* \"#utility.yul\":736:813   */\n  0x4e487b7100000000000000000000000000000000000000000000000000000000\n    /* \"#utility.yul\":733:734   */\n  0x00\n    /* \"#utility.yul\":726:814   */\n  mstore\n    /* \"#utility.yul\":833:837   */\n  0x41\n    /* \"#utility.yul\":830:831   */\n  0x04\n    /* \"#utility.yul\":823:838   */\n  mstore\n    /* \"#utility.yul\":857:861   */\n  0x24\n    /* \"#utility.yul\":854:855   */\n  0x00\n    /* \"#utility.yul\":847:862   */\n  revert\n    /* \"#utility.yul\":874:1155   */\ntag_27:\n    /* \"#utility.yul\":957:984   */\n  tag_47\n    /* \"#utility.yul\":979:983   */\n  dup3\n    /* \"#utility.yul\":957:984   */\n  tag_25\n  jump\t// in\ntag_47:\n    /* \"#utility.yul\":949:955   */\n  dup2\n    /* \"#utility.yul\":945:985   */\n  add\n    /* \"#utility.yul\":1087:1093   */\n  dup2\n    /* \"#utility.yul\":1075:1085   */\n  dup2\n    /* \"#utility.yul\":1072:1094   */\n  lt\n    /* \"#utility.yul\":1051:1069   */\n  0xffffffffffffffff\n    /* \"#utility.yul\":1039:1049   */\n  dup3\n    /* \"#utility.yul\":1036:1070   */\n  gt\n    /* \"#utility.yul\":1033:1095   */\n  or\n    /* \"#utility.yul\":1030:1118   */\n  iszero\n  tag_48\n  jumpi\n    /* \"#utility.yul\":1098:1116   */\n  tag_49\n  tag_26\n  jump\t// in\ntag_49:\n    /* \"#utility.yul\":1030:1118   */\ntag_48:\n    /* \"#utility.yul\":1138:1148   */\n  dup1\n    /* \"#utility.yul\":1134:1136   */\n  0x40\n    /* \"#utility.yul\":1127:1149   */\n  mstore\n    /* \"#utility.yul\":917:1155   */\n  pop\n    /* \"#utility.yul\":874:1155   */\n  pop\n  pop\n  jump\t// out\n    /* \"#utility.yul\":1161:1290   */\ntag_28:\n    /* \"#utility.yul\":1195:1201   */\n  0x00\n    /* \"#utility.yul\":1222:1242   */\n  tag_51\n  tag_20\n  jump\t// in\ntag_51:\n    /* \"#utility.yul\":1212:1242   */\n  swap1\n  pop\n    /* \"#utility.yul\":1251:1284   */\n  tag_52\n    /* \"#utility.yul\":1279:1283   */\n  dup3\n    /* \"#utility.yul\":1271:1277   */\n  dup3\n    /* \"#utility.yul\":1251:1284   */\n  tag_27\n  jump\t// in\ntag_52:\n    /* \"#utility.yul\":1161:1290   */\n  swap2\n  swap1\n  pop\n  jump\t// out\n    /* \"#utility.yul\":1296:1604   */\ntag_29:\n    /* \"#utility.yul\":1358:1362   */\n  0x00\n    /* \"#utility.yul\":1448:1466   */\n  0xffffffffffffffff\n    /* \"#utility.yul\":1440:1446   */\n  dup3\n    /* \"#utility.yul\":1437:1467   */\n  gt\n    /* \"#utility.yul\":1434:1490   */\n  iszero\n  tag_54\n  jumpi\n    /* \"#utility.yul\":1470:1488   */\n  tag_55\n  tag_26\n  jump\t// in\ntag_55:\n    /* \"#utility.yul\":1434:1490   */\ntag_54:\n    /* \"#utility.yul\":1508:1537   */\n  tag_56\n    /* \"#utility.yul\":1530:1536   */\n  dup3\n    /* \"#utility.yul\":1508:1537   */\n  tag_25\n  jump\t// in\ntag_56:\n    /* \"#utility.yul\":1500:1537   */\n  swap1\n  pop\n    /* \"#utility.yul\":1592:1596   */\n  0x20\n    /* \"#utility.yul\":1586:1590   */\n  dup2\n    /* \"#utility.yul\":1582:1597   */\n  add\n    /* \"#utility.yul\":1574:1597   */\n  swap1\n  pop\n    /* \"#utility.yul\":1296:1604   */\n  swap2\n  swap1\n  pop\n  jump\t// out\n    /* \"#utility.yul\":1610:1917   */\ntag_30:\n    /* \"#utility.yul\":1678:1679   */\n  0x00\n    /* \"#utility.yul\":1688:1801   */\ntag_58:\n    /* \"#utility.yul\":1702:1708   */\n  dup4\n    /* \"#utility.yul\":1699:1700   */\n  dup2\n    /* \"#utility.yul\":1696:1709   */\n  lt\n    /* \"#utility.yul\":1688:1801   */\n  iszero\n  tag_60\n  jumpi\n    /* \"#utility.yul\":1787:1788   */\n  dup1\n    /* \"#utility.yul\":1782:1785   */\n  dup3\n    /* \"#utility.yul\":1778:1789   */\n  add\n    /* \"#utility.yul\":1772:1790   */\n  mload\n    /* \"#utility.yul\":1768:1769   */\n  dup2\n    /* \"#utility.yul\":1763:1766   */\n  dup5\n    /* \"#utility.yul\":1759:1770   */\n  add\n    /* \"#utility.yul\":1752:1791   */\n  mstore\n    /* \"#utility.yul\":1724:1726   */\n  0x20\n    /* \"#utility.yul\":1721:1722   */\n  dup2\n    /* \"#utility.yul\":1717:1727   */\n  add\n    /* \"#utility.yul\":1712:1727   */\n  swap1\n  pop\n    /* \"#utility.yul\":1688:1801   */\n  jump(tag_58)\ntag_60:\n    /* \"#utility.yul\":1819:1825   */\n  dup4\n    /* \"#utility.yul\":1816:1817   */\n  dup2\n    /* \"#utility.yul\":1813:1826   */\n  gt\n    /* \"#utility.yul\":1810:1911   */\n  iszero\n  tag_61\n  jumpi\n    /* \"#utility.yul\":1899:1900   */\n  0x00\n    /* \"#utility.yul\":1890:1896   */\n  dup5\n    /* \"#utility.yul\":1885:1888   */\n  dup5\n    /* \"#utility.yul\":1881:1897   */\n  add\n    /* \"#utility.yul\":1874:1901   */\n  mstore\n    /* \"#utility.yul\":1810:1911   */\ntag_61:\n    /* \"#utility.yul\":1659:1917   */\n  pop\n    /* \"#utility.yul\":1610:1917   */\n  pop\n  pop\n  pop\n  jump\t// out\n    /* \"#utility.yul\":1923:2344   */\ntag_31:\n    /* \"#utility.yul\":2012:2017   */\n  0x00\n    /* \"#utility.yul\":2037:2103   */\n  tag_63\n    /* \"#utility.yul\":2053:2102   */\n  tag_64\n    /* \"#utility.yul\":2095:2101   */\n  dup5\n    /* \"#utility.yul\":2053:2102   */\n  tag_29\n  jump\t// in\ntag_64:\n    /* \"#utility.yul\":2037:2103   */\n  tag_28\n  jump\t// in\ntag_63:\n    /* \"#utility.yul\":2028:2103   */\n  swap1\n  pop\n    /* \"#utility.yul\":2126:2132   */\n  dup3\n    /* \"#utility.yul\":2119:2124   */\n  dup2\n    /* \"#utility.yul\":2112:2133   */\n  mstore\n    /* \"#utility.yul\":2164:2168   */\n  0x20\n    /* \"#utility.yul\":2157:2162   */\n  dup2\n    /* \"#utility.yul\":2153:2169   */\n  add\n    /* \"#utility.yul\":2202:2205   */\n  dup5\n    /* \"#utility.yul\":2193:2199   */\n  dup5\n    /* \"#utility.yul\":2188:2191   */\n  dup5\n    /* \"#utility.yul\":2184:2200   */\n  add\n    /* \"#utility.yul\":2181:2206   */\n  gt\n    /* \"#utility.yul\":2178:2290   */\n  iszero\n  tag_65\n  jumpi\n    /* \"#utility.yul\":2209:2288   */\n  tag_66\n  tag_24\n  jump\t// in\ntag_66:\n    /* \"#utility.yul\":2178:2290   */\ntag_65:\n    /* \"#utility.yul\":2299:2338   */\n  tag_67\n    /* \"#utility.yul\":2331:2337   */\n  dup5\n    /* \"#utility.yul\":2326:2329   */\n  dup3\n    /* \"#utility.yul\":2321:2324   */\n  dup6\n    /* \"#utility.yul\":2299:2338   */\n  tag_30\n  jump\t// in\ntag_67:\n    /* \"#utility.yul\":2018:2344   */\n  pop\n    /* \"#utility.yul\":1923:2344   */\n  swap4\n  swap3\n  pop\n  pop\n  pop\n  jump\t// out\n    /* \"#utility.yul\":2364:2719   */\ntag_32:\n    /* \"#utility.yul\":2431:2436   */\n  0x00\n    /* \"#utility.yul\":2480:2483   */\n  dup3\n    /* \"#utility.yul\":2473:2477   */\n  0x1f\n    /* \"#utility.yul\":2465:2471   */\n  dup4\n    /* \"#utility.yul\":2461:2478   */\n  add\n    /* \"#utility.yul\":2457:2484   */\n  slt\n    /* \"#utility.yul\":2447:2569   */\n  tag_69\n  jumpi\n    /* \"#utility.yul\":2488:2567   */\n  tag_70\n  tag_23\n  jump\t// in\ntag_70:\n    /* \"#utility.yul\":2447:2569   */\ntag_69:\n    /* \"#utility.yul\":2598:2604   */\n  dup2\n    /* \"#utility.yul\":2592:2605   */\n  mload\n    /* \"#utility.yul\":2623:2713   */\n  tag_71\n    /* \"#utility.yul\":2709:2712   */\n  dup5\n    /* \"#utility.yul\":2701:2707   */\n  dup3\n    /* \"#utility.yul\":2694:2698   */\n  0x20\n    /* \"#utility.yul\":2686:2692   */\n  dup7\n    /* \"#utility.yul\":2682:2699   */\n  add\n    /* \"#utility.yul\":2623:2713   */\n  tag_31\n  jump\t// in\ntag_71:\n    /* \"#utility.yul\":2614:2713   */\n  swap2\n  pop\n    /* \"#utility.yul\":2437:2719   */\n  pop\n    /* \"#utility.yul\":2364:2719   */\n  swap3\n  swap2\n  pop\n  pop\n  jump\t// out\n    /* \"#utility.yul\":2725:2851   */\ntag_33:\n    /* \"#utility.yul\":2762:2769   */\n  0x00\n    /* \"#utility.yul\":2802:2844   */\n  0xffffffffffffffffffffffffffffffffffffffff\n    /* \"#utility.yul\":2795:2800   */\n  dup3\n    /* \"#utility.yul\":2791:2845   */\n  and\n    /* \"#utility.yul\":2780:2845   */\n  swap1\n  pop\n    /* \"#utility.yul\":2725:2851   */\n  swap2\n  swap1\n  pop\n  jump\t// out\n    /* \"#utility.yul\":2857:2953   */\ntag_34:\n    /* \"#utility.yul\":2894:2901   */\n  0x00\n    /* \"#utility.yul\":2923:2947   */\n  tag_74\n    /* \"#utility.yul\":2941:2946   */\n  dup3\n    /* \"#utility.yul\":2923:2947   */\n  tag_33\n  jump\t// in\ntag_74:\n    /* \"#utility.yul\":2912:2947   */\n  swap1\n  pop\n    /* \"#utility.yul\":2857:2953   */\n  swap2\n  swap1\n  pop\n  jump\t// out\n    /* \"#utility.yul\":2959:3081   */\ntag_35:\n    /* \"#utility.yul\":3032:3056   */\n  tag_76\n    /* \"#utility.yul\":3050:3055   */\n  dup2\n    /* \"#utility.yul\":3032:3056   */\n  tag_34\n  jump\t// in\ntag_76:\n    /* \"#utility.yul\":3025:3030   */\n  dup2\n    /* \"#utility.yul\":3022:3057   */\n  eq\n    /* \"#utility.yul\":3012:3075   */\n  tag_77\n  jumpi\n    /* \"#utility.yul\":3071:3072   */\n  0x00\n    /* \"#utility.yul\":3068:3069   */\n  dup1\n    /* \"#utility.yul\":3061:3073   */\n  revert\n    /* \"#utility.yul\":3012:3075   */\ntag_77:\n    /* \"#utility.yul\":2959:3081   */\n  pop\n  jump\t// out\n    /* \"#utility.yul\":3087:3230   */\ntag_36:\n    /* \"#utility.yul\":3144:3149   */\n  0x00\n    /* \"#utility.yul\":3175:3181   */\n  dup2\n    /* \"#utility.yul\":3169:3182   */\n  mload\n    /* \"#utility.yul\":3160:3182   */\n  swap1\n  pop\n    /* \"#utility.yul\":3191:3224   */\n  tag_79\n    /* \"#utility.yul\":3218:3223   */\n  dup2\n    /* \"#utility.yul\":3191:3224   */\n  tag_35\n  jump\t// in\ntag_79:\n    /* \"#utility.yul\":3087:3230   */\n  swap3\n  swap2\n  pop\n  pop\n  jump\t// out\n    /* \"#utility.yul\":3236:3916   */\ntag_3:\n    /* \"#utility.yul\":3325:3331   */\n  0x00\n    /* \"#utility.yul\":3333:3339   */\n  dup1\n    /* \"#utility.yul\":3382:3384   */\n  0x40\n    /* \"#utility.yul\":3370:3379   */\n  dup4\n    /* \"#utility.yul\":3361:3368   */\n  dup6\n    /* \"#utility.yul\":3357:3380   */\n  sub\n    /* \"#utility.yul\":3353:3385   */\n  slt\n    /* \"#utility.yul\":3350:3469   */\n  iszero\n  tag_81\n  jumpi\n    /* \"#utility.yul\":3388:3467   */\n  tag_82\n  tag_21\n  jump\t// in\ntag_82:\n    /* \"#utility.yul\":3350:3469   */\ntag_81:\n    /* \"#utility.yul\":3529:3530   */\n  0x00\n    /* \"#utility.yul\":3518:3527   */\n  dup4\n    /* \"#utility.yul\":3514:3531   */\n  add\n    /* \"#utility.yul\":3508:3532   */\n  mload\n    /* \"#utility.yul\":3559:3577   */\n  0xffffffffffffffff\n    /* \"#utility.yul\":3551:3557   */\n  dup2\n    /* \"#utility.yul\":3548:3578   */\n  gt\n    /* \"#utility.yul\":3545:3662   */\n  iszero\n  tag_83\n  jumpi\n    /* \"#utility.yul\":3581:3660   */\n  tag_84\n  tag_22\n  jump\t// in\ntag_84:\n    /* \"#utility.yul\":3545:3662   */\ntag_83:\n    /* \"#utility.yul\":3686:3760   */\n  tag_85\n    /* \"#utility.yul\":3752:3759   */\n  dup6\n    /* \"#utility.yul\":3743:3749   */\n  dup3\n    /* \"#utility.yul\":3732:3741   */\n  dup7\n    /* \"#utility.yul\":3728:3750   */\n  add\n    /* \"#utility.yul\":3686:3760   */\n  tag_32\n  jump\t// in\ntag_85:\n    /* \"#utility.yul\":3676:3760   */\n  swap3\n  pop\n    /* \"#utility.yul\":3479:3770   */\n  pop\n    /* \"#utility.yul\":3809:3811   */\n  0x20\n    /* \"#utility.yul\":3835:3899   */\n  tag_86\n    /* \"#utility.yul\":3891:3898   */\n  dup6\n    /* \"#utility.yul\":3882:3888   */\n  dup3\n    /* \"#utility.yul\":3871:3880   */\n  dup7\n    /* \"#utility.yul\":3867:3889   */\n  add\n    /* \"#utility.yul\":3835:3899   */\n  tag_36\n  jump\t// in\ntag_86:\n    /* \"#utility.yul\":3825:3899   */\n  swap2\n  pop\n    /* \"#utility.yul\":3780:3909   */\n  pop\n    /* \"#utility.yul\":3236:3916   */\n  swap3\n  pop\n  swap3\n  swap1\n  pop\n  jump\t// out\n    /* \"#utility.yul\":3922:4102   */\ntag_37:\n    /* \"#utility.yul\":3970:4047   */\n  0x4e487b7100000000000000000000000000000000000000000000000000000000\n    /* \"#utility.yul\":3967:3968   */\n  0x00\n    /* \"#utility.yul\":3960:4048   */\n  mstore\n    /* \"#utility.yul\":4067:4071   */\n  0x22\n    /* \"#utility.yul\":4064:4065   */\n  0x04\n    /* \"#utility.yul\":4057:4072   */\n  mstore\n    /* \"#utility.yul\":4091:4095   */\n  0x24\n    /* \"#utility.yul\":4088:4089   */\n  0x00\n    /* \"#utility.yul\":4081:4096   */\n  revert\n    /* \"#utility.yul\":4108:4428   */\ntag_10:\n    /* \"#utility.yul\":4152:4158   */\n  0x00\n    /* \"#utility.yul\":4189:4190   */\n  0x02\n    /* \"#utility.yul\":4183:4187   */\n  dup3\n    /* \"#utility.yul\":4179:4191   */\n  div\n    /* \"#utility.yul\":4169:4191   */\n  swap1\n  pop\n    /* \"#utility.yul\":4236:4237   */\n  0x01\n    /* \"#utility.yul\":4230:4234   */\n  dup3\n    /* \"#utility.yul\":4226:4238   */\n  and\n    /* \"#utility.yul\":4257:4275   */\n  dup1\n    /* \"#utility.yul\":4247:4328   */\n  tag_89\n  jumpi\n    /* \"#utility.yul\":4313:4317   */\n  0x7f\n    /* \"#utility.yul\":4305:4311   */\n  dup3\n    /* \"#utility.yul\":4301:4318   */\n  and\n    /* \"#utility.yul\":4291:4318   */\n  swap2\n  pop\n    /* \"#utility.yul\":4247:4328   */\ntag_89:\n    /* \"#utility.yul\":4375:4377   */\n  0x20\n    /* \"#utility.yul\":4367:4373   */\n  dup3\n    /* \"#utility.yul\":4364:4378   */\n  lt\n    /* \"#utility.yul\":4344:4362   */\n  dup2\n    /* \"#utility.yul\":4341:4379   */\n  eq\n    /* \"#utility.yul\":4338:4422   */\n  iszero\n  tag_90\n  jumpi\n    /* \"#utility.yul\":4394:4412   */\n  tag_91\n  tag_37\n  jump\t// in\ntag_91:\n    /* \"#utility.yul\":4338:4422   */\ntag_90:\n    /* \"#utility.yul\":4159:4428   */\n  pop\n    /* \"#utility.yul\":4108:4428   */\n  swap2\n  swap1\n  pop\n  jump\t// out\n    /* \"Campaign.sol\":686:4897  contract Campaign {... */\ntag_8:\n  dataSize(sub_0)\n  dup1\n  dataOffset(sub_0)\n  0x00\n  codecopy\n  0x00\n  return\nstop\n\nsub_0: assembly {\n        /* \"Campaign.sol\":686:4897  contract Campaign {... */\n      mstore(0x40, 0x80)\n      callvalue\n      dup1\n      iszero\n      tag_1\n      jumpi\n      0x00\n      dup1\n      revert\n    tag_1:\n      pop\n      jumpi(tag_2, lt(calldatasize, 0x04))\n      shr(0xe0, calldataload(0x00))\n      dup1\n      0xbd5b5faf\n      gt\n      tag_24\n      jumpi\n      dup1\n      0xd64042a3\n      gt\n      tag_25\n      jumpi\n      dup1\n      0xd64042a3\n      eq\n      tag_18\n      jumpi\n      dup1\n      0xda58c7d9\n      eq\n      tag_19\n      jumpi\n      dup1\n      0xda60f7b1\n      eq\n      tag_20\n      jumpi\n      dup1\n      0xde292789\n      eq\n      tag_21\n      jumpi\n      dup1\n      0xdfbf53ae\n      eq\n      tag_22\n      jumpi\n      dup1\n      0xf8394d63\n      eq\n      tag_23\n      jumpi\n      jump(tag_2)\n    tag_25:\n      dup1\n      0xbd5b5faf\n      eq\n      tag_13\n      jumpi\n      dup1\n      0xbec0fde2\n      eq\n      tag_14\n      jumpi\n      dup1\n      0xc0f2a777\n      eq\n      tag_15\n      jumpi\n      dup1\n      0xcd65a20a\n      eq\n      tag_16\n      jumpi\n      dup1\n      0xd3fe94bf\n      eq\n      tag_17\n      jumpi\n      jump(tag_2)\n    tag_24:\n      dup1\n      0x522e1177\n      gt\n      tag_26\n      jumpi\n      dup1\n      0x522e1177\n      eq\n      tag_8\n      jumpi\n      dup1\n      0x704fe710\n      eq\n      tag_9\n      jumpi\n      dup1\n      0x749e28b9\n      eq\n      tag_10\n      jumpi\n      dup1\n      0x8574c296\n      eq\n      tag_11\n      jumpi\n      dup1\n      0xbb9aa28f\n      eq\n      tag_12\n      jumpi\n      jump(tag_2)\n    tag_26:\n      dup1\n      0x06fdde03\n      eq\n      tag_3\n      jumpi\n      dup1\n      0x0d15fd77\n      eq\n      tag_4\n      jumpi\n      dup1\n      0x3477ee2e\n      eq\n      tag_5\n      jumpi\n      dup1\n      0x4051ddac\n      eq\n      tag_6\n      jumpi\n      dup1\n      0x481c6a75\n      eq\n      tag_7\n      jumpi\n    tag_2:\n      0x00\n      dup1\n      revert\n        /* \"Campaign.sol\":1108:1126  string public name */\n    tag_3:\n      tag_27\n      tag_28\n      jump\t// in\n    tag_27:\n      mload(0x40)\n      tag_29\n      swap2\n      swap1\n      tag_30\n      jump\t// in\n    tag_29:\n      mload(0x40)\n      dup1\n      swap2\n      sub\n      swap1\n      return\n        /* \"Campaign.sol\":1380:1405  uint256 public totalVotes */\n    tag_4:\n      tag_31\n      tag_32\n      jump\t// in\n    tag_31:\n      mload(0x40)\n      tag_33\n      swap2\n      swap1\n      tag_34\n      jump\t// in\n    tag_33:\n      mload(0x40)\n      dup1\n      swap2\n      sub\n      swap1\n      return\n        /* \"Campaign.sol\":1257:1286  Candidate[] public candidates */\n    tag_5:\n      tag_35\n      0x04\n      dup1\n      calldatasize\n      sub\n      dup2\n      add\n      swap1\n      tag_36\n      swap2\n      swap1\n      tag_37\n      jump\t// in\n    tag_36:\n      tag_38\n      jump\t// in\n    tag_35:\n      mload(0x40)\n      tag_39\n      swap5\n      swap4\n      swap3\n      swap2\n      swap1\n      tag_40\n      jump\t// in\n    tag_39:\n      mload(0x40)\n      dup1\n      swap2\n      sub\n      swap1\n      return\n        /* \"Campaign.sol\":3938:4152  function getSummary()... */\n    tag_6:\n      tag_41\n      tag_42\n      jump\t// in\n    tag_41:\n      mload(0x40)\n      tag_43\n      swap4\n      swap3\n      swap2\n      swap1\n      tag_44\n      jump\t// in\n    tag_43:\n      mload(0x40)\n      dup1\n      swap2\n      sub\n      swap1\n      return\n        /* \"Campaign.sol\":1040:1062  address public manager */\n    tag_7:\n      tag_45\n      tag_46\n      jump\t// in\n    tag_45:\n      mload(0x40)\n      tag_47\n      swap2\n      swap1\n      tag_48\n      jump\t// in\n    tag_47:\n      mload(0x40)\n      dup1\n      swap2\n      sub\n      swap1\n      return\n        /* \"Campaign.sol\":1433:1453  bool public complete */\n    tag_8:\n      tag_49\n      tag_50\n      jump\t// in\n    tag_49:\n      mload(0x40)\n      tag_51\n      swap2\n      swap1\n      tag_52\n      jump\t// in\n    tag_51:\n      mload(0x40)\n      dup1\n      swap2\n      sub\n      swap1\n      return\n        /* \"Campaign.sol\":1315:1336  uint256[] public cids */\n    tag_9:\n      tag_53\n      0x04\n      dup1\n      calldatasize\n      sub\n      dup2\n      add\n      swap1\n      tag_54\n      swap2\n      swap1\n      tag_37\n      jump\t// in\n    tag_54:\n      tag_55\n      jump\t// in\n    tag_53:\n      mload(0x40)\n      tag_56\n      swap2\n      swap1\n      tag_34\n      jump\t// in\n    tag_56:\n      mload(0x40)\n      dup1\n      swap2\n      sub\n      swap1\n      return\n        /* \"Campaign.sol\":2732:3193  function pollVote(uint256 vid, uint256 cid) public {... */\n    tag_10:\n      tag_57\n      0x04\n      dup1\n      calldatasize\n      sub\n      dup2\n      add\n      swap1\n      tag_58\n      swap2\n      swap1\n      tag_59\n      jump\t// in\n    tag_58:\n      tag_60\n      jump\t// in\n    tag_57:\n      stop\n        /* \"Campaign.sol\":3234:3643  function declareResult() public restricted {... */\n    tag_11:\n      tag_61\n      tag_62\n      jump\t// in\n    tag_61:\n      stop\n        /* \"Campaign.sol\":4342:4443  function getCandidatesCount() public view returns (uint256) {... */\n    tag_12:\n      tag_63\n      tag_64\n      jump\t// in\n    tag_63:\n      mload(0x40)\n      tag_65\n      swap2\n      swap1\n      tag_34\n      jump\t// in\n    tag_65:\n      mload(0x40)\n      dup1\n      swap2\n      sub\n      swap1\n      return\n        /* \"Campaign.sol\":2282:2700  function registerCandidate(... */\n    tag_13:\n      tag_66\n      0x04\n      dup1\n      calldatasize\n      sub\n      dup2\n      add\n      swap1\n      tag_67\n      swap2\n      swap1\n      tag_68\n      jump\t// in\n    tag_67:\n      tag_69\n      jump\t// in\n    tag_66:\n      stop\n        /* \"Campaign.sol\":4643:4737  function getCandidateIds() public view returns (uint256[] memory) {... */\n    tag_14:\n      tag_70\n      tag_71\n      jump\t// in\n    tag_70:\n      mload(0x40)\n      tag_72\n      swap2\n      swap1\n      tag_73\n      jump\t// in\n    tag_72:\n      mload(0x40)\n      dup1\n      swap2\n      sub\n      swap1\n      return\n        /* \"Campaign.sol\":4199:4292  function getVotersCount() public view returns (uint256) {... */\n    tag_15:\n      tag_74\n      tag_75\n      jump\t// in\n    tag_74:\n      mload(0x40)\n      tag_76\n      swap2\n      swap1\n      tag_34\n      jump\t// in\n    tag_76:\n      mload(0x40)\n      dup1\n      swap2\n      sub\n      swap1\n      return\n        /* \"Campaign.sol\":1821:2235  function registerVoter(... */\n    tag_16:\n      tag_77\n      0x04\n      dup1\n      calldatasize\n      sub\n      dup2\n      add\n      swap1\n      tag_78\n      swap2\n      swap1\n      tag_68\n      jump\t// in\n    tag_78:\n      tag_79\n      jump\t// in\n    tag_77:\n      stop\n        /* \"Campaign.sol\":1196:1217  uint256[] public vids */\n    tag_17:\n      tag_80\n      0x04\n      dup1\n      calldatasize\n      sub\n      dup2\n      add\n      swap1\n      tag_81\n      swap2\n      swap1\n      tag_37\n      jump\t// in\n    tag_81:\n      tag_82\n      jump\t// in\n    tag_80:\n      mload(0x40)\n      tag_83\n      swap2\n      swap1\n      tag_34\n      jump\t// in\n    tag_83:\n      mload(0x40)\n      dup1\n      swap2\n      sub\n      swap1\n      return\n        /* \"Campaign.sol\":4496:4586  function getVoterIds() public view returns (uint256[] memory) {... */\n    tag_18:\n      tag_84\n      tag_85\n      jump\t// in\n    tag_84:\n      mload(0x40)\n      tag_86\n      swap2\n      swap1\n      tag_73\n      jump\t// in\n    tag_86:\n      mload(0x40)\n      dup1\n      swap2\n      sub\n      swap1\n      return\n        /* \"Campaign.sol\":1150:1171  Voter[] public voters */\n    tag_19:\n      tag_87\n      0x04\n      dup1\n      calldatasize\n      sub\n      dup2\n      add\n      swap1\n      tag_88\n      swap2\n      swap1\n      tag_37\n      jump\t// in\n    tag_88:\n      tag_89\n      jump\t// in\n    tag_87:\n      mload(0x40)\n      tag_90\n      swap6\n      swap5\n      swap4\n      swap3\n      swap2\n      swap1\n      tag_91\n      jump\t// in\n    tag_90:\n      mload(0x40)\n      dup1\n      swap2\n      sub\n      swap1\n      return\n        /* \"Campaign.sol\":1572:1621  mapping(uint256 => uint256) public candidateIndex */\n    tag_20:\n      tag_92\n      0x04\n      dup1\n      calldatasize\n      sub\n      dup2\n      add\n      swap1\n      tag_93\n      swap2\n      swap1\n      tag_37\n      jump\t// in\n    tag_93:\n      tag_94\n      jump\t// in\n    tag_92:\n      mload(0x40)\n      tag_95\n      swap2\n      swap1\n      tag_34\n      jump\t// in\n    tag_95:\n      mload(0x40)\n      dup1\n      swap2\n      sub\n      swap1\n      return\n        /* \"Campaign.sol\":3675:3904  function getResult()... */\n    tag_21:\n      tag_96\n      tag_97\n      jump\t// in\n    tag_96:\n      mload(0x40)\n      tag_98\n      swap4\n      swap3\n      swap2\n      swap1\n      tag_44\n      jump\t// in\n    tag_98:\n      mload(0x40)\n      dup1\n      swap2\n      sub\n      swap1\n      return\n        /* \"Campaign.sol\":1479:1500  uint256 public winner */\n    tag_22:\n      tag_99\n      tag_100\n      jump\t// in\n    tag_99:\n      mload(0x40)\n      tag_101\n      swap2\n      swap1\n      tag_34\n      jump\t// in\n    tag_101:\n      mload(0x40)\n      dup1\n      swap2\n      sub\n      swap1\n      return\n        /* \"Campaign.sol\":1521:1566  mapping(uint256 => uint256) public voterIndex */\n    tag_23:\n      tag_102\n      0x04\n      dup1\n      calldatasize\n      sub\n      dup2\n      add\n      swap1\n      tag_103\n      swap2\n      swap1\n      tag_37\n      jump\t// in\n    tag_103:\n      tag_104\n      jump\t// in\n    tag_102:\n      mload(0x40)\n      tag_105\n      swap2\n      swap1\n      tag_34\n      jump\t// in\n    tag_105:\n      mload(0x40)\n      dup1\n      swap2\n      sub\n      swap1\n      return\n        /* \"Campaign.sol\":1108:1126  string public name */\n    tag_28:\n      0x01\n      dup1\n      sload\n      tag_106\n      swap1\n      tag_107\n      jump\t// in\n    tag_106:\n      dup1\n      0x1f\n      add\n      0x20\n      dup1\n      swap2\n      div\n      mul\n      0x20\n      add\n      mload(0x40)\n      swap1\n      dup2\n      add\n      0x40\n      mstore\n      dup1\n      swap3\n      swap2\n      swap1\n      dup2\n      dup2\n      mstore\n      0x20\n      add\n      dup3\n      dup1\n      sload\n      tag_108\n      swap1\n      tag_107\n      jump\t// in\n    tag_108:\n      dup1\n      iszero\n      tag_109\n      jumpi\n      dup1\n      0x1f\n      lt\n      tag_110\n      jumpi\n      0x0100\n      dup1\n      dup4\n      sload\n      div\n      mul\n      dup4\n      mstore\n      swap2\n      0x20\n      add\n      swap2\n      jump(tag_109)\n    tag_110:\n      dup3\n      add\n      swap2\n      swap1\n      0x00\n      mstore\n      keccak256(0x00, 0x20)\n      swap1\n    tag_111:\n      dup2\n      sload\n      dup2\n      mstore\n      swap1\n      0x01\n      add\n      swap1\n      0x20\n      add\n      dup1\n      dup4\n      gt\n      tag_111\n      jumpi\n      dup3\n      swap1\n      sub\n      0x1f\n      and\n      dup3\n      add\n      swap2\n    tag_109:\n      pop\n      pop\n      pop\n      pop\n      pop\n      dup2\n      jump\t// out\n        /* \"Campaign.sol\":1380:1405  uint256 public totalVotes */\n    tag_32:\n      sload(0x06)\n      dup2\n      jump\t// out\n        /* \"Campaign.sol\":1257:1286  Candidate[] public candidates */\n    tag_38:\n      0x04\n      dup2\n      dup2\n      sload\n      dup2\n      lt\n      tag_112\n      jumpi\n      0x00\n      dup1\n      revert\n    tag_112:\n      swap1\n      0x00\n      mstore\n      keccak256(0x00, 0x20)\n      swap1\n      0x04\n      mul\n      add\n      0x00\n      swap2\n      pop\n      swap1\n      pop\n      dup1\n      0x00\n      add\n      sload\n      swap1\n      dup1\n      0x01\n      add\n      dup1\n      sload\n      tag_114\n      swap1\n      tag_107\n      jump\t// in\n    tag_114:\n      dup1\n      0x1f\n      add\n      0x20\n      dup1\n      swap2\n      div\n      mul\n      0x20\n      add\n      mload(0x40)\n      swap1\n      dup2\n      add\n      0x40\n      mstore\n      dup1\n      swap3\n      swap2\n      swap1\n      dup2\n      dup2\n      mstore\n      0x20\n      add\n      dup3\n      dup1\n      sload\n      tag_115\n      swap1\n      tag_107\n      jump\t// in\n    tag_115:\n      dup1\n      iszero\n      tag_116\n      jumpi\n      dup1\n      0x1f\n      lt\n      tag_117\n      jumpi\n      0x0100\n      dup1\n      dup4\n      sload\n      div\n      mul\n      dup4\n      mstore\n      swap2\n      0x20\n      add\n      swap2\n      jump(tag_116)\n    tag_117:\n      dup3\n      add\n      swap2\n      swap1\n      0x00\n      mstore\n      keccak256(0x00, 0x20)\n      swap1\n    tag_118:\n      dup2\n      sload\n      dup2\n      mstore\n      swap1\n      0x01\n      add\n      swap1\n      0x20\n      add\n      dup1\n      dup4\n      gt\n      tag_118\n      jumpi\n      dup3\n      swap1\n      sub\n      0x1f\n      and\n      dup3\n      add\n      swap2\n    tag_116:\n      pop\n      pop\n      pop\n      pop\n      pop\n      swap1\n      dup1\n      0x02\n      add\n      dup1\n      sload\n      tag_119\n      swap1\n      tag_107\n      jump\t// in\n    tag_119:\n      dup1\n      0x1f\n      add\n      0x20\n      dup1\n      swap2\n      div\n      mul\n      0x20\n      add\n      mload(0x40)\n      swap1\n      dup2\n      add\n      0x40\n      mstore\n      dup1\n      swap3\n      swap2\n      swap1\n      dup2\n      dup2\n      mstore\n      0x20\n      add\n      dup3\n      dup1\n      sload\n      tag_120\n      swap1\n      tag_107\n      jump\t// in\n    tag_120:\n      dup1\n      iszero\n      tag_121\n      jumpi\n      dup1\n      0x1f\n      lt\n      tag_122\n      jumpi\n      0x0100\n      dup1\n      dup4\n      sload\n      div\n      mul\n      dup4\n      mstore\n      swap2\n      0x20\n      add\n      swap2\n      jump(tag_121)\n    tag_122:\n      dup3\n      add\n      swap2\n      swap1\n      0x00\n      mstore\n      keccak256(0x00, 0x20)\n      swap1\n    tag_123:\n      dup2\n      sload\n      dup2\n      mstore\n      swap1\n      0x01\n      add\n      swap1\n      0x20\n      add\n      dup1\n      dup4\n      gt\n      tag_123\n      jumpi\n      dup3\n      swap1\n      sub\n      0x1f\n      and\n      dup3\n      add\n      swap2\n    tag_121:\n      pop\n      pop\n      pop\n      pop\n      pop\n      swap1\n      dup1\n      0x03\n      add\n      sload\n      swap1\n      pop\n      dup5\n      jump\t// out\n        /* \"Campaign.sol\":3938:4152  function getSummary()... */\n    tag_42:\n        /* \"Campaign.sol\":4018:4025  uint256 */\n      0x00\n        /* \"Campaign.sol\":4039:4046  uint256 */\n      dup1\n        /* \"Campaign.sol\":4060:4067  uint256 */\n      0x00\n        /* \"Campaign.sol\":4100:4106  voters */\n      0x02\n        /* \"Campaign.sol\":4100:4113  voters.length */\n      dup1\n      sload\n      swap1\n      pop\n        /* \"Campaign.sol\":4115:4125  candidates */\n      0x04\n        /* \"Campaign.sol\":4115:4132  candidates.length */\n      dup1\n      sload\n      swap1\n      pop\n        /* \"Campaign.sol\":4134:4144  totalVotes */\n      sload(0x06)\n        /* \"Campaign.sol\":4092:4145  return (voters.length, candidates.length, totalVotes) */\n      swap3\n      pop\n      swap3\n      pop\n      swap3\n      pop\n        /* \"Campaign.sol\":3938:4152  function getSummary()... */\n      swap1\n      swap2\n      swap3\n      jump\t// out\n        /* \"Campaign.sol\":1040:1062  address public manager */\n    tag_46:\n      0x00\n      dup1\n      sload\n      swap1\n      0x0100\n      exp\n      swap1\n      div\n      0xffffffffffffffffffffffffffffffffffffffff\n      and\n      dup2\n      jump\t// out\n        /* \"Campaign.sol\":1433:1453  bool public complete */\n    tag_50:\n      0x07\n      0x00\n      swap1\n      sload\n      swap1\n      0x0100\n      exp\n      swap1\n      div\n      0xff\n      and\n      dup2\n      jump\t// out\n        /* \"Campaign.sol\":1315:1336  uint256[] public cids */\n    tag_55:\n      0x05\n      dup2\n      dup2\n      sload\n      dup2\n      lt\n      tag_125\n      jumpi\n      0x00\n      dup1\n      revert\n    tag_125:\n      swap1\n      0x00\n      mstore\n      keccak256(0x00, 0x20)\n      add\n      0x00\n      swap2\n      pop\n      swap1\n      pop\n      sload\n      dup2\n      jump\t// out\n        /* \"Campaign.sol\":2732:3193  function pollVote(uint256 vid, uint256 cid) public {... */\n    tag_60:\n        /* \"Campaign.sol\":2793:2812  Voter storage voter */\n      0x00\n        /* \"Campaign.sol\":2815:2821  voters */\n      0x02\n        /* \"Campaign.sol\":2822:2832  voterIndex */\n      0x09\n        /* \"Campaign.sol\":2822:2837  voterIndex[vid] */\n      0x00\n        /* \"Campaign.sol\":2833:2836  vid */\n      dup6\n        /* \"Campaign.sol\":2822:2837  voterIndex[vid] */\n      dup2\n      mstore\n      0x20\n      add\n      swap1\n      dup2\n      mstore\n      0x20\n      add\n      0x00\n      keccak256\n      sload\n        /* \"Campaign.sol\":2815:2838  voters[voterIndex[vid]] */\n      dup2\n      sload\n      dup2\n      lt\n      tag_128\n      jumpi\n      tag_129\n      tag_130\n      jump\t// in\n    tag_129:\n    tag_128:\n      swap1\n      0x00\n      mstore\n      keccak256(0x00, 0x20)\n      swap1\n      0x05\n      mul\n      add\n        /* \"Campaign.sol\":2793:2838  Voter storage voter = voters[voterIndex[vid]] */\n      swap1\n      pop\n        /* \"Campaign.sol\":2895:2900  voter */\n      dup1\n        /* \"Campaign.sol\":2895:2906  voter.voted */\n      0x03\n      add\n      0x00\n      swap1\n      sload\n      swap1\n      0x0100\n      exp\n      swap1\n      div\n      0xff\n      and\n        /* \"Campaign.sol\":2894:2906  !voter.voted */\n      iszero\n        /* \"Campaign.sol\":2886:2907  require(!voter.voted) */\n      tag_132\n      jumpi\n      0x00\n      dup1\n      revert\n    tag_132:\n        /* \"Campaign.sol\":2957:2961  true */\n      0x01\n        /* \"Campaign.sol\":2943:2948  voter */\n      dup2\n        /* \"Campaign.sol\":2943:2954  voter.voted */\n      0x03\n      add\n      0x00\n        /* \"Campaign.sol\":2943:2961  voter.voted = true */\n      0x0100\n      exp\n      dup2\n      sload\n      dup2\n      0xff\n      mul\n      not\n      and\n      swap1\n      dup4\n      iszero\n      iszero\n      mul\n      or\n      swap1\n      sstore\n      pop\n        /* \"Campaign.sol\":2983:2986  cid */\n      dup2\n        /* \"Campaign.sol\":2971:2976  voter */\n      dup2\n        /* \"Campaign.sol\":2971:2980  voter.cid */\n      0x04\n      add\n        /* \"Campaign.sol\":2971:2986  voter.cid = cid */\n      dup2\n      swap1\n      sstore\n      pop\n        /* \"Campaign.sol\":3038:3065  Candidate storage candidate */\n      0x00\n        /* \"Campaign.sol\":3068:3078  candidates */\n      0x04\n        /* \"Campaign.sol\":3079:3093  candidateIndex */\n      0x0a\n        /* \"Campaign.sol\":3079:3098  candidateIndex[cid] */\n      0x00\n        /* \"Campaign.sol\":3094:3097  cid */\n      dup6\n        /* \"Campaign.sol\":3079:3098  candidateIndex[cid] */\n      dup2\n      mstore\n      0x20\n      add\n      swap1\n      dup2\n      mstore\n      0x20\n      add\n      0x00\n      keccak256\n      sload\n        /* \"Campaign.sol\":3068:3099  candidates[candidateIndex[cid]] */\n      dup2\n      sload\n      dup2\n      lt\n      tag_133\n      jumpi\n      tag_134\n      tag_130\n      jump\t// in\n    tag_134:\n    tag_133:\n      swap1\n      0x00\n      mstore\n      keccak256(0x00, 0x20)\n      swap1\n      0x04\n      mul\n      add\n        /* \"Campaign.sol\":3038:3099  Candidate storage candidate = candidates[candidateIndex[cid]] */\n      swap1\n      pop\n        /* \"Campaign.sol\":3109:3118  candidate */\n      dup1\n        /* \"Campaign.sol\":3109:3124  candidate.votes */\n      0x03\n      add\n      0x00\n        /* \"Campaign.sol\":3109:3126  candidate.votes++ */\n      dup2\n      sload\n      dup1\n      swap3\n      swap2\n      swap1\n      tag_136\n      swap1\n      tag_137\n      jump\t// in\n    tag_136:\n      swap2\n      swap1\n      pop\n      sstore\n      pop\n        /* \"Campaign.sol\":3174:3184  totalVotes */\n      0x06\n      0x00\n        /* \"Campaign.sol\":3174:3186  totalVotes++ */\n      dup2\n      sload\n      dup1\n      swap3\n      swap2\n      swap1\n      tag_138\n      swap1\n      tag_137\n      jump\t// in\n    tag_138:\n      swap2\n      swap1\n      pop\n      sstore\n      pop\n        /* \"Campaign.sol\":2783:3193  {... */\n      pop\n      pop\n        /* \"Campaign.sol\":2732:3193  function pollVote(uint256 vid, uint256 cid) public {... */\n      pop\n      pop\n      jump\t// out\n        /* \"Campaign.sol\":3234:3643  function declareResult() public restricted {... */\n    tag_62:\n        /* \"Campaign.sol\":4869:4876  manager */\n      0x00\n      dup1\n      sload\n      swap1\n      0x0100\n      exp\n      swap1\n      div\n      0xffffffffffffffffffffffffffffffffffffffff\n      and\n        /* \"Campaign.sol\":4855:4876  msg.sender == manager */\n      0xffffffffffffffffffffffffffffffffffffffff\n      and\n        /* \"Campaign.sol\":4855:4865  msg.sender */\n      caller\n        /* \"Campaign.sol\":4855:4876  msg.sender == manager */\n      0xffffffffffffffffffffffffffffffffffffffff\n      and\n      eq\n        /* \"Campaign.sol\":4847:4877  require(msg.sender == manager) */\n      tag_140\n      jumpi\n      0x00\n      dup1\n      revert\n    tag_140:\n        /* \"Campaign.sol\":3309:3316  manager */\n      0x00\n      dup1\n      sload\n      swap1\n      0x0100\n      exp\n      swap1\n      div\n      0xffffffffffffffffffffffffffffffffffffffff\n      and\n        /* \"Campaign.sol\":3295:3316  msg.sender == manager */\n      0xffffffffffffffffffffffffffffffffffffffff\n      and\n        /* \"Campaign.sol\":3295:3305  msg.sender */\n      caller\n        /* \"Campaign.sol\":3295:3316  msg.sender == manager */\n      0xffffffffffffffffffffffffffffffffffffffff\n      and\n      eq\n        /* \"Campaign.sol\":3287:3317  require(msg.sender == manager) */\n      tag_142\n      jumpi\n      0x00\n      dup1\n      revert\n    tag_142:\n        /* \"Campaign.sol\":3336:3344  complete */\n      0x07\n      0x00\n      swap1\n      sload\n      swap1\n      0x0100\n      exp\n      swap1\n      div\n      0xff\n      and\n        /* \"Campaign.sol\":3335:3344  !complete */\n      iszero\n        /* \"Campaign.sol\":3327:3345  require(!complete) */\n      tag_143\n      jumpi\n      0x00\n      dup1\n      revert\n    tag_143:\n        /* \"Campaign.sol\":3392:3396  true */\n      0x01\n        /* \"Campaign.sol\":3381:3389  complete */\n      0x07\n      0x00\n        /* \"Campaign.sol\":3381:3396  complete = true */\n      0x0100\n      exp\n      dup2\n      sload\n      dup2\n      0xff\n      mul\n      not\n      and\n      swap1\n      dup4\n      iszero\n      iszero\n      mul\n      or\n      swap1\n      sstore\n      pop\n        /* \"Campaign.sol\":3407:3418  uint256 max */\n      0x00\n        /* \"Campaign.sol\":3437:3446  uint256 i */\n      dup1\n        /* \"Campaign.sol\":3432:3637  for (uint256 i = 0; i < candidates.length; i++) {... */\n    tag_144:\n        /* \"Campaign.sol\":3456:3466  candidates */\n      0x04\n        /* \"Campaign.sol\":3456:3473  candidates.length */\n      dup1\n      sload\n      swap1\n      pop\n        /* \"Campaign.sol\":3452:3453  i */\n      dup2\n        /* \"Campaign.sol\":3452:3473  i < candidates.length */\n      lt\n        /* \"Campaign.sol\":3432:3637  for (uint256 i = 0; i < candidates.length; i++) {... */\n      iszero\n      tag_145\n      jumpi\n        /* \"Campaign.sol\":3520:3523  max */\n      dup2\n        /* \"Campaign.sol\":3498:3508  candidates */\n      0x04\n        /* \"Campaign.sol\":3509:3510  i */\n      dup3\n        /* \"Campaign.sol\":3498:3511  candidates[i] */\n      dup2\n      sload\n      dup2\n      lt\n      tag_147\n      jumpi\n      tag_148\n      tag_130\n      jump\t// in\n    tag_148:\n    tag_147:\n      swap1\n      0x00\n      mstore\n      keccak256(0x00, 0x20)\n      swap1\n      0x04\n      mul\n      add\n        /* \"Campaign.sol\":3498:3517  candidates[i].votes */\n      0x03\n      add\n      sload\n        /* \"Campaign.sol\":3498:3523  candidates[i].votes > max */\n      gt\n        /* \"Campaign.sol\":3494:3627  if (candidates[i].votes > max) {... */\n      iszero\n      tag_150\n      jumpi\n        /* \"Campaign.sol\":3549:3559  candidates */\n      0x04\n        /* \"Campaign.sol\":3560:3561  i */\n      dup2\n        /* \"Campaign.sol\":3549:3562  candidates[i] */\n      dup2\n      sload\n      dup2\n      lt\n      tag_151\n      jumpi\n      tag_152\n      tag_130\n      jump\t// in\n    tag_152:\n    tag_151:\n      swap1\n      0x00\n      mstore\n      keccak256(0x00, 0x20)\n      swap1\n      0x04\n      mul\n      add\n        /* \"Campaign.sol\":3549:3568  candidates[i].votes */\n      0x03\n      add\n      sload\n        /* \"Campaign.sol\":3543:3568  max = candidates[i].votes */\n      swap2\n      pop\n        /* \"Campaign.sol\":3595:3605  candidates */\n      0x04\n        /* \"Campaign.sol\":3606:3607  i */\n      dup2\n        /* \"Campaign.sol\":3595:3608  candidates[i] */\n      dup2\n      sload\n      dup2\n      lt\n      tag_154\n      jumpi\n      tag_155\n      tag_130\n      jump\t// in\n    tag_155:\n    tag_154:\n      swap1\n      0x00\n      mstore\n      keccak256(0x00, 0x20)\n      swap1\n      0x04\n      mul\n      add\n        /* \"Campaign.sol\":3595:3612  candidates[i].uid */\n      0x00\n      add\n      sload\n        /* \"Campaign.sol\":3586:3592  winner */\n      0x08\n        /* \"Campaign.sol\":3586:3612  winner = candidates[i].uid */\n      dup2\n      swap1\n      sstore\n      pop\n        /* \"Campaign.sol\":3494:3627  if (candidates[i].votes > max) {... */\n    tag_150:\n        /* \"Campaign.sol\":3475:3478  i++ */\n      dup1\n      dup1\n      tag_157\n      swap1\n      tag_137\n      jump\t// in\n    tag_157:\n      swap2\n      pop\n      pop\n        /* \"Campaign.sol\":3432:3637  for (uint256 i = 0; i < candidates.length; i++) {... */\n      jump(tag_144)\n    tag_145:\n      pop\n        /* \"Campaign.sol\":3277:3643  {... */\n      pop\n        /* \"Campaign.sol\":3234:3643  function declareResult() public restricted {... */\n      jump\t// out\n        /* \"Campaign.sol\":4342:4443  function getCandidatesCount() public view returns (uint256) {... */\n    tag_64:\n        /* \"Campaign.sol\":4393:4400  uint256 */\n      0x00\n        /* \"Campaign.sol\":4419:4429  candidates */\n      0x04\n        /* \"Campaign.sol\":4419:4436  candidates.length */\n      dup1\n      sload\n      swap1\n      pop\n        /* \"Campaign.sol\":4412:4436  return candidates.length */\n      swap1\n      pop\n        /* \"Campaign.sol\":4342:4443  function getCandidatesCount() public view returns (uint256) {... */\n      swap1\n      jump\t// out\n        /* \"Campaign.sol\":2282:2700  function registerCandidate(... */\n    tag_69:\n        /* \"Campaign.sol\":2421:2450  Candidate memory newCandidate */\n      0x00\n        /* \"Campaign.sol\":2453:2582  Candidate({... */\n      mload(0x40)\n      dup1\n      0x80\n      add\n      0x40\n      mstore\n      dup1\n        /* \"Campaign.sol\":2482:2485  uid */\n      dup8\n        /* \"Campaign.sol\":2453:2582  Candidate({... */\n      dup2\n      mstore\n      0x20\n      add\n        /* \"Campaign.sol\":2509:2517  fullName */\n      dup7\n      dup7\n        /* \"Campaign.sol\":2453:2582  Candidate({... */\n      dup1\n      dup1\n      0x1f\n      add\n      0x20\n      dup1\n      swap2\n      div\n      mul\n      0x20\n      add\n      mload(0x40)\n      swap1\n      dup2\n      add\n      0x40\n      mstore\n      dup1\n      swap4\n      swap3\n      swap2\n      swap1\n      dup2\n      dup2\n      mstore\n      0x20\n      add\n      dup4\n      dup4\n      dup1\n      dup3\n      dup5\n      calldatacopy\n      0x00\n      dup2\n      dup5\n      add\n      mstore\n      not(0x1f)\n      0x1f\n      dup3\n      add\n      and\n      swap1\n      pop\n      dup1\n      dup4\n      add\n      swap3\n      pop\n      pop\n      pop\n      pop\n      pop\n      pop\n      pop\n      dup2\n      mstore\n      0x20\n      add\n        /* \"Campaign.sol\":2541:2549  location */\n      dup5\n      dup5\n        /* \"Campaign.sol\":2453:2582  Candidate({... */\n      dup1\n      dup1\n      0x1f\n      add\n      0x20\n      dup1\n      swap2\n      div\n      mul\n      0x20\n      add\n      mload(0x40)\n      swap1\n      dup2\n      add\n      0x40\n      mstore\n      dup1\n      swap4\n      swap3\n      swap2\n      swap1\n      dup2\n      dup2\n      mstore\n      0x20\n      add\n      dup4\n      dup4\n      dup1\n      dup3\n      dup5\n      calldatacopy\n      0x00\n      dup2\n      dup5\n      add\n      mstore\n      not(0x1f)\n      0x1f\n      dup3\n      add\n      and\n      swap1\n      pop\n      dup1\n      dup4\n      add\n      swap3\n      pop\n      pop\n      pop\n      pop\n      pop\n      pop\n      pop\n      dup2\n      mstore\n      0x20\n      add\n        /* \"Campaign.sol\":2570:2571  0 */\n      0x00\n        /* \"Campaign.sol\":2453:2582  Candidate({... */\n      dup2\n      mstore\n      pop\n        /* \"Campaign.sol\":2421:2582  Candidate memory newCandidate = Candidate({... */\n      swap1\n      pop\n        /* \"Campaign.sol\":2593:2603  candidates */\n      0x04\n        /* \"Campaign.sol\":2609:2621  newCandidate */\n      dup2\n        /* \"Campaign.sol\":2593:2622  candidates.push(newCandidate) */\n      swap1\n      dup1\n      0x01\n      dup2\n      sload\n      add\n      dup1\n      dup3\n      sstore\n      dup1\n      swap2\n      pop\n      pop\n      0x01\n      swap1\n      sub\n      swap1\n      0x00\n      mstore\n      keccak256(0x00, 0x20)\n      swap1\n      0x04\n      mul\n      add\n      0x00\n      swap1\n      swap2\n      swap1\n      swap2\n      swap1\n      swap2\n      pop\n      0x00\n      dup3\n      add\n      mload\n      dup2\n      0x00\n      add\n      sstore\n      0x20\n      dup3\n      add\n      mload\n      dup2\n      0x01\n      add\n      swap1\n      dup1\n      mload\n      swap1\n      0x20\n      add\n      swap1\n      tag_161\n      swap3\n      swap2\n      swap1\n      tag_162\n      jump\t// in\n    tag_161:\n      pop\n      0x40\n      dup3\n      add\n      mload\n      dup2\n      0x02\n      add\n      swap1\n      dup1\n      mload\n      swap1\n      0x20\n      add\n      swap1\n      tag_163\n      swap3\n      swap2\n      swap1\n      tag_162\n      jump\t// in\n    tag_163:\n      pop\n      0x60\n      dup3\n      add\n      mload\n      dup2\n      0x03\n      add\n      sstore\n      pop\n      pop\n        /* \"Campaign.sol\":2632:2636  cids */\n      0x05\n        /* \"Campaign.sol\":2642:2645  uid */\n      dup7\n        /* \"Campaign.sol\":2632:2646  cids.push(uid) */\n      swap1\n      dup1\n      0x01\n      dup2\n      sload\n      add\n      dup1\n      dup3\n      sstore\n      dup1\n      swap2\n      pop\n      pop\n      0x01\n      swap1\n      sub\n      swap1\n      0x00\n      mstore\n      keccak256(0x00, 0x20)\n      add\n      0x00\n      swap1\n      swap2\n      swap1\n      swap2\n      swap1\n      swap2\n      pop\n      sstore\n        /* \"Campaign.sol\":2692:2693  1 */\n      0x01\n        /* \"Campaign.sol\":2678:2682  cids */\n      0x05\n        /* \"Campaign.sol\":2678:2689  cids.length */\n      dup1\n      sload\n      swap1\n      pop\n        /* \"Campaign.sol\":2678:2693  cids.length - 1 */\n      tag_165\n      swap2\n      swap1\n      tag_166\n      jump\t// in\n    tag_165:\n        /* \"Campaign.sol\":2656:2670  candidateIndex */\n      0x0a\n        /* \"Campaign.sol\":2656:2675  candidateIndex[uid] */\n      0x00\n        /* \"Campaign.sol\":2671:2674  uid */\n      dup9\n        /* \"Campaign.sol\":2656:2675  candidateIndex[uid] */\n      dup2\n      mstore\n      0x20\n      add\n      swap1\n      dup2\n      mstore\n      0x20\n      add\n      0x00\n      keccak256\n        /* \"Campaign.sol\":2656:2693  candidateIndex[uid] = cids.length - 1 */\n      dup2\n      swap1\n      sstore\n      pop\n        /* \"Campaign.sol\":2411:2700  {... */\n      pop\n        /* \"Campaign.sol\":2282:2700  function registerCandidate(... */\n      pop\n      pop\n      pop\n      pop\n      pop\n      jump\t// out\n        /* \"Campaign.sol\":4643:4737  function getCandidateIds() public view returns (uint256[] memory) {... */\n    tag_71:\n        /* \"Campaign.sol\":4691:4707  uint256[] memory */\n      0x60\n        /* \"Campaign.sol\":4726:4730  cids */\n      0x05\n        /* \"Campaign.sol\":4719:4730  return cids */\n      dup1\n      sload\n      dup1\n      0x20\n      mul\n      0x20\n      add\n      mload(0x40)\n      swap1\n      dup2\n      add\n      0x40\n      mstore\n      dup1\n      swap3\n      swap2\n      swap1\n      dup2\n      dup2\n      mstore\n      0x20\n      add\n      dup3\n      dup1\n      sload\n      dup1\n      iszero\n      tag_168\n      jumpi\n      0x20\n      mul\n      dup3\n      add\n      swap2\n      swap1\n      0x00\n      mstore\n      keccak256(0x00, 0x20)\n      swap1\n    tag_169:\n      dup2\n      sload\n      dup2\n      mstore\n      0x20\n      add\n      swap1\n      0x01\n      add\n      swap1\n      dup1\n      dup4\n      gt\n      tag_169\n      jumpi\n    tag_168:\n      pop\n      pop\n      pop\n      pop\n      pop\n      swap1\n      pop\n        /* \"Campaign.sol\":4643:4737  function getCandidateIds() public view returns (uint256[] memory) {... */\n      swap1\n      jump\t// out\n        /* \"Campaign.sol\":4199:4292  function getVotersCount() public view returns (uint256) {... */\n    tag_75:\n        /* \"Campaign.sol\":4246:4253  uint256 */\n      0x00\n        /* \"Campaign.sol\":4272:4278  voters */\n      0x02\n        /* \"Campaign.sol\":4272:4285  voters.length */\n      dup1\n      sload\n      swap1\n      pop\n        /* \"Campaign.sol\":4265:4285  return voters.length */\n      swap1\n      pop\n        /* \"Campaign.sol\":4199:4292  function getVotersCount() public view returns (uint256) {... */\n      swap1\n      jump\t// out\n        /* \"Campaign.sol\":1821:2235  function registerVoter(... */\n    tag_79:\n        /* \"Campaign.sol\":1956:1977  Voter memory newVoter */\n      0x00\n        /* \"Campaign.sol\":1980:2129  Voter({... */\n      mload(0x40)\n      dup1\n      0xa0\n      add\n      0x40\n      mstore\n      dup1\n        /* \"Campaign.sol\":2005:2008  uid */\n      dup8\n        /* \"Campaign.sol\":1980:2129  Voter({... */\n      dup2\n      mstore\n      0x20\n      add\n        /* \"Campaign.sol\":2032:2040  fullName */\n      dup7\n      dup7\n        /* \"Campaign.sol\":1980:2129  Voter({... */\n      dup1\n      dup1\n      0x1f\n      add\n      0x20\n      dup1\n      swap2\n      div\n      mul\n      0x20\n      add\n      mload(0x40)\n      swap1\n      dup2\n      add\n      0x40\n      mstore\n      dup1\n      swap4\n      swap3\n      swap2\n      swap1\n      dup2\n      dup2\n      mstore\n      0x20\n      add\n      dup4\n      dup4\n      dup1\n      dup3\n      dup5\n      calldatacopy\n      0x00\n      dup2\n      dup5\n      add\n      mstore\n      not(0x1f)\n      0x1f\n      dup3\n      add\n      and\n      swap1\n      pop\n      dup1\n      dup4\n      add\n      swap3\n      pop\n      pop\n      pop\n      pop\n      pop\n      pop\n      pop\n      dup2\n      mstore\n      0x20\n      add\n        /* \"Campaign.sol\":2064:2072  location */\n      dup5\n      dup5\n        /* \"Campaign.sol\":1980:2129  Voter({... */\n      dup1\n      dup1\n      0x1f\n      add\n      0x20\n      dup1\n      swap2\n      div\n      mul\n      0x20\n      add\n      mload(0x40)\n      swap1\n      dup2\n      add\n      0x40\n      mstore\n      dup1\n      swap4\n      swap3\n      swap2\n      swap1\n      dup2\n      dup2\n      mstore\n      0x20\n      add\n      dup4\n      dup4\n      dup1\n      dup3\n      dup5\n      calldatacopy\n      0x00\n      dup2\n      dup5\n      add\n      mstore\n      not(0x1f)\n      0x1f\n      dup3\n      add\n      and\n      swap1\n      pop\n      dup1\n      dup4\n      add\n      swap3\n      pop\n      pop\n      pop\n      pop\n      pop\n      pop\n      pop\n      dup2\n      mstore\n      0x20\n      add\n        /* \"Campaign.sol\":2093:2098  false */\n      0x00\n        /* \"Campaign.sol\":1980:2129  Voter({... */\n      iszero\n      iszero\n      dup2\n      mstore\n      0x20\n      add\n        /* \"Campaign.sol\":2117:2118  0 */\n      0x00\n        /* \"Campaign.sol\":1980:2129  Voter({... */\n      dup2\n      mstore\n      pop\n        /* \"Campaign.sol\":1956:2129  Voter memory newVoter = Voter({... */\n      swap1\n      pop\n        /* \"Campaign.sol\":2140:2146  voters */\n      0x02\n        /* \"Campaign.sol\":2152:2160  newVoter */\n      dup2\n        /* \"Campaign.sol\":2140:2161  voters.push(newVoter) */\n      swap1\n      dup1\n      0x01\n      dup2\n      sload\n      add\n      dup1\n      dup3\n      sstore\n      dup1\n      swap2\n      pop\n      pop\n      0x01\n      swap1\n      sub\n      swap1\n      0x00\n      mstore\n      keccak256(0x00, 0x20)\n      swap1\n      0x05\n      mul\n      add\n      0x00\n      swap1\n      swap2\n      swap1\n      swap2\n      swap1\n      swap2\n      pop\n      0x00\n      dup3\n      add\n      mload\n      dup2\n      0x00\n      add\n      sstore\n      0x20\n      dup3\n      add\n      mload\n      dup2\n      0x01\n      add\n      swap1\n      dup1\n      mload\n      swap1\n      0x20\n      add\n      swap1\n      tag_173\n      swap3\n      swap2\n      swap1\n      tag_162\n      jump\t// in\n    tag_173:\n      pop\n      0x40\n      dup3\n      add\n      mload\n      dup2\n      0x02\n      add\n      swap1\n      dup1\n      mload\n      swap1\n      0x20\n      add\n      swap1\n      tag_174\n      swap3\n      swap2\n      swap1\n      tag_162\n      jump\t// in\n    tag_174:\n      pop\n      0x60\n      dup3\n      add\n      mload\n      dup2\n      0x03\n      add\n      exp(0x0100, 0x00)\n      dup2\n      sload\n      dup2\n      0xff\n      mul\n      not\n      and\n      swap1\n      dup4\n      iszero\n      iszero\n      mul\n      or\n      swap1\n      sstore\n      pop\n      0x80\n      dup3\n      add\n      mload\n      dup2\n      0x04\n      add\n      sstore\n      pop\n      pop\n        /* \"Campaign.sol\":2171:2175  vids */\n      0x03\n        /* \"Campaign.sol\":2181:2184  uid */\n      dup7\n        /* \"Campaign.sol\":2171:2185  vids.push(uid) */\n      swap1\n      dup1\n      0x01\n      dup2\n      sload\n      add\n      dup1\n      dup3\n      sstore\n      dup1\n      swap2\n      pop\n      pop\n      0x01\n      swap1\n      sub\n      swap1\n      0x00\n      mstore\n      keccak256(0x00, 0x20)\n      add\n      0x00\n      swap1\n      swap2\n      swap1\n      swap2\n      swap1\n      swap2\n      pop\n      sstore\n        /* \"Campaign.sol\":2227:2228  1 */\n      0x01\n        /* \"Campaign.sol\":2213:2217  vids */\n      0x03\n        /* \"Campaign.sol\":2213:2224  vids.length */\n      dup1\n      sload\n      swap1\n      pop\n        /* \"Campaign.sol\":2213:2228  vids.length - 1 */\n      tag_176\n      swap2\n      swap1\n      tag_166\n      jump\t// in\n    tag_176:\n        /* \"Campaign.sol\":2195:2205  voterIndex */\n      0x09\n        /* \"Campaign.sol\":2195:2210  voterIndex[uid] */\n      0x00\n        /* \"Campaign.sol\":2206:2209  uid */\n      dup9\n        /* \"Campaign.sol\":2195:2210  voterIndex[uid] */\n      dup2\n      mstore\n      0x20\n      add\n      swap1\n      dup2\n      mstore\n      0x20\n      add\n      0x00\n      keccak256\n        /* \"Campaign.sol\":2195:2228  voterIndex[uid] = vids.length - 1 */\n      dup2\n      swap1\n      sstore\n      pop\n        /* \"Campaign.sol\":1946:2235  {... */\n      pop\n        /* \"Campaign.sol\":1821:2235  function registerVoter(... */\n      pop\n      pop\n      pop\n      pop\n      pop\n      jump\t// out\n        /* \"Campaign.sol\":1196:1217  uint256[] public vids */\n    tag_82:\n      0x03\n      dup2\n      dup2\n      sload\n      dup2\n      lt\n      tag_177\n      jumpi\n      0x00\n      dup1\n      revert\n    tag_177:\n      swap1\n      0x00\n      mstore\n      keccak256(0x00, 0x20)\n      add\n      0x00\n      swap2\n      pop\n      swap1\n      pop\n      sload\n      dup2\n      jump\t// out\n        /* \"Campaign.sol\":4496:4586  function getVoterIds() public view returns (uint256[] memory) {... */\n    tag_85:\n        /* \"Campaign.sol\":4540:4556  uint256[] memory */\n      0x60\n        /* \"Campaign.sol\":4575:4579  vids */\n      0x03\n        /* \"Campaign.sol\":4568:4579  return vids */\n      dup1\n      sload\n      dup1\n      0x20\n      mul\n      0x20\n      add\n      mload(0x40)\n      swap1\n      dup2\n      add\n      0x40\n      mstore\n      dup1\n      swap3\n      swap2\n      swap1\n      dup2\n      dup2\n      mstore\n      0x20\n      add\n      dup3\n      dup1\n      sload\n      dup1\n      iszero\n      tag_180\n      jumpi\n      0x20\n      mul\n      dup3\n      add\n      swap2\n      swap1\n      0x00\n      mstore\n      keccak256(0x00, 0x20)\n      swap1\n    tag_181:\n      dup2\n      sload\n      dup2\n      mstore\n      0x20\n      add\n      swap1\n      0x01\n      add\n      swap1\n      dup1\n      dup4\n      gt\n      tag_181\n      jumpi\n    tag_180:\n      pop\n      pop\n      pop\n      pop\n      pop\n      swap1\n      pop\n        /* \"Campaign.sol\":4496:4586  function getVoterIds() public view returns (uint256[] memory) {... */\n      swap1\n      jump\t// out\n        /* \"Campaign.sol\":1150:1171  Voter[] public voters */\n    tag_89:\n      0x02\n      dup2\n      dup2\n      sload\n      dup2\n      lt\n      tag_182\n      jumpi\n      0x00\n      dup1\n      revert\n    tag_182:\n      swap1\n      0x00\n      mstore\n      keccak256(0x00, 0x20)\n      swap1\n      0x05\n      mul\n      add\n      0x00\n      swap2\n      pop\n      swap1\n      pop\n      dup1\n      0x00\n      add\n      sload\n      swap1\n      dup1\n      0x01\n      add\n      dup1\n      sload\n      tag_184\n      swap1\n      tag_107\n      jump\t// in\n    tag_184:\n      dup1\n      0x1f\n      add\n      0x20\n      dup1\n      swap2\n      div\n      mul\n      0x20\n      add\n      mload(0x40)\n      swap1\n      dup2\n      add\n      0x40\n      mstore\n      dup1\n      swap3\n      swap2\n      swap1\n      dup2\n      dup2\n      mstore\n      0x20\n      add\n      dup3\n      dup1\n      sload\n      tag_185\n      swap1\n      tag_107\n      jump\t// in\n    tag_185:\n      dup1\n      iszero\n      tag_186\n      jumpi\n      dup1\n      0x1f\n      lt\n      tag_187\n      jumpi\n      0x0100\n      dup1\n      dup4\n      sload\n      div\n      mul\n      dup4\n      mstore\n      swap2\n      0x20\n      add\n      swap2\n      jump(tag_186)\n    tag_187:\n      dup3\n      add\n      swap2\n      swap1\n      0x00\n      mstore\n      keccak256(0x00, 0x20)\n      swap1\n    tag_188:\n      dup2\n      sload\n      dup2\n      mstore\n      swap1\n      0x01\n      add\n      swap1\n      0x20\n      add\n      dup1\n      dup4\n      gt\n      tag_188\n      jumpi\n      dup3\n      swap1\n      sub\n      0x1f\n      and\n      dup3\n      add\n      swap2\n    tag_186:\n      pop\n      pop\n      pop\n      pop\n      pop\n      swap1\n      dup1\n      0x02\n      add\n      dup1\n      sload\n      tag_189\n      swap1\n      tag_107\n      jump\t// in\n    tag_189:\n      dup1\n      0x1f\n      add\n      0x20\n      dup1\n      swap2\n      div\n      mul\n      0x20\n      add\n      mload(0x40)\n      swap1\n      dup2\n      add\n      0x40\n      mstore\n      dup1\n      swap3\n      swap2\n      swap1\n      dup2\n      dup2\n      mstore\n      0x20\n      add\n      dup3\n      dup1\n      sload\n      tag_190\n      swap1\n      tag_107\n      jump\t// in\n    tag_190:\n      dup1\n      iszero\n      tag_191\n      jumpi\n      dup1\n      0x1f\n      lt\n      tag_192\n      jumpi\n      0x0100\n      dup1\n      dup4\n      sload\n      div\n      mul\n      dup4\n      mstore\n      swap2\n      0x20\n      add\n      swap2\n      jump(tag_191)\n    tag_192:\n      dup3\n      add\n      swap2\n      swap1\n      0x00\n      mstore\n      keccak256(0x00, 0x20)\n      swap1\n    tag_193:\n      dup2\n      sload\n      dup2\n      mstore\n      swap1\n      0x01\n      add\n      swap1\n      0x20\n      add\n      dup1\n      dup4\n      gt\n      tag_193\n      jumpi\n      dup3\n      swap1\n      sub\n      0x1f\n      and\n      dup3\n      add\n      swap2\n    tag_191:\n      pop\n      pop\n      pop\n      pop\n      pop\n      swap1\n      dup1\n      0x03\n      add\n      0x00\n      swap1\n      sload\n      swap1\n      0x0100\n      exp\n      swap1\n      div\n      0xff\n      and\n      swap1\n      dup1\n      0x04\n      add\n      sload\n      swap1\n      pop\n      dup6\n      jump\t// out\n        /* \"Campaign.sol\":1572:1621  mapping(uint256 => uint256) public candidateIndex */\n    tag_94:\n      mstore(0x20, 0x0a)\n      dup1\n      0x00\n      mstore\n      keccak256(0x00, 0x40)\n      0x00\n      swap2\n      pop\n      swap1\n      pop\n      sload\n      dup2\n      jump\t// out\n        /* \"Campaign.sol\":3675:3904  function getResult()... */\n    tag_97:\n        /* \"Campaign.sol\":3754:3761  uint256 */\n      0x00\n        /* \"Campaign.sol\":3775:3782  uint256 */\n      dup1\n        /* \"Campaign.sol\":3796:3803  uint256 */\n      0x00\n        /* \"Campaign.sol\":3836:3846  totalVotes */\n      sload(0x06)\n        /* \"Campaign.sol\":3848:3858  candidates */\n      0x04\n        /* \"Campaign.sol\":3859:3873  candidateIndex */\n      0x0a\n        /* \"Campaign.sol\":3859:3881  candidateIndex[winner] */\n      0x00\n        /* \"Campaign.sol\":3874:3880  winner */\n      sload(0x08)\n        /* \"Campaign.sol\":3859:3881  candidateIndex[winner] */\n      dup2\n      mstore\n      0x20\n      add\n      swap1\n      dup2\n      mstore\n      0x20\n      add\n      0x00\n      keccak256\n      sload\n        /* \"Campaign.sol\":3848:3882  candidates[candidateIndex[winner]] */\n      dup2\n      sload\n      dup2\n      lt\n      tag_195\n      jumpi\n      tag_196\n      tag_130\n      jump\t// in\n    tag_196:\n    tag_195:\n      swap1\n      0x00\n      mstore\n      keccak256(0x00, 0x20)\n      swap1\n      0x04\n      mul\n      add\n        /* \"Campaign.sol\":3848:3888  candidates[candidateIndex[winner]].votes */\n      0x03\n      add\n      sload\n        /* \"Campaign.sol\":3890:3896  winner */\n      sload(0x08)\n        /* \"Campaign.sol\":3828:3897  return (totalVotes, candidates[candidateIndex[winner]].votes, winner) */\n      swap3\n      pop\n      swap3\n      pop\n      swap3\n      pop\n        /* \"Campaign.sol\":3675:3904  function getResult()... */\n      swap1\n      swap2\n      swap3\n      jump\t// out\n        /* \"Campaign.sol\":1479:1500  uint256 public winner */\n    tag_100:\n      sload(0x08)\n      dup2\n      jump\t// out\n        /* \"Campaign.sol\":1521:1566  mapping(uint256 => uint256) public voterIndex */\n    tag_104:\n      mstore(0x20, 0x09)\n      dup1\n      0x00\n      mstore\n      keccak256(0x00, 0x40)\n      0x00\n      swap2\n      pop\n      swap1\n      pop\n      sload\n      dup2\n      jump\t// out\n    tag_162:\n      dup3\n      dup1\n      sload\n      tag_198\n      swap1\n      tag_107\n      jump\t// in\n    tag_198:\n      swap1\n      0x00\n      mstore\n      keccak256(0x00, 0x20)\n      swap1\n      0x1f\n      add\n      0x20\n      swap1\n      div\n      dup2\n      add\n      swap3\n      dup3\n      tag_200\n      jumpi\n      0x00\n      dup6\n      sstore\n      jump(tag_199)\n    tag_200:\n      dup3\n      0x1f\n      lt\n      tag_201\n      jumpi\n      dup1\n      mload\n      not(0xff)\n      and\n      dup4\n      dup1\n      add\n      or\n      dup6\n      sstore\n      jump(tag_199)\n    tag_201:\n      dup3\n      dup1\n      add\n      0x01\n      add\n      dup6\n      sstore\n      dup3\n      iszero\n      tag_199\n      jumpi\n      swap2\n      dup3\n      add\n    tag_202:\n      dup3\n      dup2\n      gt\n      iszero\n      tag_203\n      jumpi\n      dup3\n      mload\n      dup3\n      sstore\n      swap2\n      0x20\n      add\n      swap2\n      swap1\n      0x01\n      add\n      swap1\n      jump(tag_202)\n    tag_203:\n    tag_199:\n      pop\n      swap1\n      pop\n      tag_204\n      swap2\n      swap1\n      tag_205\n      jump\t// in\n    tag_204:\n      pop\n      swap1\n      jump\t// out\n    tag_205:\n    tag_206:\n      dup1\n      dup3\n      gt\n      iszero\n      tag_207\n      jumpi\n      0x00\n      dup2\n      0x00\n      swap1\n      sstore\n      pop\n      0x01\n      add\n      jump(tag_206)\n    tag_207:\n      pop\n      swap1\n      jump\t// out\n        /* \"#utility.yul\":7:106   */\n    tag_208:\n        /* \"#utility.yul\":59:65   */\n      0x00\n        /* \"#utility.yul\":93:98   */\n      dup2\n        /* \"#utility.yul\":87:99   */\n      mload\n        /* \"#utility.yul\":77:99   */\n      swap1\n      pop\n        /* \"#utility.yul\":7:106   */\n      swap2\n      swap1\n      pop\n      jump\t// out\n        /* \"#utility.yul\":112:281   */\n    tag_209:\n        /* \"#utility.yul\":196:207   */\n      0x00\n        /* \"#utility.yul\":230:236   */\n      dup3\n        /* \"#utility.yul\":225:228   */\n      dup3\n        /* \"#utility.yul\":218:237   */\n      mstore\n        /* \"#utility.yul\":270:274   */\n      0x20\n        /* \"#utility.yul\":265:268   */\n      dup3\n        /* \"#utility.yul\":261:275   */\n      add\n        /* \"#utility.yul\":246:275   */\n      swap1\n      pop\n        /* \"#utility.yul\":112:281   */\n      swap3\n      swap2\n      pop\n      pop\n      jump\t// out\n        /* \"#utility.yul\":287:594   */\n    tag_210:\n        /* \"#utility.yul\":355:356   */\n      0x00\n        /* \"#utility.yul\":365:478   */\n    tag_242:\n        /* \"#utility.yul\":379:385   */\n      dup4\n        /* \"#utility.yul\":376:377   */\n      dup2\n        /* \"#utility.yul\":373:386   */\n      lt\n        /* \"#utility.yul\":365:478   */\n      iszero\n      tag_244\n      jumpi\n        /* \"#utility.yul\":464:465   */\n      dup1\n        /* \"#utility.yul\":459:462   */\n      dup3\n        /* \"#utility.yul\":455:466   */\n      add\n        /* \"#utility.yul\":449:467   */\n      mload\n        /* \"#utility.yul\":445:446   */\n      dup2\n        /* \"#utility.yul\":440:443   */\n      dup5\n        /* \"#utility.yul\":436:447   */\n      add\n        /* \"#utility.yul\":429:468   */\n      mstore\n        /* \"#utility.yul\":401:403   */\n      0x20\n        /* \"#utility.yul\":398:399   */\n      dup2\n        /* \"#utility.yul\":394:404   */\n      add\n        /* \"#utility.yul\":389:404   */\n      swap1\n      pop\n        /* \"#utility.yul\":365:478   */\n      jump(tag_242)\n    tag_244:\n        /* \"#utility.yul\":496:502   */\n      dup4\n        /* \"#utility.yul\":493:494   */\n      dup2\n        /* \"#utility.yul\":490:503   */\n      gt\n        /* \"#utility.yul\":487:588   */\n      iszero\n      tag_245\n      jumpi\n        /* \"#utility.yul\":576:577   */\n      0x00\n        /* \"#utility.yul\":567:573   */\n      dup5\n        /* \"#utility.yul\":562:565   */\n      dup5\n        /* \"#utility.yul\":558:574   */\n      add\n        /* \"#utility.yul\":551:578   */\n      mstore\n        /* \"#utility.yul\":487:588   */\n    tag_245:\n        /* \"#utility.yul\":336:594   */\n      pop\n        /* \"#utility.yul\":287:594   */\n      pop\n      pop\n      pop\n      jump\t// out\n        /* \"#utility.yul\":600:702   */\n    tag_211:\n        /* \"#utility.yul\":641:647   */\n      0x00\n        /* \"#utility.yul\":692:694   */\n      0x1f\n        /* \"#utility.yul\":688:695   */\n      not\n        /* \"#utility.yul\":683:685   */\n      0x1f\n        /* \"#utility.yul\":676:681   */\n      dup4\n        /* \"#utility.yul\":672:686   */\n      add\n        /* \"#utility.yul\":668:696   */\n      and\n        /* \"#utility.yul\":658:696   */\n      swap1\n      pop\n        /* \"#utility.yul\":600:702   */\n      swap2\n      swap1\n      pop\n      jump\t// out\n        /* \"#utility.yul\":708:1072   */\n    tag_212:\n        /* \"#utility.yul\":796:799   */\n      0x00\n        /* \"#utility.yul\":824:863   */\n      tag_248\n        /* \"#utility.yul\":857:862   */\n      dup3\n        /* \"#utility.yul\":824:863   */\n      tag_208\n      jump\t// in\n    tag_248:\n        /* \"#utility.yul\":879:950   */\n      tag_249\n        /* \"#utility.yul\":943:949   */\n      dup2\n        /* \"#utility.yul\":938:941   */\n      dup6\n        /* \"#utility.yul\":879:950   */\n      tag_209\n      jump\t// in\n    tag_249:\n        /* \"#utility.yul\":872:950   */\n      swap4\n      pop\n        /* \"#utility.yul\":959:1011   */\n      tag_250\n        /* \"#utility.yul\":1004:1010   */\n      dup2\n        /* \"#utility.yul\":999:1002   */\n      dup6\n        /* \"#utility.yul\":992:996   */\n      0x20\n        /* \"#utility.yul\":985:990   */\n      dup7\n        /* \"#utility.yul\":981:997   */\n      add\n        /* \"#utility.yul\":959:1011   */\n      tag_210\n      jump\t// in\n    tag_250:\n        /* \"#utility.yul\":1036:1065   */\n      tag_251\n        /* \"#utility.yul\":1058:1064   */\n      dup2\n        /* \"#utility.yul\":1036:1065   */\n      tag_211\n      jump\t// in\n    tag_251:\n        /* \"#utility.yul\":1031:1034   */\n      dup5\n        /* \"#utility.yul\":1027:1066   */\n      add\n        /* \"#utility.yul\":1020:1066   */\n      swap2\n      pop\n        /* \"#utility.yul\":800:1072   */\n      pop\n        /* \"#utility.yul\":708:1072   */\n      swap3\n      swap2\n      pop\n      pop\n      jump\t// out\n        /* \"#utility.yul\":1078:1391   */\n    tag_30:\n        /* \"#utility.yul\":1191:1195   */\n      0x00\n        /* \"#utility.yul\":1229:1231   */\n      0x20\n        /* \"#utility.yul\":1218:1227   */\n      dup3\n        /* \"#utility.yul\":1214:1232   */\n      add\n        /* \"#utility.yul\":1206:1232   */\n      swap1\n      pop\n        /* \"#utility.yul\":1278:1287   */\n      dup2\n        /* \"#utility.yul\":1272:1276   */\n      dup2\n        /* \"#utility.yul\":1268:1288   */\n      sub\n        /* \"#utility.yul\":1264:1265   */\n      0x00\n        /* \"#utility.yul\":1253:1262   */\n      dup4\n        /* \"#utility.yul\":1249:1266   */\n      add\n        /* \"#utility.yul\":1242:1289   */\n      mstore\n        /* \"#utility.yul\":1306:1384   */\n      tag_253\n        /* \"#utility.yul\":1379:1383   */\n      dup2\n        /* \"#utility.yul\":1370:1376   */\n      dup5\n        /* \"#utility.yul\":1306:1384   */\n      tag_212\n      jump\t// in\n    tag_253:\n        /* \"#utility.yul\":1298:1384   */\n      swap1\n      pop\n        /* \"#utility.yul\":1078:1391   */\n      swap3\n      swap2\n      pop\n      pop\n      jump\t// out\n        /* \"#utility.yul\":1397:1474   */\n    tag_213:\n        /* \"#utility.yul\":1434:1441   */\n      0x00\n        /* \"#utility.yul\":1463:1468   */\n      dup2\n        /* \"#utility.yul\":1452:1468   */\n      swap1\n      pop\n        /* \"#utility.yul\":1397:1474   */\n      swap2\n      swap1\n      pop\n      jump\t// out\n        /* \"#utility.yul\":1480:1598   */\n    tag_214:\n        /* \"#utility.yul\":1567:1591   */\n      tag_256\n        /* \"#utility.yul\":1585:1590   */\n      dup2\n        /* \"#utility.yul\":1567:1591   */\n      tag_213\n      jump\t// in\n    tag_256:\n        /* \"#utility.yul\":1562:1565   */\n      dup3\n        /* \"#utility.yul\":1555:1592   */\n      mstore\n        /* \"#utility.yul\":1480:1598   */\n      pop\n      pop\n      jump\t// out\n        /* \"#utility.yul\":1604:1826   */\n    tag_34:\n        /* \"#utility.yul\":1697:1701   */\n      0x00\n        /* \"#utility.yul\":1735:1737   */\n      0x20\n        /* \"#utility.yul\":1724:1733   */\n      dup3\n        /* \"#utility.yul\":1720:1738   */\n      add\n        /* \"#utility.yul\":1712:1738   */\n      swap1\n      pop\n        /* \"#utility.yul\":1748:1819   */\n      tag_258\n        /* \"#utility.yul\":1816:1817   */\n      0x00\n        /* \"#utility.yul\":1805:1814   */\n      dup4\n        /* \"#utility.yul\":1801:1818   */\n      add\n        /* \"#utility.yul\":1792:1798   */\n      dup5\n        /* \"#utility.yul\":1748:1819   */\n      tag_214\n      jump\t// in\n    tag_258:\n        /* \"#utility.yul\":1604:1826   */\n      swap3\n      swap2\n      pop\n      pop\n      jump\t// out\n        /* \"#utility.yul\":1913:2030   */\n    tag_216:\n        /* \"#utility.yul\":2022:2023   */\n      0x00\n        /* \"#utility.yul\":2019:2020   */\n      dup1\n        /* \"#utility.yul\":2012:2024   */\n      revert\n        /* \"#utility.yul\":2036:2153   */\n    tag_217:\n        /* \"#utility.yul\":2145:2146   */\n      0x00\n        /* \"#utility.yul\":2142:2143   */\n      dup1\n        /* \"#utility.yul\":2135:2147   */\n      revert\n        /* \"#utility.yul\":2159:2281   */\n    tag_218:\n        /* \"#utility.yul\":2232:2256   */\n      tag_263\n        /* \"#utility.yul\":2250:2255   */\n      dup2\n        /* \"#utility.yul\":2232:2256   */\n      tag_213\n      jump\t// in\n    tag_263:\n        /* \"#utility.yul\":2225:2230   */\n      dup2\n        /* \"#utility.yul\":2222:2257   */\n      eq\n        /* \"#utility.yul\":2212:2275   */\n      tag_264\n      jumpi\n        /* \"#utility.yul\":2271:2272   */\n      0x00\n        /* \"#utility.yul\":2268:2269   */\n      dup1\n        /* \"#utility.yul\":2261:2273   */\n      revert\n        /* \"#utility.yul\":2212:2275   */\n    tag_264:\n        /* \"#utility.yul\":2159:2281   */\n      pop\n      jump\t// out\n        /* \"#utility.yul\":2287:2426   */\n    tag_219:\n        /* \"#utility.yul\":2333:2338   */\n      0x00\n        /* \"#utility.yul\":2371:2377   */\n      dup2\n        /* \"#utility.yul\":2358:2378   */\n      calldataload\n        /* \"#utility.yul\":2349:2378   */\n      swap1\n      pop\n        /* \"#utility.yul\":2387:2420   */\n      tag_266\n        /* \"#utility.yul\":2414:2419   */\n      dup2\n        /* \"#utility.yul\":2387:2420   */\n      tag_218\n      jump\t// in\n    tag_266:\n        /* \"#utility.yul\":2287:2426   */\n      swap3\n      swap2\n      pop\n      pop\n      jump\t// out\n        /* \"#utility.yul\":2432:2761   */\n    tag_37:\n        /* \"#utility.yul\":2491:2497   */\n      0x00\n        /* \"#utility.yul\":2540:2542   */\n      0x20\n        /* \"#utility.yul\":2528:2537   */\n      dup3\n        /* \"#utility.yul\":2519:2526   */\n      dup5\n        /* \"#utility.yul\":2515:2538   */\n      sub\n        /* \"#utility.yul\":2511:2543   */\n      slt\n        /* \"#utility.yul\":2508:2627   */\n      iszero\n      tag_268\n      jumpi\n        /* \"#utility.yul\":2546:2625   */\n      tag_269\n      tag_216\n      jump\t// in\n    tag_269:\n        /* \"#utility.yul\":2508:2627   */\n    tag_268:\n        /* \"#utility.yul\":2666:2667   */\n      0x00\n        /* \"#utility.yul\":2691:2744   */\n      tag_270\n        /* \"#utility.yul\":2736:2743   */\n      dup5\n        /* \"#utility.yul\":2727:2733   */\n      dup3\n        /* \"#utility.yul\":2716:2725   */\n      dup6\n        /* \"#utility.yul\":2712:2734   */\n      add\n        /* \"#utility.yul\":2691:2744   */\n      tag_219\n      jump\t// in\n    tag_270:\n        /* \"#utility.yul\":2681:2744   */\n      swap2\n      pop\n        /* \"#utility.yul\":2637:2754   */\n      pop\n        /* \"#utility.yul\":2432:2761   */\n      swap3\n      swap2\n      pop\n      pop\n      jump\t// out\n        /* \"#utility.yul\":2767:3502   */\n    tag_40:\n        /* \"#utility.yul\":2984:2988   */\n      0x00\n        /* \"#utility.yul\":3022:3025   */\n      0x80\n        /* \"#utility.yul\":3011:3020   */\n      dup3\n        /* \"#utility.yul\":3007:3026   */\n      add\n        /* \"#utility.yul\":2999:3026   */\n      swap1\n      pop\n        /* \"#utility.yul\":3036:3107   */\n      tag_272\n        /* \"#utility.yul\":3104:3105   */\n      0x00\n        /* \"#utility.yul\":3093:3102   */\n      dup4\n        /* \"#utility.yul\":3089:3106   */\n      add\n        /* \"#utility.yul\":3080:3086   */\n      dup8\n        /* \"#utility.yul\":3036:3107   */\n      tag_214\n      jump\t// in\n    tag_272:\n        /* \"#utility.yul\":3154:3163   */\n      dup2\n        /* \"#utility.yul\":3148:3152   */\n      dup2\n        /* \"#utility.yul\":3144:3164   */\n      sub\n        /* \"#utility.yul\":3139:3141   */\n      0x20\n        /* \"#utility.yul\":3128:3137   */\n      dup4\n        /* \"#utility.yul\":3124:3142   */\n      add\n        /* \"#utility.yul\":3117:3165   */\n      mstore\n        /* \"#utility.yul\":3182:3260   */\n      tag_273\n        /* \"#utility.yul\":3255:3259   */\n      dup2\n        /* \"#utility.yul\":3246:3252   */\n      dup7\n        /* \"#utility.yul\":3182:3260   */\n      tag_212\n      jump\t// in\n    tag_273:\n        /* \"#utility.yul\":3174:3260   */\n      swap1\n      pop\n        /* \"#utility.yul\":3307:3316   */\n      dup2\n        /* \"#utility.yul\":3301:3305   */\n      dup2\n        /* \"#utility.yul\":3297:3317   */\n      sub\n        /* \"#utility.yul\":3292:3294   */\n      0x40\n        /* \"#utility.yul\":3281:3290   */\n      dup4\n        /* \"#utility.yul\":3277:3295   */\n      add\n        /* \"#utility.yul\":3270:3318   */\n      mstore\n        /* \"#utility.yul\":3335:3413   */\n      tag_274\n        /* \"#utility.yul\":3408:3412   */\n      dup2\n        /* \"#utility.yul\":3399:3405   */\n      dup6\n        /* \"#utility.yul\":3335:3413   */\n      tag_212\n      jump\t// in\n    tag_274:\n        /* \"#utility.yul\":3327:3413   */\n      swap1\n      pop\n        /* \"#utility.yul\":3423:3495   */\n      tag_275\n        /* \"#utility.yul\":3491:3493   */\n      0x60\n        /* \"#utility.yul\":3480:3489   */\n      dup4\n        /* \"#utility.yul\":3476:3494   */\n      add\n        /* \"#utility.yul\":3467:3473   */\n      dup5\n        /* \"#utility.yul\":3423:3495   */\n      tag_214\n      jump\t// in\n    tag_275:\n        /* \"#utility.yul\":2767:3502   */\n      swap6\n      swap5\n      pop\n      pop\n      pop\n      pop\n      pop\n      jump\t// out\n        /* \"#utility.yul\":3508:3950   */\n    tag_44:\n        /* \"#utility.yul\":3657:3661   */\n      0x00\n        /* \"#utility.yul\":3695:3697   */\n      0x60\n        /* \"#utility.yul\":3684:3693   */\n      dup3\n        /* \"#utility.yul\":3680:3698   */\n      add\n        /* \"#utility.yul\":3672:3698   */\n      swap1\n      pop\n        /* \"#utility.yul\":3708:3779   */\n      tag_277\n        /* \"#utility.yul\":3776:3777   */\n      0x00\n        /* \"#utility.yul\":3765:3774   */\n      dup4\n        /* \"#utility.yul\":3761:3778   */\n      add\n        /* \"#utility.yul\":3752:3758   */\n      dup7\n        /* \"#utility.yul\":3708:3779   */\n      tag_214\n      jump\t// in\n    tag_277:\n        /* \"#utility.yul\":3789:3861   */\n      tag_278\n        /* \"#utility.yul\":3857:3859   */\n      0x20\n        /* \"#utility.yul\":3846:3855   */\n      dup4\n        /* \"#utility.yul\":3842:3860   */\n      add\n        /* \"#utility.yul\":3833:3839   */\n      dup6\n        /* \"#utility.yul\":3789:3861   */\n      tag_214\n      jump\t// in\n    tag_278:\n        /* \"#utility.yul\":3871:3943   */\n      tag_279\n        /* \"#utility.yul\":3939:3941   */\n      0x40\n        /* \"#utility.yul\":3928:3937   */\n      dup4\n        /* \"#utility.yul\":3924:3942   */\n      add\n        /* \"#utility.yul\":3915:3921   */\n      dup5\n        /* \"#utility.yul\":3871:3943   */\n      tag_214\n      jump\t// in\n    tag_279:\n        /* \"#utility.yul\":3508:3950   */\n      swap5\n      swap4\n      pop\n      pop\n      pop\n      pop\n      jump\t// out\n        /* \"#utility.yul\":3956:4082   */\n    tag_220:\n        /* \"#utility.yul\":3993:4000   */\n      0x00\n        /* \"#utility.yul\":4033:4075   */\n      0xffffffffffffffffffffffffffffffffffffffff\n        /* \"#utility.yul\":4026:4031   */\n      dup3\n        /* \"#utility.yul\":4022:4076   */\n      and\n        /* \"#utility.yul\":4011:4076   */\n      swap1\n      pop\n        /* \"#utility.yul\":3956:4082   */\n      swap2\n      swap1\n      pop\n      jump\t// out\n        /* \"#utility.yul\":4088:4184   */\n    tag_221:\n        /* \"#utility.yul\":4125:4132   */\n      0x00\n        /* \"#utility.yul\":4154:4178   */\n      tag_282\n        /* \"#utility.yul\":4172:4177   */\n      dup3\n        /* \"#utility.yul\":4154:4178   */\n      tag_220\n      jump\t// in\n    tag_282:\n        /* \"#utility.yul\":4143:4178   */\n      swap1\n      pop\n        /* \"#utility.yul\":4088:4184   */\n      swap2\n      swap1\n      pop\n      jump\t// out\n        /* \"#utility.yul\":4190:4308   */\n    tag_222:\n        /* \"#utility.yul\":4277:4301   */\n      tag_284\n        /* \"#utility.yul\":4295:4300   */\n      dup2\n        /* \"#utility.yul\":4277:4301   */\n      tag_221\n      jump\t// in\n    tag_284:\n        /* \"#utility.yul\":4272:4275   */\n      dup3\n        /* \"#utility.yul\":4265:4302   */\n      mstore\n        /* \"#utility.yul\":4190:4308   */\n      pop\n      pop\n      jump\t// out\n        /* \"#utility.yul\":4314:4536   */\n    tag_48:\n        /* \"#utility.yul\":4407:4411   */\n      0x00\n        /* \"#utility.yul\":4445:4447   */\n      0x20\n        /* \"#utility.yul\":4434:4443   */\n      dup3\n        /* \"#utility.yul\":4430:4448   */\n      add\n        /* \"#utility.yul\":4422:4448   */\n      swap1\n      pop\n        /* \"#utility.yul\":4458:4529   */\n      tag_286\n        /* \"#utility.yul\":4526:4527   */\n      0x00\n        /* \"#utility.yul\":4515:4524   */\n      dup4\n        /* \"#utility.yul\":4511:4528   */\n      add\n        /* \"#utility.yul\":4502:4508   */\n      dup5\n        /* \"#utility.yul\":4458:4529   */\n      tag_222\n      jump\t// in\n    tag_286:\n        /* \"#utility.yul\":4314:4536   */\n      swap3\n      swap2\n      pop\n      pop\n      jump\t// out\n        /* \"#utility.yul\":4542:4632   */\n    tag_223:\n        /* \"#utility.yul\":4576:4583   */\n      0x00\n        /* \"#utility.yul\":4619:4624   */\n      dup2\n        /* \"#utility.yul\":4612:4625   */\n      iszero\n        /* \"#utility.yul\":4605:4626   */\n      iszero\n        /* \"#utility.yul\":4594:4626   */\n      swap1\n      pop\n        /* \"#utility.yul\":4542:4632   */\n      swap2\n      swap1\n      pop\n      jump\t// out\n        /* \"#utility.yul\":4638:4747   */\n    tag_224:\n        /* \"#utility.yul\":4719:4740   */\n      tag_289\n        /* \"#utility.yul\":4734:4739   */\n      dup2\n        /* \"#utility.yul\":4719:4740   */\n      tag_223\n      jump\t// in\n    tag_289:\n        /* \"#utility.yul\":4714:4717   */\n      dup3\n        /* \"#utility.yul\":4707:4741   */\n      mstore\n        /* \"#utility.yul\":4638:4747   */\n      pop\n      pop\n      jump\t// out\n        /* \"#utility.yul\":4753:4963   */\n    tag_52:\n        /* \"#utility.yul\":4840:4844   */\n      0x00\n        /* \"#utility.yul\":4878:4880   */\n      0x20\n        /* \"#utility.yul\":4867:4876   */\n      dup3\n        /* \"#utility.yul\":4863:4881   */\n      add\n        /* \"#utility.yul\":4855:4881   */\n      swap1\n      pop\n        /* \"#utility.yul\":4891:4956   */\n      tag_291\n        /* \"#utility.yul\":4953:4954   */\n      0x00\n        /* \"#utility.yul\":4942:4951   */\n      dup4\n        /* \"#utility.yul\":4938:4955   */\n      add\n        /* \"#utility.yul\":4929:4935   */\n      dup5\n        /* \"#utility.yul\":4891:4956   */\n      tag_224\n      jump\t// in\n    tag_291:\n        /* \"#utility.yul\":4753:4963   */\n      swap3\n      swap2\n      pop\n      pop\n      jump\t// out\n        /* \"#utility.yul\":4969:5443   */\n    tag_59:\n        /* \"#utility.yul\":5037:5043   */\n      0x00\n        /* \"#utility.yul\":5045:5051   */\n      dup1\n        /* \"#utility.yul\":5094:5096   */\n      0x40\n        /* \"#utility.yul\":5082:5091   */\n      dup4\n        /* \"#utility.yul\":5073:5080   */\n      dup6\n        /* \"#utility.yul\":5069:5092   */\n      sub\n        /* \"#utility.yul\":5065:5097   */\n      slt\n        /* \"#utility.yul\":5062:5181   */\n      iszero\n      tag_293\n      jumpi\n        /* \"#utility.yul\":5100:5179   */\n      tag_294\n      tag_216\n      jump\t// in\n    tag_294:\n        /* \"#utility.yul\":5062:5181   */\n    tag_293:\n        /* \"#utility.yul\":5220:5221   */\n      0x00\n        /* \"#utility.yul\":5245:5298   */\n      tag_295\n        /* \"#utility.yul\":5290:5297   */\n      dup6\n        /* \"#utility.yul\":5281:5287   */\n      dup3\n        /* \"#utility.yul\":5270:5279   */\n      dup7\n        /* \"#utility.yul\":5266:5288   */\n      add\n        /* \"#utility.yul\":5245:5298   */\n      tag_219\n      jump\t// in\n    tag_295:\n        /* \"#utility.yul\":5235:5298   */\n      swap3\n      pop\n        /* \"#utility.yul\":5191:5308   */\n      pop\n        /* \"#utility.yul\":5347:5349   */\n      0x20\n        /* \"#utility.yul\":5373:5426   */\n      tag_296\n        /* \"#utility.yul\":5418:5425   */\n      dup6\n        /* \"#utility.yul\":5409:5415   */\n      dup3\n        /* \"#utility.yul\":5398:5407   */\n      dup7\n        /* \"#utility.yul\":5394:5416   */\n      add\n        /* \"#utility.yul\":5373:5426   */\n      tag_219\n      jump\t// in\n    tag_296:\n        /* \"#utility.yul\":5363:5426   */\n      swap2\n      pop\n        /* \"#utility.yul\":5318:5436   */\n      pop\n        /* \"#utility.yul\":4969:5443   */\n      swap3\n      pop\n      swap3\n      swap1\n      pop\n      jump\t// out\n        /* \"#utility.yul\":5449:5566   */\n    tag_225:\n        /* \"#utility.yul\":5558:5559   */\n      0x00\n        /* \"#utility.yul\":5555:5556   */\n      dup1\n        /* \"#utility.yul\":5548:5560   */\n      revert\n        /* \"#utility.yul\":5572:5689   */\n    tag_226:\n        /* \"#utility.yul\":5681:5682   */\n      0x00\n        /* \"#utility.yul\":5678:5679   */\n      dup1\n        /* \"#utility.yul\":5671:5683   */\n      revert\n        /* \"#utility.yul\":5695:5812   */\n    tag_227:\n        /* \"#utility.yul\":5804:5805   */\n      0x00\n        /* \"#utility.yul\":5801:5802   */\n      dup1\n        /* \"#utility.yul\":5794:5806   */\n      revert\n        /* \"#utility.yul\":5832:6385   */\n    tag_228:\n        /* \"#utility.yul\":5890:5898   */\n      0x00\n        /* \"#utility.yul\":5900:5906   */\n      dup1\n        /* \"#utility.yul\":5950:5953   */\n      dup4\n        /* \"#utility.yul\":5943:5947   */\n      0x1f\n        /* \"#utility.yul\":5935:5941   */\n      dup5\n        /* \"#utility.yul\":5931:5948   */\n      add\n        /* \"#utility.yul\":5927:5954   */\n      slt\n        /* \"#utility.yul\":5917:6039   */\n      tag_301\n      jumpi\n        /* \"#utility.yul\":5958:6037   */\n      tag_302\n      tag_225\n      jump\t// in\n    tag_302:\n        /* \"#utility.yul\":5917:6039   */\n    tag_301:\n        /* \"#utility.yul\":6071:6077   */\n      dup3\n        /* \"#utility.yul\":6058:6078   */\n      calldataload\n        /* \"#utility.yul\":6048:6078   */\n      swap1\n      pop\n        /* \"#utility.yul\":6101:6119   */\n      0xffffffffffffffff\n        /* \"#utility.yul\":6093:6099   */\n      dup2\n        /* \"#utility.yul\":6090:6120   */\n      gt\n        /* \"#utility.yul\":6087:6204   */\n      iszero\n      tag_303\n      jumpi\n        /* \"#utility.yul\":6123:6202   */\n      tag_304\n      tag_226\n      jump\t// in\n    tag_304:\n        /* \"#utility.yul\":6087:6204   */\n    tag_303:\n        /* \"#utility.yul\":6237:6241   */\n      0x20\n        /* \"#utility.yul\":6229:6235   */\n      dup4\n        /* \"#utility.yul\":6225:6242   */\n      add\n        /* \"#utility.yul\":6213:6242   */\n      swap2\n      pop\n        /* \"#utility.yul\":6291:6294   */\n      dup4\n        /* \"#utility.yul\":6283:6287   */\n      0x01\n        /* \"#utility.yul\":6275:6281   */\n      dup3\n        /* \"#utility.yul\":6271:6288   */\n      mul\n        /* \"#utility.yul\":6261:6269   */\n      dup4\n        /* \"#utility.yul\":6257:6289   */\n      add\n        /* \"#utility.yul\":6254:6295   */\n      gt\n        /* \"#utility.yul\":6251:6379   */\n      iszero\n      tag_305\n      jumpi\n        /* \"#utility.yul\":6298:6377   */\n      tag_306\n      tag_227\n      jump\t// in\n    tag_306:\n        /* \"#utility.yul\":6251:6379   */\n    tag_305:\n        /* \"#utility.yul\":5832:6385   */\n      swap3\n      pop\n      swap3\n      swap1\n      pop\n      jump\t// out\n        /* \"#utility.yul\":6391:7410   */\n    tag_68:\n        /* \"#utility.yul\":6492:6498   */\n      0x00\n        /* \"#utility.yul\":6500:6506   */\n      dup1\n        /* \"#utility.yul\":6508:6514   */\n      0x00\n        /* \"#utility.yul\":6516:6522   */\n      dup1\n        /* \"#utility.yul\":6524:6530   */\n      0x00\n        /* \"#utility.yul\":6573:6575   */\n      0x60\n        /* \"#utility.yul\":6561:6570   */\n      dup7\n        /* \"#utility.yul\":6552:6559   */\n      dup9\n        /* \"#utility.yul\":6548:6571   */\n      sub\n        /* \"#utility.yul\":6544:6576   */\n      slt\n        /* \"#utility.yul\":6541:6660   */\n      iszero\n      tag_308\n      jumpi\n        /* \"#utility.yul\":6579:6658   */\n      tag_309\n      tag_216\n      jump\t// in\n    tag_309:\n        /* \"#utility.yul\":6541:6660   */\n    tag_308:\n        /* \"#utility.yul\":6699:6700   */\n      0x00\n        /* \"#utility.yul\":6724:6777   */\n      tag_310\n        /* \"#utility.yul\":6769:6776   */\n      dup9\n        /* \"#utility.yul\":6760:6766   */\n      dup3\n        /* \"#utility.yul\":6749:6758   */\n      dup10\n        /* \"#utility.yul\":6745:6767   */\n      add\n        /* \"#utility.yul\":6724:6777   */\n      tag_219\n      jump\t// in\n    tag_310:\n        /* \"#utility.yul\":6714:6777   */\n      swap6\n      pop\n        /* \"#utility.yul\":6670:6787   */\n      pop\n        /* \"#utility.yul\":6854:6856   */\n      0x20\n        /* \"#utility.yul\":6843:6852   */\n      dup7\n        /* \"#utility.yul\":6839:6857   */\n      add\n        /* \"#utility.yul\":6826:6858   */\n      calldataload\n        /* \"#utility.yul\":6885:6903   */\n      0xffffffffffffffff\n        /* \"#utility.yul\":6877:6883   */\n      dup2\n        /* \"#utility.yul\":6874:6904   */\n      gt\n        /* \"#utility.yul\":6871:6988   */\n      iszero\n      tag_311\n      jumpi\n        /* \"#utility.yul\":6907:6986   */\n      tag_312\n      tag_217\n      jump\t// in\n    tag_312:\n        /* \"#utility.yul\":6871:6988   */\n    tag_311:\n        /* \"#utility.yul\":7020:7085   */\n      tag_313\n        /* \"#utility.yul\":7077:7084   */\n      dup9\n        /* \"#utility.yul\":7068:7074   */\n      dup3\n        /* \"#utility.yul\":7057:7066   */\n      dup10\n        /* \"#utility.yul\":7053:7075   */\n      add\n        /* \"#utility.yul\":7020:7085   */\n      tag_228\n      jump\t// in\n    tag_313:\n        /* \"#utility.yul\":7002:7085   */\n      swap5\n      pop\n      swap5\n      pop\n        /* \"#utility.yul\":6797:7095   */\n      pop\n        /* \"#utility.yul\":7162:7164   */\n      0x40\n        /* \"#utility.yul\":7151:7160   */\n      dup7\n        /* \"#utility.yul\":7147:7165   */\n      add\n        /* \"#utility.yul\":7134:7166   */\n      calldataload\n        /* \"#utility.yul\":7193:7211   */\n      0xffffffffffffffff\n        /* \"#utility.yul\":7185:7191   */\n      dup2\n        /* \"#utility.yul\":7182:7212   */\n      gt\n        /* \"#utility.yul\":7179:7296   */\n      iszero\n      tag_314\n      jumpi\n        /* \"#utility.yul\":7215:7294   */\n      tag_315\n      tag_217\n      jump\t// in\n    tag_315:\n        /* \"#utility.yul\":7179:7296   */\n    tag_314:\n        /* \"#utility.yul\":7328:7393   */\n      tag_316\n        /* \"#utility.yul\":7385:7392   */\n      dup9\n        /* \"#utility.yul\":7376:7382   */\n      dup3\n        /* \"#utility.yul\":7365:7374   */\n      dup10\n        /* \"#utility.yul\":7361:7383   */\n      add\n        /* \"#utility.yul\":7328:7393   */\n      tag_228\n      jump\t// in\n    tag_316:\n        /* \"#utility.yul\":7310:7393   */\n      swap3\n      pop\n      swap3\n      pop\n        /* \"#utility.yul\":7105:7403   */\n      pop\n        /* \"#utility.yul\":6391:7410   */\n      swap3\n      swap6\n      pop\n      swap3\n      swap6\n      swap1\n      swap4\n      pop\n      jump\t// out\n        /* \"#utility.yul\":7416:7530   */\n    tag_229:\n        /* \"#utility.yul\":7483:7489   */\n      0x00\n        /* \"#utility.yul\":7517:7522   */\n      dup2\n        /* \"#utility.yul\":7511:7523   */\n      mload\n        /* \"#utility.yul\":7501:7523   */\n      swap1\n      pop\n        /* \"#utility.yul\":7416:7530   */\n      swap2\n      swap1\n      pop\n      jump\t// out\n        /* \"#utility.yul\":7536:7720   */\n    tag_230:\n        /* \"#utility.yul\":7635:7646   */\n      0x00\n        /* \"#utility.yul\":7669:7675   */\n      dup3\n        /* \"#utility.yul\":7664:7667   */\n      dup3\n        /* \"#utility.yul\":7657:7676   */\n      mstore\n        /* \"#utility.yul\":7709:7713   */\n      0x20\n        /* \"#utility.yul\":7704:7707   */\n      dup3\n        /* \"#utility.yul\":7700:7714   */\n      add\n        /* \"#utility.yul\":7685:7714   */\n      swap1\n      pop\n        /* \"#utility.yul\":7536:7720   */\n      swap3\n      swap2\n      pop\n      pop\n      jump\t// out\n        /* \"#utility.yul\":7726:7858   */\n    tag_231:\n        /* \"#utility.yul\":7793:7797   */\n      0x00\n        /* \"#utility.yul\":7816:7819   */\n      dup2\n        /* \"#utility.yul\":7808:7819   */\n      swap1\n      pop\n        /* \"#utility.yul\":7846:7850   */\n      0x20\n        /* \"#utility.yul\":7841:7844   */\n      dup3\n        /* \"#utility.yul\":7837:7851   */\n      add\n        /* \"#utility.yul\":7829:7851   */\n      swap1\n      pop\n        /* \"#utility.yul\":7726:7858   */\n      swap2\n      swap1\n      pop\n      jump\t// out\n        /* \"#utility.yul\":7864:7972   */\n    tag_232:\n        /* \"#utility.yul\":7941:7965   */\n      tag_321\n        /* \"#utility.yul\":7959:7964   */\n      dup2\n        /* \"#utility.yul\":7941:7965   */\n      tag_213\n      jump\t// in\n    tag_321:\n        /* \"#utility.yul\":7936:7939   */\n      dup3\n        /* \"#utility.yul\":7929:7966   */\n      mstore\n        /* \"#utility.yul\":7864:7972   */\n      pop\n      pop\n      jump\t// out\n        /* \"#utility.yul\":7978:8157   */\n    tag_233:\n        /* \"#utility.yul\":8047:8057   */\n      0x00\n        /* \"#utility.yul\":8068:8114   */\n      tag_323\n        /* \"#utility.yul\":8110:8113   */\n      dup4\n        /* \"#utility.yul\":8102:8108   */\n      dup4\n        /* \"#utility.yul\":8068:8114   */\n      tag_232\n      jump\t// in\n    tag_323:\n        /* \"#utility.yul\":8146:8150   */\n      0x20\n        /* \"#utility.yul\":8141:8144   */\n      dup4\n        /* \"#utility.yul\":8137:8151   */\n      add\n        /* \"#utility.yul\":8123:8151   */\n      swap1\n      pop\n        /* \"#utility.yul\":7978:8157   */\n      swap3\n      swap2\n      pop\n      pop\n      jump\t// out\n        /* \"#utility.yul\":8163:8276   */\n    tag_234:\n        /* \"#utility.yul\":8233:8237   */\n      0x00\n        /* \"#utility.yul\":8265:8269   */\n      0x20\n        /* \"#utility.yul\":8260:8263   */\n      dup3\n        /* \"#utility.yul\":8256:8270   */\n      add\n        /* \"#utility.yul\":8248:8270   */\n      swap1\n      pop\n        /* \"#utility.yul\":8163:8276   */\n      swap2\n      swap1\n      pop\n      jump\t// out\n        /* \"#utility.yul\":8312:9044   */\n    tag_235:\n        /* \"#utility.yul\":8431:8434   */\n      0x00\n        /* \"#utility.yul\":8460:8514   */\n      tag_326\n        /* \"#utility.yul\":8508:8513   */\n      dup3\n        /* \"#utility.yul\":8460:8514   */\n      tag_229\n      jump\t// in\n    tag_326:\n        /* \"#utility.yul\":8530:8616   */\n      tag_327\n        /* \"#utility.yul\":8609:8615   */\n      dup2\n        /* \"#utility.yul\":8604:8607   */\n      dup6\n        /* \"#utility.yul\":8530:8616   */\n      tag_230\n      jump\t// in\n    tag_327:\n        /* \"#utility.yul\":8523:8616   */\n      swap4\n      pop\n        /* \"#utility.yul\":8640:8696   */\n      tag_328\n        /* \"#utility.yul\":8690:8695   */\n      dup4\n        /* \"#utility.yul\":8640:8696   */\n      tag_231\n      jump\t// in\n    tag_328:\n        /* \"#utility.yul\":8719:8726   */\n      dup1\n        /* \"#utility.yul\":8750:8751   */\n      0x00\n        /* \"#utility.yul\":8735:9019   */\n    tag_329:\n        /* \"#utility.yul\":8760:8766   */\n      dup4\n        /* \"#utility.yul\":8757:8758   */\n      dup2\n        /* \"#utility.yul\":8754:8767   */\n      lt\n        /* \"#utility.yul\":8735:9019   */\n      iszero\n      tag_331\n      jumpi\n        /* \"#utility.yul\":8836:8842   */\n      dup2\n        /* \"#utility.yul\":8830:8843   */\n      mload\n        /* \"#utility.yul\":8863:8926   */\n      tag_332\n        /* \"#utility.yul\":8922:8925   */\n      dup9\n        /* \"#utility.yul\":8907:8920   */\n      dup3\n        /* \"#utility.yul\":8863:8926   */\n      tag_233\n      jump\t// in\n    tag_332:\n        /* \"#utility.yul\":8856:8926   */\n      swap8\n      pop\n        /* \"#utility.yul\":8949:9009   */\n      tag_333\n        /* \"#utility.yul\":9002:9008   */\n      dup4\n        /* \"#utility.yul\":8949:9009   */\n      tag_234\n      jump\t// in\n    tag_333:\n        /* \"#utility.yul\":8939:9009   */\n      swap3\n      pop\n        /* \"#utility.yul\":8795:9019   */\n      pop\n        /* \"#utility.yul\":8782:8783   */\n      0x01\n        /* \"#utility.yul\":8779:8780   */\n      dup2\n        /* \"#utility.yul\":8775:8784   */\n      add\n        /* \"#utility.yul\":8770:8784   */\n      swap1\n      pop\n        /* \"#utility.yul\":8735:9019   */\n      jump(tag_329)\n    tag_331:\n        /* \"#utility.yul\":8739:8753   */\n      pop\n        /* \"#utility.yul\":9035:9038   */\n      dup6\n        /* \"#utility.yul\":9028:9038   */\n      swap4\n      pop\n        /* \"#utility.yul\":8436:9044   */\n      pop\n      pop\n      pop\n        /* \"#utility.yul\":8312:9044   */\n      swap3\n      swap2\n      pop\n      pop\n      jump\t// out\n        /* \"#utility.yul\":9050:9423   */\n    tag_73:\n        /* \"#utility.yul\":9193:9197   */\n      0x00\n        /* \"#utility.yul\":9231:9233   */\n      0x20\n        /* \"#utility.yul\":9220:9229   */\n      dup3\n        /* \"#utility.yul\":9216:9234   */\n      add\n        /* \"#utility.yul\":9208:9234   */\n      swap1\n      pop\n        /* \"#utility.yul\":9280:9289   */\n      dup2\n        /* \"#utility.yul\":9274:9278   */\n      dup2\n        /* \"#utility.yul\":9270:9290   */\n      sub\n        /* \"#utility.yul\":9266:9267   */\n      0x00\n        /* \"#utility.yul\":9255:9264   */\n      dup4\n        /* \"#utility.yul\":9251:9268   */\n      add\n        /* \"#utility.yul\":9244:9291   */\n      mstore\n        /* \"#utility.yul\":9308:9416   */\n      tag_335\n        /* \"#utility.yul\":9411:9415   */\n      dup2\n        /* \"#utility.yul\":9402:9408   */\n      dup5\n        /* \"#utility.yul\":9308:9416   */\n      tag_235\n      jump\t// in\n    tag_335:\n        /* \"#utility.yul\":9300:9416   */\n      swap1\n      pop\n        /* \"#utility.yul\":9050:9423   */\n      swap3\n      swap2\n      pop\n      pop\n      jump\t// out\n        /* \"#utility.yul\":9429:10263   */\n    tag_91:\n        /* \"#utility.yul\":9668:9672   */\n      0x00\n        /* \"#utility.yul\":9706:9709   */\n      0xa0\n        /* \"#utility.yul\":9695:9704   */\n      dup3\n        /* \"#utility.yul\":9691:9710   */\n      add\n        /* \"#utility.yul\":9683:9710   */\n      swap1\n      pop\n        /* \"#utility.yul\":9720:9791   */\n      tag_337\n        /* \"#utility.yul\":9788:9789   */\n      0x00\n        /* \"#utility.yul\":9777:9786   */\n      dup4\n        /* \"#utility.yul\":9773:9790   */\n      add\n        /* \"#utility.yul\":9764:9770   */\n      dup9\n        /* \"#utility.yul\":9720:9791   */\n      tag_214\n      jump\t// in\n    tag_337:\n        /* \"#utility.yul\":9838:9847   */\n      dup2\n        /* \"#utility.yul\":9832:9836   */\n      dup2\n        /* \"#utility.yul\":9828:9848   */\n      sub\n        /* \"#utility.yul\":9823:9825   */\n      0x20\n        /* \"#utility.yul\":9812:9821   */\n      dup4\n        /* \"#utility.yul\":9808:9826   */\n      add\n        /* \"#utility.yul\":9801:9849   */\n      mstore\n        /* \"#utility.yul\":9866:9944   */\n      tag_338\n        /* \"#utility.yul\":9939:9943   */\n      dup2\n        /* \"#utility.yul\":9930:9936   */\n      dup8\n        /* \"#utility.yul\":9866:9944   */\n      tag_212\n      jump\t// in\n    tag_338:\n        /* \"#utility.yul\":9858:9944   */\n      swap1\n      pop\n        /* \"#utility.yul\":9991:10000   */\n      dup2\n        /* \"#utility.yul\":9985:9989   */\n      dup2\n        /* \"#utility.yul\":9981:10001   */\n      sub\n        /* \"#utility.yul\":9976:9978   */\n      0x40\n        /* \"#utility.yul\":9965:9974   */\n      dup4\n        /* \"#utility.yul\":9961:9979   */\n      add\n        /* \"#utility.yul\":9954:10002   */\n      mstore\n        /* \"#utility.yul\":10019:10097   */\n      tag_339\n        /* \"#utility.yul\":10092:10096   */\n      dup2\n        /* \"#utility.yul\":10083:10089   */\n      dup7\n        /* \"#utility.yul\":10019:10097   */\n      tag_212\n      jump\t// in\n    tag_339:\n        /* \"#utility.yul\":10011:10097   */\n      swap1\n      pop\n        /* \"#utility.yul\":10107:10173   */\n      tag_340\n        /* \"#utility.yul\":10169:10171   */\n      0x60\n        /* \"#utility.yul\":10158:10167   */\n      dup4\n        /* \"#utility.yul\":10154:10172   */\n      add\n        /* \"#utility.yul\":10145:10151   */\n      dup6\n        /* \"#utility.yul\":10107:10173   */\n      tag_224\n      jump\t// in\n    tag_340:\n        /* \"#utility.yul\":10183:10256   */\n      tag_341\n        /* \"#utility.yul\":10251:10254   */\n      0x80\n        /* \"#utility.yul\":10240:10249   */\n      dup4\n        /* \"#utility.yul\":10236:10255   */\n      add\n        /* \"#utility.yul\":10227:10233   */\n      dup5\n        /* \"#utility.yul\":10183:10256   */\n      tag_214\n      jump\t// in\n    tag_341:\n        /* \"#utility.yul\":9429:10263   */\n      swap7\n      swap6\n      pop\n      pop\n      pop\n      pop\n      pop\n      pop\n      jump\t// out\n        /* \"#utility.yul\":10269:10449   */\n    tag_236:\n        /* \"#utility.yul\":10317:10394   */\n      0x4e487b7100000000000000000000000000000000000000000000000000000000\n        /* \"#utility.yul\":10314:10315   */\n      0x00\n        /* \"#utility.yul\":10307:10395   */\n      mstore\n        /* \"#utility.yul\":10414:10418   */\n      0x22\n        /* \"#utility.yul\":10411:10412   */\n      0x04\n        /* \"#utility.yul\":10404:10419   */\n      mstore\n        /* \"#utility.yul\":10438:10442   */\n      0x24\n        /* \"#utility.yul\":10435:10436   */\n      0x00\n        /* \"#utility.yul\":10428:10443   */\n      revert\n        /* \"#utility.yul\":10455:10775   */\n    tag_107:\n        /* \"#utility.yul\":10499:10505   */\n      0x00\n        /* \"#utility.yul\":10536:10537   */\n      0x02\n        /* \"#utility.yul\":10530:10534   */\n      dup3\n        /* \"#utility.yul\":10526:10538   */\n      div\n        /* \"#utility.yul\":10516:10538   */\n      swap1\n      pop\n        /* \"#utility.yul\":10583:10584   */\n      0x01\n        /* \"#utility.yul\":10577:10581   */\n      dup3\n        /* \"#utility.yul\":10573:10585   */\n      and\n        /* \"#utility.yul\":10604:10622   */\n      dup1\n        /* \"#utility.yul\":10594:10675   */\n      tag_344\n      jumpi\n        /* \"#utility.yul\":10660:10664   */\n      0x7f\n        /* \"#utility.yul\":10652:10658   */\n      dup3\n        /* \"#utility.yul\":10648:10665   */\n      and\n        /* \"#utility.yul\":10638:10665   */\n      swap2\n      pop\n        /* \"#utility.yul\":10594:10675   */\n    tag_344:\n        /* \"#utility.yul\":10722:10724   */\n      0x20\n        /* \"#utility.yul\":10714:10720   */\n      dup3\n        /* \"#utility.yul\":10711:10725   */\n      lt\n        /* \"#utility.yul\":10691:10709   */\n      dup2\n        /* \"#utility.yul\":10688:10726   */\n      eq\n        /* \"#utility.yul\":10685:10769   */\n      iszero\n      tag_345\n      jumpi\n        /* \"#utility.yul\":10741:10759   */\n      tag_346\n      tag_236\n      jump\t// in\n    tag_346:\n        /* \"#utility.yul\":10685:10769   */\n    tag_345:\n        /* \"#utility.yul\":10506:10775   */\n      pop\n        /* \"#utility.yul\":10455:10775   */\n      swap2\n      swap1\n      pop\n      jump\t// out\n        /* \"#utility.yul\":10781:10961   */\n    tag_130:\n        /* \"#utility.yul\":10829:10906   */\n      0x4e487b7100000000000000000000000000000000000000000000000000000000\n        /* \"#utility.yul\":10826:10827   */\n      0x00\n        /* \"#utility.yul\":10819:10907   */\n      mstore\n        /* \"#utility.yul\":10926:10930   */\n      0x32\n        /* \"#utility.yul\":10923:10924   */\n      0x04\n        /* \"#utility.yul\":10916:10931   */\n      mstore\n        /* \"#utility.yul\":10950:10954   */\n      0x24\n        /* \"#utility.yul\":10947:10948   */\n      0x00\n        /* \"#utility.yul\":10940:10955   */\n      revert\n        /* \"#utility.yul\":10967:11147   */\n    tag_237:\n        /* \"#utility.yul\":11015:11092   */\n      0x4e487b7100000000000000000000000000000000000000000000000000000000\n        /* \"#utility.yul\":11012:11013   */\n      0x00\n        /* \"#utility.yul\":11005:11093   */\n      mstore\n        /* \"#utility.yul\":11112:11116   */\n      0x11\n        /* \"#utility.yul\":11109:11110   */\n      0x04\n        /* \"#utility.yul\":11102:11117   */\n      mstore\n        /* \"#utility.yul\":11136:11140   */\n      0x24\n        /* \"#utility.yul\":11133:11134   */\n      0x00\n        /* \"#utility.yul\":11126:11141   */\n      revert\n        /* \"#utility.yul\":11153:11386   */\n    tag_137:\n        /* \"#utility.yul\":11192:11195   */\n      0x00\n        /* \"#utility.yul\":11215:11239   */\n      tag_350\n        /* \"#utility.yul\":11233:11238   */\n      dup3\n        /* \"#utility.yul\":11215:11239   */\n      tag_213\n      jump\t// in\n    tag_350:\n        /* \"#utility.yul\":11206:11239   */\n      swap2\n      pop\n        /* \"#utility.yul\":11261:11327   */\n      0xffffffffffffffffffffffffffffffffffffffffffffffffffffffffffffffff\n        /* \"#utility.yul\":11254:11259   */\n      dup3\n        /* \"#utility.yul\":11251:11328   */\n      eq\n        /* \"#utility.yul\":11248:11351   */\n      iszero\n      tag_351\n      jumpi\n        /* \"#utility.yul\":11331:11349   */\n      tag_352\n      tag_237\n      jump\t// in\n    tag_352:\n        /* \"#utility.yul\":11248:11351   */\n    tag_351:\n        /* \"#utility.yul\":11378:11379   */\n      0x01\n        /* \"#utility.yul\":11371:11376   */\n      dup3\n        /* \"#utility.yul\":11367:11380   */\n      add\n        /* \"#utility.yul\":11360:11380   */\n      swap1\n      pop\n        /* \"#utility.yul\":11153:11386   */\n      swap2\n      swap1\n      pop\n      jump\t// out\n        /* \"#utility.yul\":11392:11583   */\n    tag_166:\n        /* \"#utility.yul\":11432:11436   */\n      0x00\n        /* \"#utility.yul\":11452:11472   */\n      tag_354\n        /* \"#utility.yul\":11470:11471   */\n      dup3\n        /* \"#utility.yul\":11452:11472   */\n      tag_213\n      jump\t// in\n    tag_354:\n        /* \"#utility.yul\":11447:11472   */\n      swap2\n      pop\n        /* \"#utility.yul\":11486:11506   */\n      tag_355\n        /* \"#utility.yul\":11504:11505   */\n      dup4\n        /* \"#utility.yul\":11486:11506   */\n      tag_213\n      jump\t// in\n    tag_355:\n        /* \"#utility.yul\":11481:11506   */\n      swap3\n      pop\n        /* \"#utility.yul\":11525:11526   */\n      dup3\n        /* \"#utility.yul\":11522:11523   */\n      dup3\n        /* \"#utility.yul\":11519:11527   */\n      lt\n        /* \"#utility.yul\":11516:11550   */\n      iszero\n      tag_356\n      jumpi\n        /* \"#utility.yul\":11530:11548   */\n      tag_357\n      tag_237\n      jump\t// in\n    tag_357:\n        /* \"#utility.yul\":11516:11550   */\n    tag_356:\n        /* \"#utility.yul\":11575:11576   */\n      dup3\n        /* \"#utility.yul\":11572:11573   */\n      dup3\n        /* \"#utility.yul\":11568:11577   */\n      sub\n        /* \"#utility.yul\":11560:11577   */\n      swap1\n      pop\n        /* \"#utility.yul\":11392:11583   */\n      swap3\n      swap2\n      pop\n      pop\n      jump\t// out\n\n    auxdata: 0xa2646970667358221220b48109a95ab421ca6aa0ad6ddae7fdece75b73e2164531a0a78ff2e51f3eddd864736f6c634300080b0033\n}\n","bytecode":{"linkReferences":{},"object":"60806040523480156200001157600080fd5b5060405162001a1438038062001a1483398181016040528101906200003791906200034a565b806000806101000a81548173ffffffffffffffffffffffffffffffffffffffff021916908373ffffffffffffffffffffffffffffffffffffffff16021790555081600190805190602001906200008f92919062000098565b50505062000415565b828054620000a690620003df565b90600052602060002090601f016020900481019282620000ca576000855562000116565b82601f10620000e557805160ff191683800117855562000116565b8280016001018555821562000116579182015b8281111562000115578251825591602001919060010190620000f8565b5b50905062000125919062000129565b5090565b5b80821115620001445760008160009055506001016200012a565b5090565b6000604051905090565b600080fd5b600080fd5b600080fd5b600080fd5b6000601f19601f8301169050919050565b7f4e487b7100000000000000000000000000000000000000000000000000000000600052604160045260246000fd5b620001b18262000166565b810181811067ffffffffffffffff82111715620001d357620001d262000177565b5b80604052505050565b6000620001e862000148565b9050620001f68282620001a6565b919050565b600067ffffffffffffffff82111562000219576200021862000177565b5b620002248262000166565b9050602081019050919050565b60005b838110156200025157808201518184015260208101905062000234565b8381111562000261576000848401525b50505050565b60006200027e6200027884620001fb565b620001dc565b9050828152602081018484840111156200029d576200029c62000161565b5b620002aa84828562000231565b509392505050565b600082601f830112620002ca57620002c96200015c565b5b8151620002dc84826020860162000267565b91505092915050565b600073ffffffffffffffffffffffffffffffffffffffff82169050919050565b60006200031282620002e5565b9050919050565b620003248162000305565b81146200033057600080fd5b50565b600081519050620003448162000319565b92915050565b6000806040838503121562000364576200036362000152565b5b600083015167ffffffffffffffff81111562000385576200038462000157565b5b6200039385828601620002b2565b9250506020620003a68582860162000333565b9150509250929050565b7f4e487b7100000000000000000000000000000000000000000000000000000000600052602260045260246000fd5b60006002820490506001821680620003f857607f821691505b602082108114156200040f576200040e620003b0565b5b50919050565b6115ef80620004256000396000f3fe608060405234801561001057600080fd5b50600436106101375760003560e01c8063bd5b5faf116100b8578063d64042a31161007c578063d64042a31461031f578063da58c7d91461033d578063da60f7b114610371578063de292789146103a1578063dfbf53ae146103c1578063f8394d63146103df57610137565b8063bd5b5faf1461027b578063bec0fde214610297578063c0f2a777146102b5578063cd65a20a146102d3578063d3fe94bf146102ef57610137565b8063522e1177116100ff578063522e1177146101e9578063704fe71014610207578063749e28b9146102375780638574c29614610253578063bb9aa28f1461025d57610137565b806306fdde031461013c5780630d15fd771461015a5780633477ee2e146101785780634051ddac146101ab578063481c6a75146101cb575b600080fd5b61014461040f565b604051610151919061102d565b60405180910390f35b61016261049d565b60405161016f9190611068565b60405180910390f35b610192600480360381019061018d91906110b9565b6104a3565b6040516101a294939291906110e6565b60405180910390f35b6101b36105f3565b6040516101c293929190611139565b60405180910390f35b6101d3610612565b6040516101e091906111b1565b60405180910390f35b6101f1610636565b6040516101fe91906111e7565b60405180910390f35b610221600480360381019061021c91906110b9565b610649565b60405161022e9190611068565b60405180910390f35b610251600480360381019061024c9190611202565b61066d565b005b61025b610759565b005b6102656108e8565b6040516102729190611068565b60405180910390f35b610295600480360381019061029091906112a7565b6108f5565b005b61029f610a79565b6040516102ac91906113fa565b60405180910390f35b6102bd610ad1565b6040516102ca9190611068565b60405180910390f35b6102ed60048036038101906102e891906112a7565b610ade565b005b610309600480360381019061030491906110b9565b610c8b565b6040516103169190611068565b60405180910390f35b610327610caf565b60405161033491906113fa565b60405180910390f35b610357600480360381019061035291906110b9565b610d07565b60405161036895949392919061141c565b60405180910390f35b61038b600480360381019061038691906110b9565b610e6a565b6040516103989190611068565b60405180910390f35b6103a9610e82565b6040516103b893929190611139565b60405180910390f35b6103c9610ed3565b6040516103d69190611068565b60405180910390f35b6103f960048036038101906103f491906110b9565b610ed9565b6040516104069190611068565b60405180910390f35b6001805461041c906114ac565b80601f0160208091040260200160405190810160405280929190818152602001828054610448906114ac565b80156104955780601f1061046a57610100808354040283529160200191610495565b820191906000526020600020905b81548152906001019060200180831161047857829003601f168201915b505050505081565b60065481565b600481815481106104b357600080fd5b90600052602060002090600402016000915090508060000154908060010180546104dc906114ac565b80601f0160208091040260200160405190810160405280929190818152602001828054610508906114ac565b80156105555780601f1061052a57610100808354040283529160200191610555565b820191906000526020600020905b81548152906001019060200180831161053857829003601f168201915b50505050509080600201805461056a906114ac565b80601f0160208091040260200160405190810160405280929190818152602001828054610596906114ac565b80156105e35780601f106105b8576101008083540402835291602001916105e3565b820191906000526020600020905b8154815290600101906020018083116105c657829003601f168201915b5050505050908060030154905084565b6000806000600280549050600480549050600654925092509250909192565b60008054906101000a900473ffffffffffffffffffffffffffffffffffffffff1681565b600760009054906101000a900460ff1681565b6005818154811061065957600080fd5b906000526020600020016000915090505481565b60006002600960008581526020019081526020016000205481548110610696576106956114de565b5b906000526020600020906005020190508060030160009054906101000a900460ff16156106c257600080fd5b60018160030160006101000a81548160ff02191690831515021790555081816004018190555060006004600a60008581526020019081526020016000205481548110610711576107106114de565b5b906000526020600020906004020190508060030160008154809291906107369061153c565b91905055506006600081548092919061074e9061153c565b919050555050505050565b60008054906101000a900473ffffffffffffffffffffffffffffffffffffffff1673ffffffffffffffffffffffffffffffffffffffff163373ffffffffffffffffffffffffffffffffffffffff16146107b157600080fd5b60008054906101000a900473ffffffffffffffffffffffffffffffffffffffff1673ffffffffffffffffffffffffffffffffffffffff163373ffffffffffffffffffffffffffffffffffffffff161461080957600080fd5b600760009054906101000a900460ff161561082357600080fd5b6001600760006101000a81548160ff0219169083151502179055506000805b6004805490508110156108e4578160048281548110610864576108636114de565b5b90600052602060002090600402016003015411156108d157600481815481106108905761088f6114de565b5b9060005260206000209060040201600301549150600481815481106108b8576108b76114de565b5b9060005260206000209060040201600001546008819055505b80806108dc9061153c565b915050610842565b5050565b6000600480549050905090565b6000604051806080016040528087815260200186868080601f016020809104026020016040519081016040528093929190818152602001838380828437600081840152601f19601f82011690508083019250505050505050815260200184848080601f016020809104026020016040519081016040528093929190818152602001838380828437600081840152601f19601f8201169050808301925050505050505081526020016000815250905060048190806001815401808255809150506001900390600052602060002090600402016000909190919091506000820151816000015560208201518160010190805190602001906109f5929190610ef1565b506040820151816002019080519060200190610a12929190610ef1565b5060608201518160030155505060058690806001815401808255809150506001900390600052602060002001600090919091909150556001600580549050610a5a9190611585565b600a600088815260200190815260200160002081905550505050505050565b60606005805480602002602001604051908101604052809291908181526020018280548015610ac757602002820191906000526020600020905b815481526020019060010190808311610ab3575b5050505050905090565b6000600280549050905090565b60006040518060a0016040528087815260200186868080601f016020809104026020016040519081016040528093929190818152602001838380828437600081840152601f19601f82011690508083019250505050505050815260200184848080601f016020809104026020016040519081016040528093929190818152602001838380828437600081840152601f19601f820116905080830192505050505050508152602001600015158152602001600081525090506002819080600181540180825580915050600190039060005260206000209060050201600090919091909150600082015181600001556020820151816001019080519060200190610be7929190610ef1565b506040820151816002019080519060200190610c04929190610ef1565b5060608201518160030160006101000a81548160ff02191690831515021790555060808201518160040155505060038690806001815401808255809150506001900390600052602060002001600090919091909150556001600380549050610c6c9190611585565b6009600088815260200190815260200160002081905550505050505050565b60038181548110610c9b57600080fd5b906000526020600020016000915090505481565b60606003805480602002602001604051908101604052809291908181526020018280548015610cfd57602002820191906000526020600020905b815481526020019060010190808311610ce9575b5050505050905090565b60028181548110610d1757600080fd5b9060005260206000209060050201600091509050806000015490806001018054610d40906114ac565b80601f0160208091040260200160405190810160405280929190818152602001828054610d6c906114ac565b8015610db95780601f10610d8e57610100808354040283529160200191610db9565b820191906000526020600020905b815481529060010190602001808311610d9c57829003601f168201915b505050505090806002018054610dce906114ac565b80601f0160208091040260200160405190810160405280929190818152602001828054610dfa906114ac565b8015610e475780601f10610e1c57610100808354040283529160200191610e47565b820191906000526020600020905b815481529060010190602001808311610e2a57829003601f168201915b5050505050908060030160009054906101000a900460ff16908060040154905085565b600a6020528060005260406000206000915090505481565b60008060006006546004600a600060085481526020019081526020016000205481548110610eb357610eb26114de565b5b906000526020600020906004020160030154600854925092509250909192565b60085481565b60096020528060005260406000206000915090505481565b828054610efd906114ac565b90600052602060002090601f016020900481019282610f1f5760008555610f66565b82601f10610f3857805160ff1916838001178555610f66565b82800160010185558215610f66579182015b82811115610f65578251825591602001919060010190610f4a565b5b509050610f739190610f77565b5090565b5b80821115610f90576000816000905550600101610f78565b5090565b600081519050919050565b600082825260208201905092915050565b60005b83811015610fce578082015181840152602081019050610fb3565b83811115610fdd576000848401525b50505050565b6000601f19601f8301169050919050565b6000610fff82610f94565b6110098185610f9f565b9350611019818560208601610fb0565b61102281610fe3565b840191505092915050565b600060208201905081810360008301526110478184610ff4565b905092915050565b6000819050919050565b6110628161104f565b82525050565b600060208201905061107d6000830184611059565b92915050565b600080fd5b600080fd5b6110968161104f565b81146110a157600080fd5b50565b6000813590506110b38161108d565b92915050565b6000602082840312156110cf576110ce611083565b5b60006110dd848285016110a4565b91505092915050565b60006080820190506110fb6000830187611059565b818103602083015261110d8186610ff4565b905081810360408301526111218185610ff4565b90506111306060830184611059565b95945050505050565b600060608201905061114e6000830186611059565b61115b6020830185611059565b6111686040830184611059565b949350505050565b600073ffffffffffffffffffffffffffffffffffffffff82169050919050565b600061119b82611170565b9050919050565b6111ab81611190565b82525050565b60006020820190506111c660008301846111a2565b92915050565b60008115159050919050565b6111e1816111cc565b82525050565b60006020820190506111fc60008301846111d8565b92915050565b6000806040838503121561121957611218611083565b5b6000611227858286016110a4565b9250506020611238858286016110a4565b9150509250929050565b600080fd5b600080fd5b600080fd5b60008083601f84011261126757611266611242565b5b8235905067ffffffffffffffff81111561128457611283611247565b5b6020830191508360018202830111156112a05761129f61124c565b5b9250929050565b6000806000806000606086880312156112c3576112c2611083565b5b60006112d1888289016110a4565b955050602086013567ffffffffffffffff8111156112f2576112f1611088565b5b6112fe88828901611251565b9450945050604086013567ffffffffffffffff81111561132157611320611088565b5b61132d88828901611251565b92509250509295509295909350565b600081519050919050565b600082825260208201905092915050565b6000819050602082019050919050565b6113718161104f565b82525050565b60006113838383611368565b60208301905092915050565b6000602082019050919050565b60006113a78261133c565b6113b18185611347565b93506113bc83611358565b8060005b838110156113ed5781516113d48882611377565b97506113df8361138f565b9250506001810190506113c0565b5085935050505092915050565b60006020820190508181036000830152611414818461139c565b905092915050565b600060a0820190506114316000830188611059565b81810360208301526114438187610ff4565b905081810360408301526114578186610ff4565b905061146660608301856111d8565b6114736080830184611059565b9695505050505050565b7f4e487b7100000000000000000000000000000000000000000000000000000000600052602260045260246000fd5b600060028204905060018216806114c457607f821691505b602082108114156114d8576114d761147d565b5b50919050565b7f4e487b7100000000000000000000000000000000000000000000000000000000600052603260045260246000fd5b7f4e487b7100000000000000000000000000000000000000000000000000000000600052601160045260246000fd5b60006115478261104f565b91507fffffffffffffffffffffffffffffffffffffffffffffffffffffffffffffffff82141561157a5761157961150d565b5b600182019050919050565b60006115908261104f565b915061159b8361104f565b9250828210156115ae576115ad61150d565b5b82820390509291505056fea2646970667358221220b48109a95ab421ca6aa0ad6ddae7fdece75b73e2164531a0a78ff2e51f3eddd864736f6c634300080b0033","opcodes":"PUSH1 0x80 PUSH1 0x40 MSTORE CALLVALUE DUP1 ISZERO PUSH3 0x11 JUMPI PUSH1 0x0 DUP1 REVERT JUMPDEST POP PUSH1 0x40 MLOAD PUSH3 0x1A14 CODESIZE SUB DUP1 PUSH3 0x1A14 DUP4 CODECOPY DUP2 DUP2 ADD PUSH1 0x40 MSTORE DUP2 ADD SWAP1 PUSH3 0x37 SWAP2 SWAP1 PUSH3 0x34A JUMP JUMPDEST DUP1 PUSH1 0x0 DUP1 PUSH2 0x100 EXP DUP2 SLOAD DUP2 PUSH20 0xFFFFFFFFFFFFFFFFFFFFFFFFFFFFFFFFFFFFFFFF MUL NOT AND SWAP1 DUP4 PUSH20 0xFFFFFFFFFFFFFFFFFFFFFFFFFFFFFFFFFFFFFFFF AND MUL OR SWAP1 SSTORE POP DUP2 PUSH1 0x1 SWAP1 DUP1 MLOAD SWAP1 PUSH1 0x20 ADD SWAP1 PUSH3 0x8F SWAP3 SWAP2 SWAP1 PUSH3 0x98 JUMP JUMPDEST POP POP POP PUSH3 0x415 JUMP JUMPDEST DUP3 DUP1 SLOAD PUSH3 0xA6 SWAP1 PUSH3 0x3DF JUMP JUMPDEST SWAP1 PUSH1 0x0 MSTORE PUSH1 0x20 PUSH1 0x0 KECCAK256 SWAP1 PUSH1 0x1F ADD PUSH1 0x20 SWAP1 DIV DUP2 ADD SWAP3 DUP3 PUSH3 0xCA JUMPI PUSH1 0x0 DUP6 SSTORE PUSH3 0x116 JUMP JUMPDEST DUP3 PUSH1 0x1F LT PUSH3 0xE5 JUMPI DUP1 MLOAD PUSH1 0xFF NOT AND DUP4 DUP1 ADD OR DUP6 SSTORE PUSH3 0x116 JUMP JUMPDEST DUP3 DUP1 ADD PUSH1 0x1 ADD DUP6 SSTORE DUP3 ISZERO PUSH3 0x116 JUMPI SWAP2 DUP3 ADD JUMPDEST DUP3 DUP2 GT ISZERO PUSH3 0x115 JUMPI DUP3 MLOAD DUP3 SSTORE SWAP2 PUSH1 0x20 ADD SWAP2 SWAP1 PUSH1 0x1 ADD SWAP1 PUSH3 0xF8 JUMP JUMPDEST JUMPDEST POP SWAP1 POP PUSH3 0x125 SWAP2 SWAP1 PUSH3 0x129 JUMP JUMPDEST POP SWAP1 JUMP JUMPDEST JUMPDEST DUP1 DUP3 GT ISZERO PUSH3 0x144 JUMPI PUSH1 0x0 DUP2 PUSH1 0x0 SWAP1 SSTORE POP PUSH1 0x1 ADD PUSH3 0x12A JUMP JUMPDEST POP SWAP1 JUMP JUMPDEST PUSH1 0x0 PUSH1 0x40 MLOAD SWAP1 POP SWAP1 JUMP JUMPDEST PUSH1 0x0 DUP1 REVERT JUMPDEST PUSH1 0x0 DUP1 REVERT JUMPDEST PUSH1 0x0 DUP1 REVERT JUMPDEST PUSH1 0x0 DUP1 REVERT JUMPDEST PUSH1 0x0 PUSH1 0x1F NOT PUSH1 0x1F DUP4 ADD AND SWAP1 POP SWAP2 SWAP1 POP JUMP JUMPDEST PUSH32 0x4E487B7100000000000000000000000000000000000000000000000000000000 PUSH1 0x0 MSTORE PUSH1 0x41 PUSH1 0x4 MSTORE PUSH1 0x24 PUSH1 0x0 REVERT JUMPDEST PUSH3 0x1B1 DUP3 PUSH3 0x166 JUMP JUMPDEST DUP2 ADD DUP2 DUP2 LT PUSH8 0xFFFFFFFFFFFFFFFF DUP3 GT OR ISZERO PUSH3 0x1D3 JUMPI PUSH3 0x1D2 PUSH3 0x177 JUMP JUMPDEST JUMPDEST DUP1 PUSH1 0x40 MSTORE POP POP POP JUMP JUMPDEST PUSH1 0x0 PUSH3 0x1E8 PUSH3 0x148 JUMP JUMPDEST SWAP1 POP PUSH3 0x1F6 DUP3 DUP3 PUSH3 0x1A6 JUMP JUMPDEST SWAP2 SWAP1 POP JUMP JUMPDEST PUSH1 0x0 PUSH8 0xFFFFFFFFFFFFFFFF DUP3 GT ISZERO PUSH3 0x219 JUMPI PUSH3 0x218 PUSH3 0x177 JUMP JUMPDEST JUMPDEST PUSH3 0x224 DUP3 PUSH3 0x166 JUMP JUMPDEST SWAP1 POP PUSH1 0x20 DUP2 ADD SWAP1 POP SWAP2 SWAP1 POP JUMP JUMPDEST PUSH1 0x0 JUMPDEST DUP4 DUP2 LT ISZERO PUSH3 0x251 JUMPI DUP1 DUP3 ADD MLOAD DUP2 DUP5 ADD MSTORE PUSH1 0x20 DUP2 ADD SWAP1 POP PUSH3 0x234 JUMP JUMPDEST DUP4 DUP2 GT ISZERO PUSH3 0x261 JUMPI PUSH1 0x0 DUP5 DUP5 ADD MSTORE JUMPDEST POP POP POP POP JUMP JUMPDEST PUSH1 0x0 PUSH3 0x27E PUSH3 0x278 DUP5 PUSH3 0x1FB JUMP JUMPDEST PUSH3 0x1DC JUMP JUMPDEST SWAP1 POP DUP3 DUP2 MSTORE PUSH1 0x20 DUP2 ADD DUP5 DUP5 DUP5 ADD GT ISZERO PUSH3 0x29D JUMPI PUSH3 0x29C PUSH3 0x161 JUMP JUMPDEST JUMPDEST PUSH3 0x2AA DUP5 DUP3 DUP6 PUSH3 0x231 JUMP JUMPDEST POP SWAP4 SWAP3 POP POP POP JUMP JUMPDEST PUSH1 0x0 DUP3 PUSH1 0x1F DUP4 ADD SLT PUSH3 0x2CA JUMPI PUSH3 0x2C9 PUSH3 0x15C JUMP JUMPDEST JUMPDEST DUP2 MLOAD PUSH3 0x2DC DUP5 DUP3 PUSH1 0x20 DUP7 ADD PUSH3 0x267 JUMP JUMPDEST SWAP2 POP POP SWAP3 SWAP2 POP POP JUMP JUMPDEST PUSH1 0x0 PUSH20 0xFFFFFFFFFFFFFFFFFFFFFFFFFFFFFFFFFFFFFFFF DUP3 AND SWAP1 POP SWAP2 SWAP1 POP JUMP JUMPDEST PUSH1 0x0 PUSH3 0x312 DUP3 PUSH3 0x2E5 JUMP JUMPDEST SWAP1 POP SWAP2 SWAP1 POP JUMP JUMPDEST PUSH3 0x324 DUP2 PUSH3 0x305 JUMP JUMPDEST DUP2 EQ PUSH3 0x330 JUMPI PUSH1 0x0 DUP1 REVERT JUMPDEST POP JUMP JUMPDEST PUSH1 0x0 DUP2 MLOAD SWAP1 POP PUSH3 0x344 DUP2 PUSH3 0x319 JUMP JUMPDEST SWAP3 SWAP2 POP POP JUMP JUMPDEST PUSH1 0x0 DUP1 PUSH1 0x40 DUP4 DUP6 SUB SLT ISZERO PUSH3 0x364 JUMPI PUSH3 0x363 PUSH3 0x152 JUMP JUMPDEST JUMPDEST PUSH1 0x0 DUP4 ADD MLOAD PUSH8 0xFFFFFFFFFFFFFFFF DUP2 GT ISZERO PUSH3 0x385 JUMPI PUSH3 0x384 PUSH3 0x157 JUMP JUMPDEST JUMPDEST PUSH3 0x393 DUP6 DUP3 DUP7 ADD PUSH3 0x2B2 JUMP JUMPDEST SWAP3 POP POP PUSH1 0x20 PUSH3 0x3A6 DUP6 DUP3 DUP7 ADD PUSH3 0x333 JUMP JUMPDEST SWAP2 POP POP SWAP3 POP SWAP3 SWAP1 POP JUMP JUMPDEST PUSH32 0x4E487B7100000000000000000000000000000000000000000000000000000000 PUSH1 0x0 MSTORE PUSH1 0x22 PUSH1 0x4 MSTORE PUSH1 0x24 PUSH1 0x0 REVERT JUMPDEST PUSH1 0x0 PUSH1 0x2 DUP3 DIV SWAP1 POP PUSH1 0x1 DUP3 AND DUP1 PUSH3 0x3F8 JUMPI PUSH1 0x7F DUP3 AND SWAP2 POP JUMPDEST PUSH1 0x20 DUP3 LT DUP2 EQ ISZERO PUSH3 0x40F JUMPI PUSH3 0x40E PUSH3 0x3B0 JUMP JUMPDEST JUMPDEST POP SWAP2 SWAP1 POP JUMP JUMPDEST PUSH2 0x15EF DUP1 PUSH3 0x425 PUSH1 0x0 CODECOPY PUSH1 0x0 RETURN INVALID PUSH1 0x80 PUSH1 0x40 MSTORE CALLVALUE DUP1 ISZERO PUSH2 0x10 JUMPI PUSH1 0x0 DUP1 REVERT JUMPDEST POP PUSH1 0x4 CALLDATASIZE LT PUSH2 0x137 JUMPI PUSH1 0x0 CALLDATALOAD PUSH1 0xE0 SHR DUP1 PUSH4 0xBD5B5FAF GT PUSH2 0xB8 JUMPI DUP1 PUSH4 0xD64042A3 GT PUSH2 0x7C JUMPI DUP1 PUSH4 0xD64042A3 EQ PUSH2 0x31F JUMPI DUP1 PUSH4 0xDA58C7D9 EQ PUSH2 0x33D JUMPI DUP1 PUSH4 0xDA60F7B1 EQ PUSH2 0x371 JUMPI DUP1 PUSH4 0xDE292789 EQ PUSH2 0x3A1 JUMPI DUP1 PUSH4 0xDFBF53AE EQ PUSH2 0x3C1 JUMPI DUP1 PUSH4 0xF8394D63 EQ PUSH2 0x3DF JUMPI PUSH2 0x137 JUMP JUMPDEST DUP1 PUSH4 0xBD5B5FAF EQ PUSH2 0x27B JUMPI DUP1 PUSH4 0xBEC0FDE2 EQ PUSH2 0x297 JUMPI DUP1 PUSH4 0xC0F2A777 EQ PUSH2 0x2B5 JUMPI DUP1 PUSH4 0xCD65A20A EQ PUSH2 0x2D3 JUMPI DUP1 PUSH4 0xD3FE94BF EQ PUSH2 0x2EF JUMPI PUSH2 0x137 JUMP JUMPDEST DUP1 PUSH4 0x522E1177 GT PUSH2 0xFF JUMPI DUP1 PUSH4 0x522E1177 EQ PUSH2 0x1E9 JUMPI DUP1 PUSH4 0x704FE710 EQ PUSH2 0x207 JUMPI DUP1 PUSH4 0x749E28B9 EQ PUSH2 0x237 JUMPI DUP1 PUSH4 0x8574C296 EQ PUSH2 0x253 JUMPI DUP1 PUSH4 0xBB9AA28F EQ PUSH2 0x25D JUMPI PUSH2 0x137 JUMP JUMPDEST DUP1 PUSH4 0x6FDDE03 EQ PUSH2 0x13C JUMPI DUP1 PUSH4 0xD15FD77 EQ PUSH2 0x15A JUMPI DUP1 PUSH4 0x3477EE2E EQ PUSH2 0x178 JUMPI DUP1 PUSH4 0x4051DDAC EQ PUSH2 0x1AB JUMPI DUP1 PUSH4 0x481C6A75 EQ PUSH2 0x1CB JUMPI JUMPDEST PUSH1 0x0 DUP1 REVERT JUMPDEST PUSH2 0x144 PUSH2 0x40F JUMP JUMPDEST PUSH1 0x40 MLOAD PUSH2 0x151 SWAP2 SWAP1 PUSH2 0x102D JUMP JUMPDEST PUSH1 0x40 MLOAD DUP1 SWAP2 SUB SWAP1 RETURN JUMPDEST PUSH2 0x162 PUSH2 0x49D JUMP JUMPDEST PUSH1 0x40 MLOAD PUSH2 0x16F SWAP2 SWAP1 PUSH2 0x1068 JUMP JUMPDEST PUSH1 0x40 MLOAD DUP1 SWAP2 SUB SWAP1 RETURN JUMPDEST PUSH2 0x192 PUSH1 0x4 DUP1 CALLDATASIZE SUB DUP2 ADD SWAP1 PUSH2 0x18D SWAP2 SWAP1 PUSH2 0x10B9 JUMP JUMPDEST PUSH2 0x4A3 JUMP JUMPDEST PUSH1 0x40 MLOAD PUSH2 0x1A2 SWAP5 SWAP4 SWAP3 SWAP2 SWAP1 PUSH2 0x10E6 JUMP JUMPDEST PUSH1 0x40 MLOAD DUP1 SWAP2 SUB SWAP1 RETURN JUMPDEST PUSH2 0x1B3 PUSH2 0x5F3 JUMP JUMPDEST PUSH1 0x40 MLOAD PUSH2 0x1C2 SWAP4 SWAP3 SWAP2 SWAP1 PUSH2 0x1139 JUMP JUMPDEST PUSH1 0x40 MLOAD DUP1 SWAP2 SUB SWAP1 RETURN JUMPDEST PUSH2 0x1D3 PUSH2 0x612 JUMP JUMPDEST PUSH1 0x40 MLOAD PUSH2 0x1E0 SWAP2 SWAP1 PUSH2 0x11B1 JUMP JUMPDEST PUSH1 0x40 MLOAD DUP1 SWAP2 SUB SWAP1 RETURN JUMPDEST PUSH2 0x1F1 PUSH2 0x636 JUMP JUMPDEST PUSH1 0x40 MLOAD PUSH2 0x1FE SWAP2 SWAP1 PUSH2 0x11E7 JUMP JUMPDEST PUSH1 0x40 MLOAD DUP1 SWAP2 SUB SWAP1 RETURN JUMPDEST PUSH2 0x221 PUSH1 0x4 DUP1 CALLDATASIZE SUB DUP2 ADD SWAP1 PUSH2 0x21C SWAP2 SWAP1 PUSH2 0x10B9 JUMP JUMPDEST PUSH2 0x649 JUMP JUMPDEST PUSH1 0x40 MLOAD PUSH2 0x22E SWAP2 SWAP1 PUSH2 0x1068 JUMP JUMPDEST PUSH1 0x40 MLOAD DUP1 SWAP2 SUB SWAP1 RETURN JUMPDEST PUSH2 0x251 PUSH1 0x4 DUP1 CALLDATASIZE SUB DUP2 ADD SWAP1 PUSH2 0x24C SWAP2 SWAP1 PUSH2 0x1202 JUMP JUMPDEST PUSH2 0x66D JUMP JUMPDEST STOP JUMPDEST PUSH2 0x25B PUSH2 0x759 JUMP JUMPDEST STOP JUMPDEST PUSH2 0x265 PUSH2 0x8E8 JUMP JUMPDEST PUSH1 0x40 MLOAD PUSH2 0x272 SWAP2 SWAP1 PUSH2 0x1068 JUMP JUMPDEST PUSH1 0x40 MLOAD DUP1 SWAP2 SUB SWAP1 RETURN JUMPDEST PUSH2 0x295 PUSH1 0x4 DUP1 CALLDATASIZE SUB DUP2 ADD SWAP1 PUSH2 0x290 SWAP2 SWAP1 PUSH2 0x12A7 JUMP JUMPDEST PUSH2 0x8F5 JUMP JUMPDEST STOP JUMPDEST PUSH2 0x29F PUSH2 0xA79 JUMP JUMPDEST PUSH1 0x40 MLOAD PUSH2 0x2AC SWAP2 SWAP1 PUSH2 0x13FA JUMP JUMPDEST PUSH1 0x40 MLOAD DUP1 SWAP2 SUB SWAP1 RETURN JUMPDEST PUSH2 0x2BD PUSH2 0xAD1 JUMP JUMPDEST PUSH1 0x40 MLOAD PUSH2 0x2CA SWAP2 SWAP1 PUSH2 0x1068 JUMP JUMPDEST PUSH1 0x40 MLOAD DUP1 SWAP2 SUB SWAP1 RETURN JUMPDEST PUSH2 0x2ED PUSH1 0x4 DUP1 CALLDATASIZE SUB DUP2 ADD SWAP1 PUSH2 0x2E8 SWAP2 SWAP1 PUSH2 0x12A7 JUMP JUMPDEST PUSH2 0xADE JUMP JUMPDEST STOP JUMPDEST PUSH2 0x309 PUSH1 0x4 DUP1 CALLDATASIZE SUB DUP2 ADD SWAP1 PUSH2 0x304 SWAP2 SWAP1 PUSH2 0x10B9 JUMP JUMPDEST PUSH2 0xC8B JUMP JUMPDEST PUSH1 0x40 MLOAD PUSH2 0x316 SWAP2 SWAP1 PUSH2 0x1068 JUMP JUMPDEST PUSH1 0x40 MLOAD DUP1 SWAP2 SUB SWAP1 RETURN JUMPDEST PUSH2 0x327 PUSH2 0xCAF JUMP JUMPDEST PUSH1 0x40 MLOAD PUSH2 0x334 SWAP2 SWAP1 PUSH2 0x13FA JUMP JUMPDEST PUSH1 0x40 MLOAD DUP1 SWAP2 SUB SWAP1 RETURN JUMPDEST PUSH2 0x357 PUSH1 0x4 DUP1 CALLDATASIZE SUB DUP2 ADD SWAP1 PUSH2 0x352 SWAP2 SWAP1 PUSH2 0x10B9 JUMP JUMPDEST PUSH2 0xD07 JUMP JUMPDEST PUSH1 0x40 MLOAD PUSH2 0x368 SWAP6 SWAP5 SWAP4 SWAP3 SWAP2 SWAP1 PUSH2 0x141C JUMP JUMPDEST PUSH1 0x40 MLOAD DUP1 SWAP2 SUB SWAP1 RETURN JUMPDEST PUSH2 0x38B PUSH1 0x4 DUP1 CALLDATASIZE SUB DUP2 ADD SWAP1 PUSH2 0x386 SWAP2 SWAP1 PUSH2 0x10B9 JUMP JUMPDEST PUSH2 0xE6A JUMP JUMPDEST PUSH1 0x40 MLOAD PUSH2 0x398 SWAP2 SWAP1 PUSH2 0x1068 JUMP JUMPDEST PUSH1 0x40 MLOAD DUP1 SWAP2 SUB SWAP1 RETURN JUMPDEST PUSH2 0x3A9 PUSH2 0xE82 JUMP JUMPDEST PUSH1 0x40 MLOAD PUSH2 0x3B8 SWAP4 SWAP3 SWAP2 SWAP1 PUSH2 0x1139 JUMP JUMPDEST PUSH1 0x40 MLOAD DUP1 SWAP2 SUB SWAP1 RETURN JUMPDEST PUSH2 0x3C9 PUSH2 0xED3 JUMP JUMPDEST PUSH1 0x40 MLOAD PUSH2 0x3D6 SWAP2 SWAP1 PUSH2 0x1068 JUMP JUMPDEST PUSH1 0x40 MLOAD DUP1 SWAP2 SUB SWAP1 RETURN JUMPDEST PUSH2 0x3F9 PUSH1 0x4 DUP1 CALLDATASIZE SUB DUP2 ADD SWAP1 PUSH2 0x3F4 SWAP2 SWAP1 PUSH2 0x10B9 JUMP JUMPDEST PUSH2 0xED9 JUMP JUMPDEST PUSH1 0x40 MLOAD PUSH2 0x406 SWAP2 SWAP1 PUSH2 0x1068 JUMP JUMPDEST PUSH1 0x40 MLOAD DUP1 SWAP2 SUB SWAP1 RETURN JUMPDEST PUSH1 0x1 DUP1 SLOAD PUSH2 0x41C SWAP1 PUSH2 0x14AC JUMP JUMPDEST DUP1 PUSH1 0x1F ADD PUSH1 0x20 DUP1 SWAP2 DIV MUL PUSH1 0x20 ADD PUSH1 0x40 MLOAD SWAP1 DUP2 ADD PUSH1 0x40 MSTORE DUP1 SWAP3 SWAP2 SWAP1 DUP2 DUP2 MSTORE PUSH1 0x20 ADD DUP3 DUP1 SLOAD PUSH2 0x448 SWAP1 PUSH2 0x14AC JUMP JUMPDEST DUP1 ISZERO PUSH2 0x495 JUMPI DUP1 PUSH1 0x1F LT PUSH2 0x46A JUMPI PUSH2 0x100 DUP1 DUP4 SLOAD DIV MUL DUP4 MSTORE SWAP2 PUSH1 0x20 ADD SWAP2 PUSH2 0x495 JUMP JUMPDEST DUP3 ADD SWAP2 SWAP1 PUSH1 0x0 MSTORE PUSH1 0x20 PUSH1 0x0 KECCAK256 SWAP1 JUMPDEST DUP2 SLOAD DUP2 MSTORE SWAP1 PUSH1 0x1 ADD SWAP1 PUSH1 0x20 ADD DUP1 DUP4 GT PUSH2 0x478 JUMPI DUP3 SWAP1 SUB PUSH1 0x1F AND DUP3 ADD SWAP2 JUMPDEST POP POP POP POP POP DUP2 JUMP JUMPDEST PUSH1 0x6 SLOAD DUP2 JUMP JUMPDEST PUSH1 0x4 DUP2 DUP2 SLOAD DUP2 LT PUSH2 0x4B3 JUMPI PUSH1 0x0 DUP1 REVERT JUMPDEST SWAP1 PUSH1 0x0 MSTORE PUSH1 0x20 PUSH1 0x0 KECCAK256 SWAP1 PUSH1 0x4 MUL ADD PUSH1 0x0 SWAP2 POP SWAP1 POP DUP1 PUSH1 0x0 ADD SLOAD SWAP1 DUP1 PUSH1 0x1 ADD DUP1 SLOAD PUSH2 0x4DC SWAP1 PUSH2 0x14AC JUMP JUMPDEST DUP1 PUSH1 0x1F ADD PUSH1 0x20 DUP1 SWAP2 DIV MUL PUSH1 0x20 ADD PUSH1 0x40 MLOAD SWAP1 DUP2 ADD PUSH1 0x40 MSTORE DUP1 SWAP3 SWAP2 SWAP1 DUP2 DUP2 MSTORE PUSH1 0x20 ADD DUP3 DUP1 SLOAD PUSH2 0x508 SWAP1 PUSH2 0x14AC JUMP JUMPDEST DUP1 ISZERO PUSH2 0x555 JUMPI DUP1 PUSH1 0x1F LT PUSH2 0x52A JUMPI PUSH2 0x100 DUP1 DUP4 SLOAD DIV MUL DUP4 MSTORE SWAP2 PUSH1 0x20 ADD SWAP2 PUSH2 0x555 JUMP JUMPDEST DUP3 ADD SWAP2 SWAP1 PUSH1 0x0 MSTORE PUSH1 0x20 PUSH1 0x0 KECCAK256 SWAP1 JUMPDEST DUP2 SLOAD DUP2 MSTORE SWAP1 PUSH1 0x1 ADD SWAP1 PUSH1 0x20 ADD DUP1 DUP4 GT PUSH2 0x538 JUMPI DUP3 SWAP1 SUB PUSH1 0x1F AND DUP3 ADD SWAP2 JUMPDEST POP POP POP POP POP SWAP1 DUP1 PUSH1 0x2 ADD DUP1 SLOAD PUSH2 0x56A SWAP1 PUSH2 0x14AC JUMP JUMPDEST DUP1 PUSH1 0x1F ADD PUSH1 0x20 DUP1 SWAP2 DIV MUL PUSH1 0x20 ADD PUSH1 0x40 MLOAD SWAP1 DUP2 ADD PUSH1 0x40 MSTORE DUP1 SWAP3 SWAP2 SWAP1 DUP2 DUP2 MSTORE PUSH1 0x20 ADD DUP3 DUP1 SLOAD PUSH2 0x596 SWAP1 PUSH2 0x14AC JUMP JUMPDEST DUP1 ISZERO PUSH2 0x5E3 JUMPI DUP1 PUSH1 0x1F LT PUSH2 0x5B8 JUMPI PUSH2 0x100 DUP1 DUP4 SLOAD DIV MUL DUP4 MSTORE SWAP2 PUSH1 0x20 ADD SWAP2 PUSH2 0x5E3 JUMP JUMPDEST DUP3 ADD SWAP2 SWAP1 PUSH1 0x0 MSTORE PUSH1 0x20 PUSH1 0x0 KECCAK256 SWAP1 JUMPDEST DUP2 SLOAD DUP2 MSTORE SWAP1 PUSH1 0x1 ADD SWAP1 PUSH1 0x20 ADD DUP1 DUP4 GT PUSH2 0x5C6 JUMPI DUP3 SWAP1 SUB PUSH1 0x1F AND DUP3 ADD SWAP2 JUMPDEST POP POP POP POP POP SWAP1 DUP1 PUSH1 0x3 ADD SLOAD SWAP1 POP DUP5 JUMP JUMPDEST PUSH1 0x0 DUP1 PUSH1 0x0 PUSH1 0x2 DUP1 SLOAD SWAP1 POP PUSH1 0x4 DUP1 SLOAD SWAP1 POP PUSH1 0x6 SLOAD SWAP3 POP SWAP3 POP SWAP3 POP SWAP1 SWAP2 SWAP3 JUMP JUMPDEST PUSH1 0x0 DUP1 SLOAD SWAP1 PUSH2 0x100 EXP SWAP1 DIV PUSH20 0xFFFFFFFFFFFFFFFFFFFFFFFFFFFFFFFFFFFFFFFF AND DUP2 JUMP JUMPDEST PUSH1 0x7 PUSH1 0x0 SWAP1 SLOAD SWAP1 PUSH2 0x100 EXP SWAP1 DIV PUSH1 0xFF AND DUP2 JUMP JUMPDEST PUSH1 0x5 DUP2 DUP2 SLOAD DUP2 LT PUSH2 0x659 JUMPI PUSH1 0x0 DUP1 REVERT JUMPDEST SWAP1 PUSH1 0x0 MSTORE PUSH1 0x20 PUSH1 0x0 KECCAK256 ADD PUSH1 0x0 SWAP2 POP SWAP1 POP SLOAD DUP2 JUMP JUMPDEST PUSH1 0x0 PUSH1 0x2 PUSH1 0x9 PUSH1 0x0 DUP6 DUP2 MSTORE PUSH1 0x20 ADD SWAP1 DUP2 MSTORE PUSH1 0x20 ADD PUSH1 0x0 KECCAK256 SLOAD DUP2 SLOAD DUP2 LT PUSH2 0x696 JUMPI PUSH2 0x695 PUSH2 0x14DE JUMP JUMPDEST JUMPDEST SWAP1 PUSH1 0x0 MSTORE PUSH1 0x20 PUSH1 0x0 KECCAK256 SWAP1 PUSH1 0x5 MUL ADD SWAP1 POP DUP1 PUSH1 0x3 ADD PUSH1 0x0 SWAP1 SLOAD SWAP1 PUSH2 0x100 EXP SWAP1 DIV PUSH1 0xFF AND ISZERO PUSH2 0x6C2 JUMPI PUSH1 0x0 DUP1 REVERT JUMPDEST PUSH1 0x1 DUP2 PUSH1 0x3 ADD PUSH1 0x0 PUSH2 0x100 EXP DUP2 SLOAD DUP2 PUSH1 0xFF MUL NOT AND SWAP1 DUP4 ISZERO ISZERO MUL OR SWAP1 SSTORE POP DUP2 DUP2 PUSH1 0x4 ADD DUP2 SWAP1 SSTORE POP PUSH1 0x0 PUSH1 0x4 PUSH1 0xA PUSH1 0x0 DUP6 DUP2 MSTORE PUSH1 0x20 ADD SWAP1 DUP2 MSTORE PUSH1 0x20 ADD PUSH1 0x0 KECCAK256 SLOAD DUP2 SLOAD DUP2 LT PUSH2 0x711 JUMPI PUSH2 0x710 PUSH2 0x14DE JUMP JUMPDEST JUMPDEST SWAP1 PUSH1 0x0 MSTORE PUSH1 0x20 PUSH1 0x0 KECCAK256 SWAP1 PUSH1 0x4 MUL ADD SWAP1 POP DUP1 PUSH1 0x3 ADD PUSH1 0x0 DUP2 SLOAD DUP1 SWAP3 SWAP2 SWAP1 PUSH2 0x736 SWAP1 PUSH2 0x153C JUMP JUMPDEST SWAP2 SWAP1 POP SSTORE POP PUSH1 0x6 PUSH1 0x0 DUP2 SLOAD DUP1 SWAP3 SWAP2 SWAP1 PUSH2 0x74E SWAP1 PUSH2 0x153C JUMP JUMPDEST SWAP2 SWAP1 POP SSTORE POP POP POP POP POP JUMP JUMPDEST PUSH1 0x0 DUP1 SLOAD SWAP1 PUSH2 0x100 EXP SWAP1 DIV PUSH20 0xFFFFFFFFFFFFFFFFFFFFFFFFFFFFFFFFFFFFFFFF AND PUSH20 0xFFFFFFFFFFFFFFFFFFFFFFFFFFFFFFFFFFFFFFFF AND CALLER PUSH20 0xFFFFFFFFFFFFFFFFFFFFFFFFFFFFFFFFFFFFFFFF AND EQ PUSH2 0x7B1 JUMPI PUSH1 0x0 DUP1 REVERT JUMPDEST PUSH1 0x0 DUP1 SLOAD SWAP1 PUSH2 0x100 EXP SWAP1 DIV PUSH20 0xFFFFFFFFFFFFFFFFFFFFFFFFFFFFFFFFFFFFFFFF AND PUSH20 0xFFFFFFFFFFFFFFFFFFFFFFFFFFFFFFFFFFFFFFFF AND CALLER PUSH20 0xFFFFFFFFFFFFFFFFFFFFFFFFFFFFFFFFFFFFFFFF AND EQ PUSH2 0x809 JUMPI PUSH1 0x0 DUP1 REVERT JUMPDEST PUSH1 0x7 PUSH1 0x0 SWAP1 SLOAD SWAP1 PUSH2 0x100 EXP SWAP1 DIV PUSH1 0xFF AND ISZERO PUSH2 0x823 JUMPI PUSH1 0x0 DUP1 REVERT JUMPDEST PUSH1 0x1 PUSH1 0x7 PUSH1 0x0 PUSH2 0x100 EXP DUP2 SLOAD DUP2 PUSH1 0xFF MUL NOT AND SWAP1 DUP4 ISZERO ISZERO MUL OR SWAP1 SSTORE POP PUSH1 0x0 DUP1 JUMPDEST PUSH1 0x4 DUP1 SLOAD SWAP1 POP DUP2 LT ISZERO PUSH2 0x8E4 JUMPI DUP2 PUSH1 0x4 DUP3 DUP2 SLOAD DUP2 LT PUSH2 0x864 JUMPI PUSH2 0x863 PUSH2 0x14DE JUMP JUMPDEST JUMPDEST SWAP1 PUSH1 0x0 MSTORE PUSH1 0x20 PUSH1 0x0 KECCAK256 SWAP1 PUSH1 0x4 MUL ADD PUSH1 0x3 ADD SLOAD GT ISZERO PUSH2 0x8D1 JUMPI PUSH1 0x4 DUP2 DUP2 SLOAD DUP2 LT PUSH2 0x890 JUMPI PUSH2 0x88F PUSH2 0x14DE JUMP JUMPDEST JUMPDEST SWAP1 PUSH1 0x0 MSTORE PUSH1 0x20 PUSH1 0x0 KECCAK256 SWAP1 PUSH1 0x4 MUL ADD PUSH1 0x3 ADD SLOAD SWAP2 POP PUSH1 0x4 DUP2 DUP2 SLOAD DUP2 LT PUSH2 0x8B8 JUMPI PUSH2 0x8B7 PUSH2 0x14DE JUMP JUMPDEST JUMPDEST SWAP1 PUSH1 0x0 MSTORE PUSH1 0x20 PUSH1 0x0 KECCAK256 SWAP1 PUSH1 0x4 MUL ADD PUSH1 0x0 ADD SLOAD PUSH1 0x8 DUP2 SWAP1 SSTORE POP JUMPDEST DUP1 DUP1 PUSH2 0x8DC SWAP1 PUSH2 0x153C JUMP JUMPDEST SWAP2 POP POP PUSH2 0x842 JUMP JUMPDEST POP POP JUMP JUMPDEST PUSH1 0x0 PUSH1 0x4 DUP1 SLOAD SWAP1 POP SWAP1 POP SWAP1 JUMP JUMPDEST PUSH1 0x0 PUSH1 0x40 MLOAD DUP1 PUSH1 0x80 ADD PUSH1 0x40 MSTORE DUP1 DUP8 DUP2 MSTORE PUSH1 0x20 ADD DUP7 DUP7 DUP1 DUP1 PUSH1 0x1F ADD PUSH1 0x20 DUP1 SWAP2 DIV MUL PUSH1 0x20 ADD PUSH1 0x40 MLOAD SWAP1 DUP2 ADD PUSH1 0x40 MSTORE DUP1 SWAP4 SWAP3 SWAP2 SWAP1 DUP2 DUP2 MSTORE PUSH1 0x20 ADD DUP4 DUP4 DUP1 DUP3 DUP5 CALLDATACOPY PUSH1 0x0 DUP2 DUP5 ADD MSTORE PUSH1 0x1F NOT PUSH1 0x1F DUP3 ADD AND SWAP1 POP DUP1 DUP4 ADD SWAP3 POP POP POP POP POP POP POP DUP2 MSTORE PUSH1 0x20 ADD DUP5 DUP5 DUP1 DUP1 PUSH1 0x1F ADD PUSH1 0x20 DUP1 SWAP2 DIV MUL PUSH1 0x20 ADD PUSH1 0x40 MLOAD SWAP1 DUP2 ADD PUSH1 0x40 MSTORE DUP1 SWAP4 SWAP3 SWAP2 SWAP1 DUP2 DUP2 MSTORE PUSH1 0x20 ADD DUP4 DUP4 DUP1 DUP3 DUP5 CALLDATACOPY PUSH1 0x0 DUP2 DUP5 ADD MSTORE PUSH1 0x1F NOT PUSH1 0x1F DUP3 ADD AND SWAP1 POP DUP1 DUP4 ADD SWAP3 POP POP POP POP POP POP POP DUP2 MSTORE PUSH1 0x20 ADD PUSH1 0x0 DUP2 MSTORE POP SWAP1 POP PUSH1 0x4 DUP2 SWAP1 DUP1 PUSH1 0x1 DUP2 SLOAD ADD DUP1 DUP3 SSTORE DUP1 SWAP2 POP POP PUSH1 0x1 SWAP1 SUB SWAP1 PUSH1 0x0 MSTORE PUSH1 0x20 PUSH1 0x0 KECCAK256 SWAP1 PUSH1 0x4 MUL ADD PUSH1 0x0 SWAP1 SWAP2 SWAP1 SWAP2 SWAP1 SWAP2 POP PUSH1 0x0 DUP3 ADD MLOAD DUP2 PUSH1 0x0 ADD SSTORE PUSH1 0x20 DUP3 ADD MLOAD DUP2 PUSH1 0x1 ADD SWAP1 DUP1 MLOAD SWAP1 PUSH1 0x20 ADD SWAP1 PUSH2 0x9F5 SWAP3 SWAP2 SWAP1 PUSH2 0xEF1 JUMP JUMPDEST POP PUSH1 0x40 DUP3 ADD MLOAD DUP2 PUSH1 0x2 ADD SWAP1 DUP1 MLOAD SWAP1 PUSH1 0x20 ADD SWAP1 PUSH2 0xA12 SWAP3 SWAP2 SWAP1 PUSH2 0xEF1 JUMP JUMPDEST POP PUSH1 0x60 DUP3 ADD MLOAD DUP2 PUSH1 0x3 ADD SSTORE POP POP PUSH1 0x5 DUP7 SWAP1 DUP1 PUSH1 0x1 DUP2 SLOAD ADD DUP1 DUP3 SSTORE DUP1 SWAP2 POP POP PUSH1 0x1 SWAP1 SUB SWAP1 PUSH1 0x0 MSTORE PUSH1 0x20 PUSH1 0x0 KECCAK256 ADD PUSH1 0x0 SWAP1 SWAP2 SWAP1 SWAP2 SWAP1 SWAP2 POP SSTORE PUSH1 0x1 PUSH1 0x5 DUP1 SLOAD SWAP1 POP PUSH2 0xA5A SWAP2 SWAP1 PUSH2 0x1585 JUMP JUMPDEST PUSH1 0xA PUSH1 0x0 DUP9 DUP2 MSTORE PUSH1 0x20 ADD SWAP1 DUP2 MSTORE PUSH1 0x20 ADD PUSH1 0x0 KECCAK256 DUP2 SWAP1 SSTORE POP POP POP POP POP POP POP JUMP JUMPDEST PUSH1 0x60 PUSH1 0x5 DUP1 SLOAD DUP1 PUSH1 0x20 MUL PUSH1 0x20 ADD PUSH1 0x40 MLOAD SWAP1 DUP2 ADD PUSH1 0x40 MSTORE DUP1 SWAP3 SWAP2 SWAP1 DUP2 DUP2 MSTORE PUSH1 0x20 ADD DUP3 DUP1 SLOAD DUP1 ISZERO PUSH2 0xAC7 JUMPI PUSH1 0x20 MUL DUP3 ADD SWAP2 SWAP1 PUSH1 0x0 MSTORE PUSH1 0x20 PUSH1 0x0 KECCAK256 SWAP1 JUMPDEST DUP2 SLOAD DUP2 MSTORE PUSH1 0x20 ADD SWAP1 PUSH1 0x1 ADD SWAP1 DUP1 DUP4 GT PUSH2 0xAB3 JUMPI JUMPDEST POP POP POP POP POP SWAP1 POP SWAP1 JUMP JUMPDEST PUSH1 0x0 PUSH1 0x2 DUP1 SLOAD SWAP1 POP SWAP1 POP SWAP1 JUMP JUMPDEST PUSH1 0x0 PUSH1 0x40 MLOAD DUP1 PUSH1 0xA0 ADD PUSH1 0x40 MSTORE DUP1 DUP8 DUP2 MSTORE PUSH1 0x20 ADD DUP7 DUP7 DUP1 DUP1 PUSH1 0x1F ADD PUSH1 0x20 DUP1 SWAP2 DIV MUL PUSH1 0x20 ADD PUSH1 0x40 MLOAD SWAP1 DUP2 ADD PUSH1 0x40 MSTORE DUP1 SWAP4 SWAP3 SWAP2 SWAP1 DUP2 DUP2 MSTORE PUSH1 0x20 ADD DUP4 DUP4 DUP1 DUP3 DUP5 CALLDATACOPY PUSH1 0x0 DUP2 DUP5 ADD MSTORE PUSH1 0x1F NOT PUSH1 0x1F DUP3 ADD AND SWAP1 POP DUP1 DUP4 ADD SWAP3 POP POP POP POP POP POP POP DUP2 MSTORE PUSH1 0x20 ADD DUP5 DUP5 DUP1 DUP1 PUSH1 0x1F ADD PUSH1 0x20 DUP1 SWAP2 DIV MUL PUSH1 0x20 ADD PUSH1 0x40 MLOAD SWAP1 DUP2 ADD PUSH1 0x40 MSTORE DUP1 SWAP4 SWAP3 SWAP2 SWAP1 DUP2 DUP2 MSTORE PUSH1 0x20 ADD DUP4 DUP4 DUP1 DUP3 DUP5 CALLDATACOPY PUSH1 0x0 DUP2 DUP5 ADD MSTORE PUSH1 0x1F NOT PUSH1 0x1F DUP3 ADD AND SWAP1 POP DUP1 DUP4 ADD SWAP3 POP POP POP POP POP POP POP DUP2 MSTORE PUSH1 0x20 ADD PUSH1 0x0 ISZERO ISZERO DUP2 MSTORE PUSH1 0x20 ADD PUSH1 0x0 DUP2 MSTORE POP SWAP1 POP PUSH1 0x2 DUP2 SWAP1 DUP1 PUSH1 0x1 DUP2 SLOAD ADD DUP1 DUP3 SSTORE DUP1 SWAP2 POP POP PUSH1 0x1 SWAP1 SUB SWAP1 PUSH1 0x0 MSTORE PUSH1 0x20 PUSH1 0x0 KECCAK256 SWAP1 PUSH1 0x5 MUL ADD PUSH1 0x0 SWAP1 SWAP2 SWAP1 SWAP2 SWAP1 SWAP2 POP PUSH1 0x0 DUP3 ADD MLOAD DUP2 PUSH1 0x0 ADD SSTORE PUSH1 0x20 DUP3 ADD MLOAD DUP2 PUSH1 0x1 ADD SWAP1 DUP1 MLOAD SWAP1 PUSH1 0x20 ADD SWAP1 PUSH2 0xBE7 SWAP3 SWAP2 SWAP1 PUSH2 0xEF1 JUMP JUMPDEST POP PUSH1 0x40 DUP3 ADD MLOAD DUP2 PUSH1 0x2 ADD SWAP1 DUP1 MLOAD SWAP1 PUSH1 0x20 ADD SWAP1 PUSH2 0xC04 SWAP3 SWAP2 SWAP1 PUSH2 0xEF1 JUMP JUMPDEST POP PUSH1 0x60 DUP3 ADD MLOAD DUP2 PUSH1 0x3 ADD PUSH1 0x0 PUSH2 0x100 EXP DUP2 SLOAD DUP2 PUSH1 0xFF MUL NOT AND SWAP1 DUP4 ISZERO ISZERO MUL OR SWAP1 SSTORE POP PUSH1 0x80 DUP3 ADD MLOAD DUP2 PUSH1 0x4 ADD SSTORE POP POP PUSH1 0x3 DUP7 SWAP1 DUP1 PUSH1 0x1 DUP2 SLOAD ADD DUP1 DUP3 SSTORE DUP1 SWAP2 POP POP PUSH1 0x1 SWAP1 SUB SWAP1 PUSH1 0x0 MSTORE PUSH1 0x20 PUSH1 0x0 KECCAK256 ADD PUSH1 0x0 SWAP1 SWAP2 SWAP1 SWAP2 SWAP1 SWAP2 POP SSTORE PUSH1 0x1 PUSH1 0x3 DUP1 SLOAD SWAP1 POP PUSH2 0xC6C SWAP2 SWAP1 PUSH2 0x1585 JUMP JUMPDEST PUSH1 0x9 PUSH1 0x0 DUP9 DUP2 MSTORE PUSH1 0x20 ADD SWAP1 DUP2 MSTORE PUSH1 0x20 ADD PUSH1 0x0 KECCAK256 DUP2 SWAP1 SSTORE POP POP POP POP POP POP POP JUMP JUMPDEST PUSH1 0x3 DUP2 DUP2 SLOAD DUP2 LT PUSH2 0xC9B JUMPI PUSH1 0x0 DUP1 REVERT JUMPDEST SWAP1 PUSH1 0x0 MSTORE PUSH1 0x20 PUSH1 0x0 KECCAK256 ADD PUSH1 0x0 SWAP2 POP SWAP1 POP SLOAD DUP2 JUMP JUMPDEST PUSH1 0x60 PUSH1 0x3 DUP1 SLOAD DUP1 PUSH1 0x20 MUL PUSH1 0x20 ADD PUSH1 0x40 MLOAD SWAP1 DUP2 ADD PUSH1 0x40 MSTORE DUP1 SWAP3 SWAP2 SWAP1 DUP2 DUP2 MSTORE PUSH1 0x20 ADD DUP3 DUP1 SLOAD DUP1 ISZERO PUSH2 0xCFD JUMPI PUSH1 0x20 MUL DUP3 ADD SWAP2 SWAP1 PUSH1 0x0 MSTORE PUSH1 0x20 PUSH1 0x0 KECCAK256 SWAP1 JUMPDEST DUP2 SLOAD DUP2 MSTORE PUSH1 0x20 ADD SWAP1 PUSH1 0x1 ADD SWAP1 DUP1 DUP4 GT PUSH2 0xCE9 JUMPI JUMPDEST POP POP POP POP POP SWAP1 POP SWAP1 JUMP JUMPDEST PUSH1 0x2 DUP2 DUP2 SLOAD DUP2 LT PUSH2 0xD17 JUMPI PUSH1 0x0 DUP1 REVERT JUMPDEST SWAP1 PUSH1 0x0 MSTORE PUSH1 0x20 PUSH1 0x0 KECCAK256 SWAP1 PUSH1 0x5 MUL ADD PUSH1 0x0 SWAP2 POP SWAP1 POP DUP1 PUSH1 0x0 ADD SLOAD SWAP1 DUP1 PUSH1 0x1 ADD DUP1 SLOAD PUSH2 0xD40 SWAP1 PUSH2 0x14AC JUMP JUMPDEST DUP1 PUSH1 0x1F ADD PUSH1 0x20 DUP1 SWAP2 DIV MUL PUSH1 0x20 ADD PUSH1 0x40 MLOAD SWAP1 DUP2 ADD PUSH1 0x40 MSTORE DUP1 SWAP3 SWAP2 SWAP1 DUP2 DUP2 MSTORE PUSH1 0x20 ADD DUP3 DUP1 SLOAD PUSH2 0xD6C SWAP1 PUSH2 0x14AC JUMP JUMPDEST DUP1 ISZERO PUSH2 0xDB9 JUMPI DUP1 PUSH1 0x1F LT PUSH2 0xD8E JUMPI PUSH2 0x100 DUP1 DUP4 SLOAD DIV MUL DUP4 MSTORE SWAP2 PUSH1 0x20 ADD SWAP2 PUSH2 0xDB9 JUMP JUMPDEST DUP3 ADD SWAP2 SWAP1 PUSH1 0x0 MSTORE PUSH1 0x20 PUSH1 0x0 KECCAK256 SWAP1 JUMPDEST DUP2 SLOAD DUP2 MSTORE SWAP1 PUSH1 0x1 ADD SWAP1 PUSH1 0x20 ADD DUP1 DUP4 GT PUSH2 0xD9C JUMPI DUP3 SWAP1 SUB PUSH1 0x1F AND DUP3 ADD SWAP2 JUMPDEST POP POP POP POP POP SWAP1 DUP1 PUSH1 0x2 ADD DUP1 SLOAD PUSH2 0xDCE SWAP1 PUSH2 0x14AC JUMP JUMPDEST DUP1 PUSH1 0x1F ADD PUSH1 0x20 DUP1 SWAP2 DIV MUL PUSH1 0x20 ADD PUSH1 0x40 MLOAD SWAP1 DUP2 ADD PUSH1 0x40 MSTORE DUP1 SWAP3 SWAP2 SWAP1 DUP2 DUP2 MSTORE PUSH1 0x20 ADD DUP3 DUP1 SLOAD PUSH2 0xDFA SWAP1 PUSH2 0x14AC JUMP JUMPDEST DUP1 ISZERO PUSH2 0xE47 JUMPI DUP1 PUSH1 0x1F LT PUSH2 0xE1C JUMPI PUSH2 0x100 DUP1 DUP4 SLOAD DIV MUL DUP4 MSTORE SWAP2 PUSH1 0x20 ADD SWAP2 PUSH2 0xE47 JUMP JUMPDEST DUP3 ADD SWAP2 SWAP1 PUSH1 0x0 MSTORE PUSH1 0x20 PUSH1 0x0 KECCAK256 SWAP1 JUMPDEST DUP2 SLOAD DUP2 MSTORE SWAP1 PUSH1 0x1 ADD SWAP1 PUSH1 0x20 ADD DUP1 DUP4 GT PUSH2 0xE2A JUMPI DUP3 SWAP1 SUB PUSH1 0x1F AND DUP3 ADD SWAP2 JUMPDEST POP POP POP POP POP SWAP1 DUP1 PUSH1 0x3 ADD PUSH1 0x0 SWAP1 SLOAD SWAP1 PUSH2 0x100 EXP SWAP1 DIV PUSH1 0xFF AND SWAP1 DUP1 PUSH1 0x4 ADD SLOAD SWAP1 POP DUP6 JUMP JUMPDEST PUSH1 0xA PUSH1 0x20 MSTORE DUP1 PUSH1 0x0 MSTORE PUSH1 0x40 PUSH1 0x0 KECCAK256 PUSH1 0x0 SWAP2 POP SWAP1 POP SLOAD DUP2 JUMP JUMPDEST PUSH1 0x0 DUP1 PUSH1 0x0 PUSH1 0x6 SLOAD PUSH1 0x4 PUSH1 0xA PUSH1 0x0 PUSH1 0x8 SLOAD DUP2 MSTORE PUSH1 0x20 ADD SWAP1 DUP2 MSTORE PUSH1 0x20 ADD PUSH1 0x0 KECCAK256 SLOAD DUP2 SLOAD DUP2 LT PUSH2 0xEB3 JUMPI PUSH2 0xEB2 PUSH2 0x14DE JUMP JUMPDEST JUMPDEST SWAP1 PUSH1 0x0 MSTORE PUSH1 0x20 PUSH1 0x0 KECCAK256 SWAP1 PUSH1 0x4 MUL ADD PUSH1 0x3 ADD SLOAD PUSH1 0x8 SLOAD SWAP3 POP SWAP3 POP SWAP3 POP SWAP1 SWAP2 SWAP3 JUMP JUMPDEST PUSH1 0x8 SLOAD DUP2 JUMP JUMPDEST PUSH1 0x9 PUSH1 0x20 MSTORE DUP1 PUSH1 0x0 MSTORE PUSH1 0x40 PUSH1 0x0 KECCAK256 PUSH1 0x0 SWAP2 POP SWAP1 POP SLOAD DUP2 JUMP JUMPDEST DUP3 DUP1 SLOAD PUSH2 0xEFD SWAP1 PUSH2 0x14AC JUMP JUMPDEST SWAP1 PUSH1 0x0 MSTORE PUSH1 0x20 PUSH1 0x0 KECCAK256 SWAP1 PUSH1 0x1F ADD PUSH1 0x20 SWAP1 DIV DUP2 ADD SWAP3 DUP3 PUSH2 0xF1F JUMPI PUSH1 0x0 DUP6 SSTORE PUSH2 0xF66 JUMP JUMPDEST DUP3 PUSH1 0x1F LT PUSH2 0xF38 JUMPI DUP1 MLOAD PUSH1 0xFF NOT AND DUP4 DUP1 ADD OR DUP6 SSTORE PUSH2 0xF66 JUMP JUMPDEST DUP3 DUP1 ADD PUSH1 0x1 ADD DUP6 SSTORE DUP3 ISZERO PUSH2 0xF66 JUMPI SWAP2 DUP3 ADD JUMPDEST DUP3 DUP2 GT ISZERO PUSH2 0xF65 JUMPI DUP3 MLOAD DUP3 SSTORE SWAP2 PUSH1 0x20 ADD SWAP2 SWAP1 PUSH1 0x1 ADD SWAP1 PUSH2 0xF4A JUMP JUMPDEST JUMPDEST POP SWAP1 POP PUSH2 0xF73 SWAP2 SWAP1 PUSH2 0xF77 JUMP JUMPDEST POP SWAP1 JUMP JUMPDEST JUMPDEST DUP1 DUP3 GT ISZERO PUSH2 0xF90 JUMPI PUSH1 0x0 DUP2 PUSH1 0x0 SWAP1 SSTORE POP PUSH1 0x1 ADD PUSH2 0xF78 JUMP JUMPDEST POP SWAP1 JUMP JUMPDEST PUSH1 0x0 DUP2 MLOAD SWAP1 POP SWAP2 SWAP1 POP JUMP JUMPDEST PUSH1 0x0 DUP3 DUP3 MSTORE PUSH1 0x20 DUP3 ADD SWAP1 POP SWAP3 SWAP2 POP POP JUMP JUMPDEST PUSH1 0x0 JUMPDEST DUP4 DUP2 LT ISZERO PUSH2 0xFCE JUMPI DUP1 DUP3 ADD MLOAD DUP2 DUP5 ADD MSTORE PUSH1 0x20 DUP2 ADD SWAP1 POP PUSH2 0xFB3 JUMP JUMPDEST DUP4 DUP2 GT ISZERO PUSH2 0xFDD JUMPI PUSH1 0x0 DUP5 DUP5 ADD MSTORE JUMPDEST POP POP POP POP JUMP JUMPDEST PUSH1 0x0 PUSH1 0x1F NOT PUSH1 0x1F DUP4 ADD AND SWAP1 POP SWAP2 SWAP1 POP JUMP JUMPDEST PUSH1 0x0 PUSH2 0xFFF DUP3 PUSH2 0xF94 JUMP JUMPDEST PUSH2 0x1009 DUP2 DUP6 PUSH2 0xF9F JUMP JUMPDEST SWAP4 POP PUSH2 0x1019 DUP2 DUP6 PUSH1 0x20 DUP7 ADD PUSH2 0xFB0 JUMP JUMPDEST PUSH2 0x1022 DUP2 PUSH2 0xFE3 JUMP JUMPDEST DUP5 ADD SWAP2 POP POP SWAP3 SWAP2 POP POP JUMP JUMPDEST PUSH1 0x0 PUSH1 0x20 DUP3 ADD SWAP1 POP DUP2 DUP2 SUB PUSH1 0x0 DUP4 ADD MSTORE PUSH2 0x1047 DUP2 DUP5 PUSH2 0xFF4 JUMP JUMPDEST SWAP1 POP SWAP3 SWAP2 POP POP JUMP JUMPDEST PUSH1 0x0 DUP2 SWAP1 POP SWAP2 SWAP1 POP JUMP JUMPDEST PUSH2 0x1062 DUP2 PUSH2 0x104F JUMP JUMPDEST DUP3 MSTORE POP POP JUMP JUMPDEST PUSH1 0x0 PUSH1 0x20 DUP3 ADD SWAP1 POP PUSH2 0x107D PUSH1 0x0 DUP4 ADD DUP5 PUSH2 0x1059 JUMP JUMPDEST SWAP3 SWAP2 POP POP JUMP JUMPDEST PUSH1 0x0 DUP1 REVERT JUMPDEST PUSH1 0x0 DUP1 REVERT JUMPDEST PUSH2 0x1096 DUP2 PUSH2 0x104F JUMP JUMPDEST DUP2 EQ PUSH2 0x10A1 JUMPI PUSH1 0x0 DUP1 REVERT JUMPDEST POP JUMP JUMPDEST PUSH1 0x0 DUP2 CALLDATALOAD SWAP1 POP PUSH2 0x10B3 DUP2 PUSH2 0x108D JUMP JUMPDEST SWAP3 SWAP2 POP POP JUMP JUMPDEST PUSH1 0x0 PUSH1 0x20 DUP3 DUP5 SUB SLT ISZERO PUSH2 0x10CF JUMPI PUSH2 0x10CE PUSH2 0x1083 JUMP JUMPDEST JUMPDEST PUSH1 0x0 PUSH2 0x10DD DUP5 DUP3 DUP6 ADD PUSH2 0x10A4 JUMP JUMPDEST SWAP2 POP POP SWAP3 SWAP2 POP POP JUMP JUMPDEST PUSH1 0x0 PUSH1 0x80 DUP3 ADD SWAP1 POP PUSH2 0x10FB PUSH1 0x0 DUP4 ADD DUP8 PUSH2 0x1059 JUMP JUMPDEST DUP2 DUP2 SUB PUSH1 0x20 DUP4 ADD MSTORE PUSH2 0x110D DUP2 DUP7 PUSH2 0xFF4 JUMP JUMPDEST SWAP1 POP DUP2 DUP2 SUB PUSH1 0x40 DUP4 ADD MSTORE PUSH2 0x1121 DUP2 DUP6 PUSH2 0xFF4 JUMP JUMPDEST SWAP1 POP PUSH2 0x1130 PUSH1 0x60 DUP4 ADD DUP5 PUSH2 0x1059 JUMP JUMPDEST SWAP6 SWAP5 POP POP POP POP POP JUMP JUMPDEST PUSH1 0x0 PUSH1 0x60 DUP3 ADD SWAP1 POP PUSH2 0x114E PUSH1 0x0 DUP4 ADD DUP7 PUSH2 0x1059 JUMP JUMPDEST PUSH2 0x115B PUSH1 0x20 DUP4 ADD DUP6 PUSH2 0x1059 JUMP JUMPDEST PUSH2 0x1168 PUSH1 0x40 DUP4 ADD DUP5 PUSH2 0x1059 JUMP JUMPDEST SWAP5 SWAP4 POP POP POP POP JUMP JUMPDEST PUSH1 0x0 PUSH20 0xFFFFFFFFFFFFFFFFFFFFFFFFFFFFFFFFFFFFFFFF DUP3 AND SWAP1 POP SWAP2 SWAP1 POP JUMP JUMPDEST PUSH1 0x0 PUSH2 0x119B DUP3 PUSH2 0x1170 JUMP JUMPDEST SWAP1 POP SWAP2 SWAP1 POP JUMP JUMPDEST PUSH2 0x11AB DUP2 PUSH2 0x1190 JUMP JUMPDEST DUP3 MSTORE POP POP JUMP JUMPDEST PUSH1 0x0 PUSH1 0x20 DUP3 ADD SWAP1 POP PUSH2 0x11C6 PUSH1 0x0 DUP4 ADD DUP5 PUSH2 0x11A2 JUMP JUMPDEST SWAP3 SWAP2 POP POP JUMP JUMPDEST PUSH1 0x0 DUP2 ISZERO ISZERO SWAP1 POP SWAP2 SWAP1 POP JUMP JUMPDEST PUSH2 0x11E1 DUP2 PUSH2 0x11CC JUMP JUMPDEST DUP3 MSTORE POP POP JUMP JUMPDEST PUSH1 0x0 PUSH1 0x20 DUP3 ADD SWAP1 POP PUSH2 0x11FC PUSH1 0x0 DUP4 ADD DUP5 PUSH2 0x11D8 JUMP JUMPDEST SWAP3 SWAP2 POP POP JUMP JUMPDEST PUSH1 0x0 DUP1 PUSH1 0x40 DUP4 DUP6 SUB SLT ISZERO PUSH2 0x1219 JUMPI PUSH2 0x1218 PUSH2 0x1083 JUMP JUMPDEST JUMPDEST PUSH1 0x0 PUSH2 0x1227 DUP6 DUP3 DUP7 ADD PUSH2 0x10A4 JUMP JUMPDEST SWAP3 POP POP PUSH1 0x20 PUSH2 0x1238 DUP6 DUP3 DUP7 ADD PUSH2 0x10A4 JUMP JUMPDEST SWAP2 POP POP SWAP3 POP SWAP3 SWAP1 POP JUMP JUMPDEST PUSH1 0x0 DUP1 REVERT JUMPDEST PUSH1 0x0 DUP1 REVERT JUMPDEST PUSH1 0x0 DUP1 REVERT JUMPDEST PUSH1 0x0 DUP1 DUP4 PUSH1 0x1F DUP5 ADD SLT PUSH2 0x1267 JUMPI PUSH2 0x1266 PUSH2 0x1242 JUMP JUMPDEST JUMPDEST DUP3 CALLDATALOAD SWAP1 POP PUSH8 0xFFFFFFFFFFFFFFFF DUP2 GT ISZERO PUSH2 0x1284 JUMPI PUSH2 0x1283 PUSH2 0x1247 JUMP JUMPDEST JUMPDEST PUSH1 0x20 DUP4 ADD SWAP2 POP DUP4 PUSH1 0x1 DUP3 MUL DUP4 ADD GT ISZERO PUSH2 0x12A0 JUMPI PUSH2 0x129F PUSH2 0x124C JUMP JUMPDEST JUMPDEST SWAP3 POP SWAP3 SWAP1 POP JUMP JUMPDEST PUSH1 0x0 DUP1 PUSH1 0x0 DUP1 PUSH1 0x0 PUSH1 0x60 DUP7 DUP9 SUB SLT ISZERO PUSH2 0x12C3 JUMPI PUSH2 0x12C2 PUSH2 0x1083 JUMP JUMPDEST JUMPDEST PUSH1 0x0 PUSH2 0x12D1 DUP9 DUP3 DUP10 ADD PUSH2 0x10A4 JUMP JUMPDEST SWAP6 POP POP PUSH1 0x20 DUP7 ADD CALLDATALOAD PUSH8 0xFFFFFFFFFFFFFFFF DUP2 GT ISZERO PUSH2 0x12F2 JUMPI PUSH2 0x12F1 PUSH2 0x1088 JUMP JUMPDEST JUMPDEST PUSH2 0x12FE DUP9 DUP3 DUP10 ADD PUSH2 0x1251 JUMP JUMPDEST SWAP5 POP SWAP5 POP POP PUSH1 0x40 DUP7 ADD CALLDATALOAD PUSH8 0xFFFFFFFFFFFFFFFF DUP2 GT ISZERO PUSH2 0x1321 JUMPI PUSH2 0x1320 PUSH2 0x1088 JUMP JUMPDEST JUMPDEST PUSH2 0x132D DUP9 DUP3 DUP10 ADD PUSH2 0x1251 JUMP JUMPDEST SWAP3 POP SWAP3 POP POP SWAP3 SWAP6 POP SWAP3 SWAP6 SWAP1 SWAP4 POP JUMP JUMPDEST PUSH1 0x0 DUP2 MLOAD SWAP1 POP SWAP2 SWAP1 POP JUMP JUMPDEST PUSH1 0x0 DUP3 DUP3 MSTORE PUSH1 0x20 DUP3 ADD SWAP1 POP SWAP3 SWAP2 POP POP JUMP JUMPDEST PUSH1 0x0 DUP2 SWAP1 POP PUSH1 0x20 DUP3 ADD SWAP1 POP SWAP2 SWAP1 POP JUMP JUMPDEST PUSH2 0x1371 DUP2 PUSH2 0x104F JUMP JUMPDEST DUP3 MSTORE POP POP JUMP JUMPDEST PUSH1 0x0 PUSH2 0x1383 DUP4 DUP4 PUSH2 0x1368 JUMP JUMPDEST PUSH1 0x20 DUP4 ADD SWAP1 POP SWAP3 SWAP2 POP POP JUMP JUMPDEST PUSH1 0x0 PUSH1 0x20 DUP3 ADD SWAP1 POP SWAP2 SWAP1 POP JUMP JUMPDEST PUSH1 0x0 PUSH2 0x13A7 DUP3 PUSH2 0x133C JUMP JUMPDEST PUSH2 0x13B1 DUP2 DUP6 PUSH2 0x1347 JUMP JUMPDEST SWAP4 POP PUSH2 0x13BC DUP4 PUSH2 0x1358 JUMP JUMPDEST DUP1 PUSH1 0x0 JUMPDEST DUP4 DUP2 LT ISZERO PUSH2 0x13ED JUMPI DUP2 MLOAD PUSH2 0x13D4 DUP9 DUP3 PUSH2 0x1377 JUMP JUMPDEST SWAP8 POP PUSH2 0x13DF DUP4 PUSH2 0x138F JUMP JUMPDEST SWAP3 POP POP PUSH1 0x1 DUP2 ADD SWAP1 POP PUSH2 0x13C0 JUMP JUMPDEST POP DUP6 SWAP4 POP POP POP POP SWAP3 SWAP2 POP POP JUMP JUMPDEST PUSH1 0x0 PUSH1 0x20 DUP3 ADD SWAP1 POP DUP2 DUP2 SUB PUSH1 0x0 DUP4 ADD MSTORE PUSH2 0x1414 DUP2 DUP5 PUSH2 0x139C JUMP JUMPDEST SWAP1 POP SWAP3 SWAP2 POP POP JUMP JUMPDEST PUSH1 0x0 PUSH1 0xA0 DUP3 ADD SWAP1 POP PUSH2 0x1431 PUSH1 0x0 DUP4 ADD DUP9 PUSH2 0x1059 JUMP JUMPDEST DUP2 DUP2 SUB PUSH1 0x20 DUP4 ADD MSTORE PUSH2 0x1443 DUP2 DUP8 PUSH2 0xFF4 JUMP JUMPDEST SWAP1 POP DUP2 DUP2 SUB PUSH1 0x40 DUP4 ADD MSTORE PUSH2 0x1457 DUP2 DUP7 PUSH2 0xFF4 JUMP JUMPDEST SWAP1 POP PUSH2 0x1466 PUSH1 0x60 DUP4 ADD DUP6 PUSH2 0x11D8 JUMP JUMPDEST PUSH2 0x1473 PUSH1 0x80 DUP4 ADD DUP5 PUSH2 0x1059 JUMP JUMPDEST SWAP7 SWAP6 POP POP POP POP POP POP JUMP JUMPDEST PUSH32 0x4E487B7100000000000000000000000000000000000000000000000000000000 PUSH1 0x0 MSTORE PUSH1 0x22 PUSH1 0x4 MSTORE PUSH1 0x24 PUSH1 0x0 REVERT JUMPDEST PUSH1 0x0 PUSH1 0x2 DUP3 DIV SWAP1 POP PUSH1 0x1 DUP3 AND DUP1 PUSH2 0x14C4 JUMPI PUSH1 0x7F DUP3 AND SWAP2 POP JUMPDEST PUSH1 0x20 DUP3 LT DUP2 EQ ISZERO PUSH2 0x14D8 JUMPI PUSH2 0x14D7 PUSH2 0x147D JUMP JUMPDEST JUMPDEST POP SWAP2 SWAP1 POP JUMP JUMPDEST PUSH32 0x4E487B7100000000000000000000000000000000000000000000000000000000 PUSH1 0x0 MSTORE PUSH1 0x32 PUSH1 0x4 MSTORE PUSH1 0x24 PUSH1 0x0 REVERT JUMPDEST PUSH32 0x4E487B7100000000000000000000000000000000000000000000000000000000 PUSH1 0x0 MSTORE PUSH1 0x11 PUSH1 0x4 MSTORE PUSH1 0x24 PUSH1 0x0 REVERT JUMPDEST PUSH1 0x0 PUSH2 0x1547 DUP3 PUSH2 0x104F JUMP JUMPDEST SWAP2 POP PUSH32 0xFFFFFFFFFFFFFFFFFFFFFFFFFFFFFFFFFFFFFFFFFFFFFFFFFFFFFFFFFFFFFFFF DUP3 EQ ISZERO PUSH2 0x157A JUMPI PUSH2 0x1579 PUSH2 0x150D JUMP JUMPDEST JUMPDEST PUSH1 0x1 DUP3 ADD SWAP1 POP SWAP2 SWAP1 POP JUMP JUMPDEST PUSH1 0x0 PUSH2 0x1590 DUP3 PUSH2 0x104F JUMP JUMPDEST SWAP2 POP PUSH2 0x159B DUP4 PUSH2 0x104F JUMP JUMPDEST SWAP3 POP DUP3 DUP3 LT ISZERO PUSH2 0x15AE JUMPI PUSH2 0x15AD PUSH2 0x150D JUMP JUMPDEST JUMPDEST DUP3 DUP3 SUB SWAP1 POP SWAP3 SWAP2 POP POP JUMP INVALID LOG2 PUSH5 0x6970667358 0x22 SLT KECCAK256 0xB4 DUP2 MULMOD 0xA9 GAS 0xB4 0x21 0xCA PUSH11 0xA0AD6DDAE7FDECE75B73E2 AND GASLIMIT BALANCE LOG0 0xA7 DUP16 CALLCODE 0xE5 0x1F RETURNDATACOPY 0xDD 0xD8 PUSH5 0x736F6C6343 STOP ADDMOD SIGNEXTEND STOP CALLER "},"gasEstimates":{"creation":{"codeDepositCost":"1123000","executionCost":"infinite","totalCost":"infinite"},"external":{"candidateIndex(uint256)":"infinite","candidates(uint256)":"infinite","cids(uint256)":"infinite","complete()":"2494","declareResult()":"infinite","getCandidateIds()":"infinite","getCandidatesCount()":"2556","getResult()":"infinite","getSummary()":"infinite","getVoterIds()":"infinite","getVotersCount()":"2512","manager()":"2623","name()":"infinite","pollVote(uint256,uint256)":"infinite","registerCandidate(uint256,string,string)":"infinite","registerVoter(uint256,string,string)":"infinite","totalVotes()":"2475","vids(uint256)":"infinite","voterIndex(uint256)":"infinite","voters(uint256)":"infinite","winner()":"2539"}},"methodIdentifiers":{"candidateIndex(uint256)":"da60f7b1","candidates(uint256)":"3477ee2e","cids(uint256)":"704fe710","complete()":"522e1177","declareResult()":"8574c296","getCandidateIds()":"bec0fde2","getCandidatesCount()":"bb9aa28f","getResult()":"de292789","getSummary()":"4051ddac","getVoterIds()":"d64042a3","getVotersCount()":"c0f2a777","manager()":"481c6a75","name()":"06fdde03","pollVote(uint256,uint256)":"749e28b9","registerCandidate(uint256,string,string)":"bd5b5faf","registerVoter(uint256,string,string)":"cd65a20a","totalVotes()":"0d15fd77","vids(uint256)":"d3fe94bf","voterIndex(uint256)":"f8394d63","voters(uint256)":"da58c7d9","winner()":"dfbf53ae"}},"storageLayout":{"storage":[{"astId":62,"contract":"Campaign.sol:Campaign","label":"manager","offset":0,"slot":"0","type":"t_address"},{"astId":64,"contract":"Campaign.sol:Campaign","label":"name","offset":0,"slot":"1","type":"t_string_storage"},{"astId":68,"contract":"Campaign.sol:Campaign","label":"voters","offset":0,"slot":"2","type":"t_array(t_struct(Voter)51_storage)dyn_storage"},{"astId":71,"contract":"Campaign.sol:Campaign","label":"vids","offset":0,"slot":"3","type":"t_array(t_uint256)dyn_storage"},{"astId":75,"contract":"Campaign.sol:Campaign","label":"candidates","offset":0,"slot":"4","type":"t_array(t_struct(Candidate)60_storage)dyn_storage"},{"astId":78,"contract":"Campaign.sol:Campaign","label":"cids","offset":0,"slot":"5","type":"t_array(t_uint256)dyn_storage"},{"astId":80,"contract":"Campaign.sol:Campaign","label":"totalVotes","offset":0,"slot":"6","type":"t_uint256"},{"astId":82,"contract":"Campaign.sol:Campaign","label":"complete","offset":0,"slot":"7","type":"t_bool"},{"astId":84,"contract":"Campaign.sol:Campaign","label":"winner","offset":0,"slot":"8","type":"t_uint256"},{"astId":88,"contract":"Campaign.sol:Campaign","label":"voterIndex","offset":0,"slot":"9","type":"t_mapping(t_uint256,t_uint256)"},{"astId":92,"contract":"Campaign.sol:Campaign","label":"candidateIndex","offset":0,"slot":"10","type":"t_mapping(t_uint256,t_uint256)"}],"types":{"t_address":{"encoding":"inplace","label":"address","numberOfBytes":"20"},"t_array(t_struct(Candidate)60_storage)dyn_storage":{"base":"t_struct(Candidate)60_storage","encoding":"dynamic_array","label":"struct Campaign.Candidate[]","numberOfBytes":"32"},"t_array(t_struct(Voter)51_storage)dyn_storage":{"base":"t_struct(Voter)51_storage","encoding":"dynamic_array","label":"struct Campaign.Voter[]","numberOfBytes":"32"},"t_array(t_uint256)dyn_storage":{"base":"t_uint256","encoding":"dynamic_array","label":"uint256[]","numberOfBytes":"32"},"t_bool":{"encoding":"inplace","label":"bool","numberOfBytes":"1"},"t_mapping(t_uint256,t_uint256)":{"encoding":"mapping","key":"t_uint256","label":"mapping(uint256 => uint256)","numberOfBytes":"32","value":"t_uint256"},"t_string_storage":{"encoding":"bytes","label":"string","numberOfBytes":"32"},"t_struct(Candidate)60_storage":{"encoding":"inplace","label":"struct Campaign.Candidate","members":[{"astId":53,"contract":"Campaign.sol:Campaign","label":"uid","offset":0,"slot":"0","type":"t_uint256"},{"astId":55,"contract":"Campaign.sol:Campaign","label":"fullName","offset":0,"slot":"1","type":"t_string_storage"},{"astId":57,"contract":"Campaign.sol:Campaign","label":"location","offset":0,"slot":"2","type":"t_string_storage"},{"astId":59,"contract":"Campaign.sol:Campaign","label":"votes","offset":0,"slot":"3","type":"t_uint256"}],"numberOfBytes":"128"},"t_struct(Voter)51_storage":{"encoding":"inplace","label":"struct Campaign.Voter","members":[{"astId":42,"contract":"Campaign.sol:Campaign","label":"uid","offset":0,"slot":"0","type":"t_uint256"},{"astId":44,"contract":"Campaign.sol:Campaign","label":"fullName","offset":0,"slot":"1","type":"t_string_storage"},{"astId":46,"contract":"Campaign.sol:Campaign","label":"location","offset":0,"slot":"2","type":"t_string_storage"},{"astId":48,"contract":"Campaign.sol:Campaign","label":"voted","offset":0,"slot":"3","type":"t_bool"},{"astId":50,"contract":"Campaign.sol:Campaign","label":"cid","offset":0,"slot":"4","type":"t_uint256"}],"numberOfBytes":"160"},"t_uint256":{"encoding":"inplace","label":"uint256","numberOfBytes":"32"}}},"userdoc":{"kind":"user","methods":{},"version":1}}